:020000040800F2
:100000002810002035820008BD5600083F820008F5
:10001000BF560008C3560008C7560008000000007D
:10002000000000000000000000000000CB560008A7
:10003000CD560008000000004B820008CF56000893
:100040004F8200084F8200084F8200084F8200084C
:100050004F8200084F8200084F8200084F8200083C
:100060004F8200084F8200084F8200084F8200082C
:100070004F8200084F8200084F8200084F8200081C
:100080004F8200084F8200084F8200084F8200080C
:100090004F8200084F8200084F8200084F820008FC
:1000A0004F8200084F8200084F8200084F820008EC
:1000B0004F8200084F8200084F8200084F820008DC
:1000C0004F8200084F8200084F8200084F820008CC
:1000D0004F820008D75600084F820008D956000802
:1000E0004F8200084F8200084F82000800F002F89B
:1000F00000F03CF80AA090E8000C82448344AAF186
:100100000107DA4501D100F031F8AFF2090EBAE883
:100110000F0013F0010F18BFFB1A43F0010318473B
:1001200030A7000050A70000103A24BF78C878C15B
:10013000FAD8520724BF30C830C144BF04680C60ED
:10014000704700000023002400250026103A28BF35
:1001500078C1FBD8520728BF30C148BF0B60704739
:100160001FB508F08BF81FBD10B510BD08F0ACF836
:100170001146FFF7F5FF00F009F808F0CAF803B4DC
:10018000FFF7F2FF03BC08F0CBF8000003F077FCA8
:10019000064802F0B9FF064801F0DFFD054802F00D
:1001A0003FF901E003F0DCFAFCE700005200002018
:1001B00018020020F80400200122C272704710B516
:1001C0000446607B00B338480078401C364908700C
:1001D00008460078012804D0052809D00A2812D141
:1001E0000DE0324804F008FA304804F00DFA0AE055
:1001F0002E4804F011FA2D4804F016FA03E000200E
:100200002949087000BF49E0607AE0B1207BD0B98D
:1002100025480078401C24490870084600780128C9
:1002200004D0142806D028280CD107E01F4804F079
:10023000E3F907E01D4804F0EFF903E000201A4954
:10024000087000BF2AE0607A10B3207B00B3184822
:100250000078401C1649087008460078012804D030
:10026000142809D0282812D10DE0104804F0C4F950
:100270000E4804F0D9F90AE00C4804F0CDF90B4817
:1002800004F0C2F903E000200949087000BF05E04E
:10029000064804F0B1F9054804F0B6F910BD00B500
:1002A0000448FFF789FF00BD000000207400002013
:1002B00001000020CC00002070B504460E46154613
:1002C0002A4604F10F01FE4804F084FE70BD2DE9BA
:1002D000F04104460D461646AA20E073AA21217477
:1002E000EF2161740221A174E574267500270020B6
:1002F00006E004F10F01095C3944CFB2411CC8B2D9
:100300000628F6DB6775082204F10F012046FFF787
:10031000D3FFBDE8F0812DE9F04F87B005460C46CC
:100320001646002701200690002004E0215C394495
:10033000CFB2411CC8B2711E8142F7DCA01910F87F
:10034000010CB84202D007B0BDE8F08F2078AA288F
:1003500002D16078AF2800D0F5E70021D94881723A
:10036000A078012811D12079012801D1D64908703F
:100370002079022802D10120D3494870207903282E
:1003800003D10120D04908704870A078022816D106
:100390002079012805D128716871A871E871287247
:1003A00068722079A02801D1012028702079A12825
:1003B00005D1C64801F0BAFAC54802F08CFDA07814
:1003C00003287CD12079617941EA0020C149C880A5
:1003D000A079E17941EA0020BE498880207A617ADB
:1003E00041EA0020BB490880A07AE17A41EA002076
:1003F000B8494880207B617B41EA0020B5490881EB
:10040000A07BE17B41EA0020B2494881207C617CED
:1004100041EA0020AF498881A07CE17C41EA0020CC
:10042000AC49C8810698002861D008460088A0F22F
:10043000DC5908464088A0F2DC58A749886803F0D8
:100440004AFA029008F064FA8246484609F02EFE05
:100450008346514609F08AFE9F490490886803F05C
:100460003AFA019008F024FE8346404609F01EFE49
:100470005946029009F07AFE8246984909F0A4FF95
:100480000390049909F042FC059009F0EFFD9149B1
:1004900008809149886803F01EFA029008F008FE6F
:1004A0000490484609F002FE0390049909F05EFEAC
:1004B00089490590886803F00EFA019000E016E083
:1004C00008F026FA0390404609F0F0FD02900399E7
:1004D00009F04CFE8149049009F018FC8346059907
:1004E00009F014FC824609F0C1FD7A494880A078E1
:1004F00010287DD12179090209B2627941EA02000E
:1005000009F0D4FD8246764909F074FC6F49086011
:10051000A179090209B2E27941EA020009F0C6FDB7
:1005200082466F4909F066FC68494860217A0902F1
:1005300009B2627A41EA020009F0B8FD82466849D0
:1005400009F058FC61498860A17A090209B2E27A8F
:1005500041EA020009F0AAFD8246614909F04AFC1D
:100560005A49C861217B090209B2627B41EA020053
:1005700009F09CFD82465A4909F03CFC5349086247
:10058000A17B090209B2E27B41EA020009F08EFD7B
:100590008246534909F02EFC4C494862217C0902ED
:1005A00009B2627C41EA020009F080FD82464C49B2
:1005B00009F020FC45498863A17C090209B2E27C6C
:1005C00041EA020009F072FD8246454909F012FC39
:1005D0003E49C863217D090209B2627D41EA0200F9
:1005E00009F064FD82463E4909F004FC374900E009
:1005F00005E00864A1783A462846FFF768FEA0782F
:1006000011286FD12179090209B2627941EA020009
:1006100009F04CFD8246324909F0ECFB2B49486554
:10062000A179090209B2E27941EA020009F03EFD2E
:1006300082462B4909F0DEFB24498865217A0902AC
:1006400009B2627A41EA020009F030FD824624498B
:1006500009F0D0FB1D49C865A17A090209B2E27A06
:1006600041EA020009F022FD82461D4909F0C2FB61
:1006700016490867217B090209B2627B41EA020040
:1006800009F014FD8246164909F0B4FB0F4948678A
:10069000A17B090209B2E27B41EA020009F006FDF2
:1006A00082460F4909F0A6FB08498867217C0902A8
:1006B00009B2627C41EA020009F0F8FC824612E0CD
:1006C00098060020CC000020180600202001002001
:1006D00052000020CC050020180200200080BB44FE
:1006E00000007A4428E0FE4909F084FBFD49C1F886
:1006F0008C00A17C090209B2E27C41EA020009F007
:10070000D5FC8246F64909F075FBF649C1F8900020
:10071000217D090209B2627D41EA020009F0C6FCAE
:100720008246EF4909F066FBEE49C1F89400A178D2
:100730003A462846FFF7CBFDA078122834D121791C
:10074000090209B2627941EA020009F0AFFC82466F
:10075000E34909F04FFBE349C1F8A800A179090278
:1007600009B2E27941EA020009F0A0FC8246DC49C4
:1007700009F040FBDB49C1F8AC00217A090209B25B
:10078000627A41EA020009F091FC8246D44909F0FC
:1007900031FBD449C1F8B000A1783A462846FFF7AA
:1007A00096FDD14802F097FBA078132804D1A178D8
:1007B0003A462846FFF78BFDA078142804D1A1788B
:1007C0003A462846FFF783FDA078152804D1A17882
:1007D0003A462846FFF77BFD00BFB4E510B5044656
:1007E000C24804F074FC10BD2DE9FC5F04460E46BF
:1007F00017469846DDE90CAB0025AA2229466D1C58
:1008000004F10F00425429466D1C425406F10F00BA
:10081000C2B229466D1C04F10F0042540022294641
:100820006D1C4254AE49384609F0A0FC009009F016
:10083000D7FB00B201909DF8052029466D1C04F1FC
:100840000F0042549DF8042029466D1C4254A449CF
:10085000404609F08BFC009009F0C2FB00B2019009
:100860009DF8052029466D1C04F10F0042549DF8A7
:1008700004202846691CCDB204F10F010A5498499E
:10088000504609F073FC009009F0AAFB00B20190F9
:100890009DF805202846691CCDB204F10F010A54C9
:1008A0009DF804202846691CCDB204F10F010A54BA
:1008B0008B49584609F05AFC009009F091FB00B2B0
:1008C00001909DF805202846691CCDB204F10F0166
:1008D0000A549DF804202846691CCDB204F10F018A
:1008E0000A547F490E9809F041FC009009F078FB0A
:1008F00000B201909DF805202846691CCDB204F194
:100900000F010A549DF804202846691CCDB204F159
:100910000F010A5472490F9809F028FC009009F061
:100920005FFB00B201909DF805202846691CCDB2FE
:1009300004F10F010A549DF804202846691CCDB229
:1009400004F10F010A546649109809F00FFC009059
:1009500009F046FB00B201909DF805202846691C6D
:10096000CDB204F10F010A549DF804202846691CF9
:10097000CDB204F10F010A545949119809F0F6FB60
:10098000009009F02DFB00B201909DF8052028464B
:10099000691CCDB204F10F010A549DF804202846C9
:1009A000691CCDB204F10F010A544D49129809F0A7
:1009B000DDFB009009F014FB00B201909DF80520CA
:1009C0002846691CCDB204F10F010A549DF8042099
:1009D0002846691CCDB204F10F010A54281FA074E7
:1009E0004FF00009002007E004F10F01095C4944C1
:1009F00001F0FF09411CC8B2A842F5DB2846691C7A
:100A0000CDB204F10F0101F800902A462046FFF70D
:100A100053FCBDE8FC9F2DE9F84304460E461746FB
:100A20000025AA2229466D1C04F10F0042542946D4
:100A30006D1C4254052229466D1C42540022294651
:100A40006D1C425400969DF8012029466D1C4254AD
:100A50009DF8002029466D1C425400979DF8012006
:100A600029466D1C42549DF800202846691CCDB2D1
:100A700004F10F010A54281FA0744FF00008002051
:100A800007E004F10F01095C414401F0FF08411C3B
:100A9000C8B2A842F5DB2846691CCDB204F10F01AB
:100AA00001F800802A462046FFF706FCBDE8F883DF
:100AB0007FB504460025AA2229466D1C04F10F00CB
:100AC000425429466D1C4254062229466D1C42544C
:100AD000002229466D1C42549DF80520294607E056
:100AE00000007A44200100205200002098060020D7
:100AF0006D1C42549DF8042029466D1C42549DF8FB
:100B0000092029466D1C42549DF808202846691C7E
:100B1000CDB204F10F010A549DF80D202846691C3E
:100B2000CDB204F10F010A549DF80C202846691C2F
:100B3000CDB204F10F010A549DF821202846691C0A
:100B4000CDB204F10F010A549DF820202846691CFB
:100B5000CDB204F10F010A549DF825202846691CE6
:100B6000CDB204F10F010A549DF824202846691CD7
:100B7000CDB204F10F010A549DF829202846691CC2
:100B8000CDB204F10F010A549DF828202846691CB3
:100B9000CDB204F10F010A549DF82D202846691C9E
:100BA000CDB204F10F010A549DF82C202846691C8F
:100BB000CDB204F10F010A549DF831202846691C7A
:100BC000CDB204F10F010A549DF830202846691C6B
:100BD000CDB204F10F010A54281FA0740026002092
:100BE00006E004F10F01095C3144CEB2411CC8B2E9
:100BF000A842F6DB2846691CCDB204F10F010E5461
:100C00002A462046FFF758FB7FBD7FB504460025E6
:100C1000AA2229466D1C04F10F00425429466D1C7E
:100C20004254032229466D1C4254002229466D1C61
:100C300042549DF8052029466D1C42549DF804201D
:100C400029466D1C42549DF8092029466D1C4254CA
:100C50009DF808202846691CCDB204F10F010A5402
:100C60009DF80D202846691CCDB204F10F010A54ED
:100C70009DF80C202846691CCDB204F10F010A54DE
:100C80009DF821202846691CCDB204F10F010A54B9
:100C90009DF820202846691CCDB204F10F010A54AA
:100CA0009DF825202846691CCDB204F10F010A5495
:100CB0009DF824202846691CCDB204F10F010A5486
:100CC0009DF829202846691CCDB204F10F010A5471
:100CD0009DF828202846691CCDB204F10F010A5462
:100CE0009DF82D202846691CCDB204F10F010A544D
:100CF0009DF82C202846691CCDB204F10F010A543E
:100D00009DF831202846691CCDB204F10F010A5428
:100D10009DF830202846691CCDB204F10F010A5419
:100D20009DF835202846691CCDB204F10F010A5404
:100D30009DF834202846691CCDB204F10F010A54F5
:100D40009DF839202846691CCDB204F10F010A54E0
:100D50009DF838202846691CCDB204F10F010A54D1
:100D6000281FA0740026002006E004F10F01095C92
:100D70003144CEB2411CC8B2A842F6DB2846691CF9
:100D8000CDB204F10F010E542A462046FFF794FA23
:100D90007FBD2DE9F84304460E4617460025AA22DA
:100DA00029466D1C04F10F00425429466D1C425423
:100DB000072229466D1C4254002229466D1C4254CC
:100DC00000969DF8032029466D1C42549DF8022090
:100DD00029466D1C42549DF8012029466D1C425441
:100DE0009DF800202846691CCDB204F10F010A5479
:100DF00000979DF801202846691CCDB204F10F012F
:100E00000A549DF800202846691CCDB204F10F0158
:100E10000A54281FA0744FF00008002007E004F1D6
:100E20000F01095C414401F0FF08411CC8B2A8420F
:100E3000F5DB2846691CCDB204F10F0101F80080F2
:100E40002A462046FFF738FABDE8F8832DE9F84F27
:100E500004460E4617469846DDE90AAB0025AA224D
:100E600029466D1C04F10F00425429466D1C425462
:100E7000022229466D1C4254002229466D1C425410
:100E800000969DF8012029466D1C42549DF80020D3
:100E900029466D1C425400979DF8012029466D1C7F
:100EA00042549DF800202846691CCDB204F10F0180
:100EB0000A54CDF800809DF801202846691CCDB267
:100EC00004F10F010A549DF800202846691CCDB298
:100ED00004F10F010A54CDF800A09DF80120284626
:100EE000691CCDB204F10F010A549DF80020284678
:100EF000691CCDB204F10F010A54CDF800B09DF881
:100F000001202846691CCDB204F10F010A549DF856
:100F100000202846691CCDB204F10F010A540C9838
:100F200000909DF801202846691CCDB204F10F0104
:100F30000A549DF800202846691CCDB204F10F0127
:100F40000A540D9800909DF801202846691CCDB2E6
:100F500004F10F010A549DF800202846691CCDB207
:100F600004F10F010A540E9800909DF801202846C4
:100F7000691CCDB204F10F010A549DF800202846E7
:100F8000691CCDB204F10F010A540F9800909DF82E
:100F900001202846691CCDB204F10F010A549DF8C6
:100FA00000202846691CCDB204F10F010A54281F05
:100FB000A0744FF00009002007E004F10F01095C64
:100FC000494401F0FF09411CC8B2A842F5DB28469C
:100FD000691CCDB204F10F0101F800902A462046A9
:100FE000FFF76AF9BDE8F88F2DE9FE4F04460E467B
:100FF00017469846DDE90CAB0025CDF804A0AA22DF
:1010000029466D1C04F10F00425429466D1C4254C0
:10101000012229466D1C4254002229466D1C42546F
:10102000FE49304609F0A2F8009008F0D9FF00B25E
:1010300002909DF8092029466D1C04F10F004254CE
:101040009DF8082029466D1C4254F449384609F0A1
:101050008DF8009008F0C4FF00B202909DF80920BE
:1010600029466D1C04F10F0042549DF808202846C3
:10107000691CCDB204F10F010A54E849404609F059
:1010800075F8009008F0ACFF00B202909DF80920BE
:101090002846691CCDB204F10F010A549DF80820BE
:1010A0002846691CCDB204F10F010A549DF80720AF
:1010B0002846691CCDB204F10F010A549DF80620A0
:1010C0002846691CCDB204F10F010A549DF8052091
:1010D0002846691CCDB204F10F010A549DF8042082
:1010E0002846691CCDB204F10F010A542846691C38
:1010F000CDB204F10F0101F800B029466A1CD5B247
:1011000004F10F020E985054281FA0744FF00009EC
:10111000002007E004F10F01095C494401F0FF09D8
:10112000411CC8B2A842F5DB2846691CCDB204F1C7
:101130000F0101F800902A462046FFF7BDF8BDE8F0
:10114000FE8F2DE9FF4104460E460025AA222946BE
:101150006D1C04F10F00425429466D1C42540022BC
:1011600029466D1C425429466D1C425429466D1C6B
:1011700046549DF8092029466D1C42549DF80820CC
:1011800029466D1C42549DF80D202846691CCDB29D
:1011900004F10F010A549DF80C202846691CCDB2B9
:1011A00004F10F010A549DF829202846691CCDB28C
:1011B00004F10F010A549DF828202846691CCDB27D
:1011C00004F10F010A549DF82D202846691CCDB268
:1011D00004F10F010A549DF82C202846691CCDB259
:1011E00004F10F010A54281FA0740027002006E014
:1011F00004F10F01095C3944CFB2411CC8B2A842C6
:10120000F6DB2846691CCDB204F10F010F542A46C3
:101210002046FFF751F8BDE8FF812DE9F04788B07F
:1012200004467F4800787F49097890FBF1F201FB82
:1012300012017C480078401E814201D10120A0703B
:10124000774800787849097890FBF1F201FB1201A8
:1012500075480078401E814201D10120E07070483D
:1012600000787249097890FBF1F201FB12016F4896
:101270000078401E814201D10120607368480078E7
:101280006B49097890FBF1F201FB12016848007884
:10129000401E814201D1012060706148007865499B
:1012A000097890FBF1F201FB120162480078401EC0
:1012B000814201D10120A072594800785E49097825
:1012C00090FBF1F201FB12015B480078401E814265
:1012D00001D101202073524800785849097890FBC9
:1012E000F1F201FB120155480078401E814201D104
:1012F0000120A0734A480078401C494908702078B2
:1013000068B1002020704FF4C8716E234FF49672BC
:10131000CDE9001001212046FFF713FF44E160787A
:10132000A8B1002060704649086B08F059FE0546D8
:101330004448407A4349097BCDE900510290424834
:101340008368426801682046FFF74EFE2CE1607B0F
:1013500010B10020607327E1A07880B30020A07056
:101360003949486908F03CFE05B23749086908F078
:1013700037FE06B23449C86808F032FE07B2324977
:10138000C86A08F02DFE0FFA80F82F49886A08F025
:1013900027FE0FFA80F92C49486A08F021FE0FFA5F
:1013A00080FA0020CDE90250049043464A46514657
:1013B000CDE9007605902046FFF748FDF4E0FFE711
:1013C000E078A0B10020E0701D48806800EBC00309
:1013D00003EB00104FF6FF7303EA800218484068E1
:1013E000642300FB03F12046FFF7D3FCDCE0A07A86
:1013F00098B10020A0721548408A1449098A134AFE
:10140000D289124B9B89CDE90332CDE905100F48F3
:10141000418900890D4A52881AE024E00000C84240
:10142000020000200300002009000020040000202A
:101430000500002006000020070000200800002012
:10144000F8040020CC00002018020020CC05002069
:10145000CDE900200291614803888288C188204636
:10146000FFF7D3FBA0E0207B80B30020207305A909
:101470005B4800F051FF00200AE005A931F8101088
:10148000A1F57A7109B205AA22F81010411CC8B260
:101490000628F2DB0022BDF81E0080B2BDF81C1049
:1014A00089B2CDE9020204920191BDF81A0080B21E
:1014B0000090BDF8180083B2BDF8160082B2BDF8E6
:1014C000140081B22046FFF7F3FA6DE0FFE7A07B3E
:1014D00080B10020A07343494348006808F046FEED
:1014E000064608F0C3FD85B2002229462046FFF7D4
:1014F00092FA59E02079E8B1002020713B48016C54
:10150000C06B3A4A926B394B5B6ACDE90332CDE945
:1015100005013648006A3549C969344A9268CDE9FF
:101520000021029031484368012102682046FFF7FC
:101530005BF939E06079F0B1002060712B48D0F898
:101540009420D0F89010D0F88C00284B9B6FCDE9F8
:101550000330CDE905122548416F006F234AD26D53
:10156000CDE9002002912148836D0221426D204681
:10157000FFF73AF918E0A079B0B10020A07103900C
:10158000049005900146024606901848D0F8B00035
:10159000CDE9012100901548D0F8AC300321D0F8F6
:1015A000A8202046FFF720F908B0BDE8F0871049D1
:1015B00009781E290CDD00210D4A11700D49897A28
:1015C00019B901220B498A7202E0002209494A72C4
:1015D00007490978491C064A11707047CC0500205C
:1015E000EC0400200000C842680000202001002018
:1015F0000A000020CC0000202DE9F04781460C466F
:1016000015462946C34808F0B1FD804641464FF0D3
:101610007E5008F0EFFB0746214608F077FB0646B0
:101620003146204608F0E6FBBDE8F0872DE9F84F8B
:101630000F4615461C462946B64808F097FD8146D8
:10164000394608F093FD804641464FF07E5008F041
:10165000D1FB06463146B04808F088FD8246314647
:10166000304608F083FD8346514608F04FFB814623
:101670004FF07E5108F04AFB804641464FF07E50C5
:1016800008F0B8FB20603146A34808F06FFD8346A0
:101690003146304608F06AFD5946009008F036FBA6
:1016A00082464FF07E5108F031FB804631469A4821
:1016B00008F05CFD314600904FF0804008F056FD88
:1016C0008346314608F052FD8246009908F01EFB21
:1016D0008146414608F08EFB606031468E4808F036
:1016E00045FD83463146304608F040FD594600909E
:1016F00008F00CFB81464FF07E5108F007FB804656
:101700003146304608F032FD8246414608F072FB11
:10171000A060BDE8F88F2DE9F04107460D4614465C
:101720002146284608F0F2FA06463146204608F0DF
:1017300061FBBDE8F0810FB4F0B58DB005460F46F2
:101740001A9C224617A904A807F018FF04A807C886
:1017500007AB07C321464FF07E5008F0C7FE064690
:10176000324614A901A807F009FF01A807C80AAB6F
:1017700007C307AA0AA9284607F01CFF0DB0F0BC52
:101780005DF814FB0FB470B59EB005460E461446C6
:101790000FA8002181604160016000BF04F10C01CD
:1017A0000CA8A26807F0EAFE0CA807C812AB07C392
:1017B00004F1180109A8626807F0E0FE09A807C84B
:1017C00015AB07C325A906A8226807F0D7FE06A80F
:1017D00007C818AB07C315AA18A903A807F0EAFEA3
:1017E00003A807C81BAB07C312AA1BA9684607F0CA
:1017F0008DFE9DE807000FAB07C3D4E90712A0696F
:10180000C4E90412E0600FA807C8C4E90712A06188
:101810000FA807C885E807001EB070BC5DF814FB70
:101820002DE9F05F83460C4615463C48A1680068E8
:1018300008F09CFC80463A486168006808F096FC15
:1018400081462846216808F091FC8246494608F006
:101850005DFA0746414608F049FE064630480068F2
:101860002E4908602E480660304608F0B9FBBDE8F6
:10187000F09F2DE9F05F83460C4615462948A16884
:10188000006808F073FC804627486168006808F02B
:101890006DFC81462846216808F068FC824649466E
:1018A00008F034FA0746414608F020FE06461E4876
:1018B00000681C4908601C480660304608F090FB30
:1018C000BDE8F09F0FB4F0B58DB005460F461A9CE9
:1018D00021464FF07E5008F009FE0646324617A911
:1018E00004A807F04BFE04A807C807AB07C32246AD
:1018F00014A901A807F042FE01A807C80AAB07C354
:1019000007AA0AA9284607F055FE0DB0F0BC5DF8FD
:1019100014FB0000DB0FC940000040401000002015
:101920000C000020180000201400002038B50446E8
:10193000BC48BD4BBD4A11460090204606F033FD21
:10194000B848B94BB94A1146009004F11C0006F0A2
:101950002AFDB4480023B64AB649009004F1380085
:1019600006F021FD002003460246B349009004F131
:10197000540006F018FD0020034602464FF0804157
:10198000009004F1700006F00EFDAC48AC4B4FF037
:101990007C524FF07F51009004F18C0006F003FD63
:1019A000A04800231A46A749009004F1A80006F0B9
:1019B000FAFC38BD10B5044607231C22A249204674
:1019C00006F018FD044604F1C40007F044FDA0F140
:1019D000C40404F1D00007F03EFDA0F1D00404F1EE
:1019E000EC0007F038FDA0F1EC04962004F8DC0FC1
:1019F000322060706420E082DC3C2046FFF796FFD6
:101A0000204610BD10B504469049086B08F0E8FA6E
:101A1000C4F8D80010BD2DE9F04104468C48FFF70A
:101A200085FF8C49B1F9140008F040FB07468A484D
:101A30000168384608F05AFD064608F0D1FA054616
:101A4000864A2946204601F035FC854908608149CF
:101A5000B1F9160008F02AFB07467F48416838466E
:101A600008F044FD064608F0BBFA05467B4A2946C5
:101A700004F11C0001F01EFC7A4908607549B1F9B7
:101A8000180008F013FB074673488168384608F0D1
:101A90002DFD064608F0A4FA0546704A294604F1D1
:101AA000380001F007FC70490860BDE8F0812DE9BD
:101AB000F84F04466748B0F91A0040F24C4188429A
:101AC00077DD6748006808F0F1FA80466248C1682F
:101AD000404608F00BFD074608F082FA0646584AD1
:101AE0003146204601F0E6FB604908605D48006829
:101AF00008F0DCFA804658480169404608F0F6FCD8
:101B0000074608F06DFA06464D4A314604F11C00BE
:101B100001F0D0FB564908605348006808F0C6FA47
:101B200080464D484169404608F0E0FC074608F011
:101B300057FA0646424A314604F1380001F0BAFB32
:101B40004C49086044494868002108F0DBFB02D298
:101B50004148406803E04048406880F000408246C9
:101B60003D490868002108F0CDFB02D23A480068E0
:101B700003E03948006880F000408346514608F091
:101B8000C1FB0DD234490868002108F0BBFB02D22A
:101B90003148006812E03048006880F000400DE0F5
:101BA0002D494868002108F0ADFB03D22A4840685F
:101BB00004E023E02848406880F00040814601F0BE
:101BC0008AFE804606F0A4FE07462249B1F91A00B3
:101BD00008F06CFA3946009008F00CF9064608F057
:101BE000FFF905B223480068A9B2009020480368B5
:101BF0001E480268204800F02DFA0AE0204601F055
:101C000083FB04F11C0001F07FFB04F1380001F0BC
:101C10007BFBBDE8F88F7047704710B50C48FFF7A5
:101C2000C9FE10BD000048430AD7A33C9A99193E4B
:101C30006666E63ECDCC4C3F0000A0400000164357
:101C40006F12033B9A99993FB5830008F80400206E
:101C500020010020CC050020180200200AD7A33B59
:101C600020000020240000201C000020280000206C
:101C70002C00002030000020EC04002010B50446A9
:101C8000204600BF0446204607F0C8FB044604F186
:101C90000C0007F0C3FBA0F10C0404F1180007F0DE
:101CA000BDFBA0F1180404F1240007F0B7FBA0F17C
:101CB000240404F1300007F0B1FBA0F1300404F17A
:101CC0003C0006F034FBA0F13C0404F1600006F097
:101CD0002EFBA0F1600404F1880006F037FBA0F1B0
:101CE000880404F5C87006F031FBA0F5C87404F54B
:101CF00027704FF07E5101600021C160816041601A
:101D000000BFA0F52774204610BD10B5044662221E
:101D10004FF47A71B94802F0C5FC10BD10B5044605
:101D2000B74AB8492046FFF767FCB749086004F195
:101D30003C03B34AB3492046FFF778FC04F1600343
:101D4000B24AB0492046FFF771FCB14AAD4920467E
:101D5000FFF7E1FCAC49486010BD10B504462046D1
:101D6000FFF7DCFF2046FFF7D0FF10BD3EB504466D
:101D7000A24802F069FDA14802F039FE9F49684679
:101D800002F099FE9DE80700C4E90412E0609B4957
:101D9000684602F089FE9DE80700C4E90A12606205
:101DA0003EBD3FB5ADB00446379D18A807F036FBE1
:101DB0002EAA98490CA807F0FDFB0CA807C827AB72
:101DC00007C32A4627A909A807F0D8FB09A807C80E
:101DD0002AAB07C34FF07C522AA906A807F0CEFB16
:101DE00006A807C818AB07C38A482EA90EC90EC09B
:101DF0000FA807F0BDFA18A90FA807F035FA864A10
:101E00000FA90CA807F030FB83480CA90EC90EC01F
:101E1000824A0FA90CA807F027FB80480CA90EC91D
:101E20000EC07F4A34A90CA807F0A8FB0CA807C86D
:101E30001BAB07C32A46784909A807F09FFB09A8EE
:101E400007C81EAB07C31EAA214606A807F0B2FBAF
:101E500006A807C821AB07C3724A21A903A807F047
:101E60008DFB03A807C824AB07C31BAA24A9684697
:101E700007F0A0FB9DE8070084E8070021466648BC
:101E800007F092FA2146654807F0B8FA31B030BD44
:101E90002DE9F04782460C4663490968601A07F04D
:101EA000D1FC0746614A624B07F01CFD054607F06E
:101EB0009DFB81465C4804604846BDE8F0872DE9FB
:101EC000F04395B004460EA807F066FA08A807F09C
:101ED00063FAD4E90A01CDE9000104F13C0221468C
:101EE00005A8636AFFF74EFC05A807C8C4E90D12F0
:101EF0002063D4E90401CDE9000104F16002214628
:101F000005A8E368FFF73EFC05A807C8C4E9071267
:101F1000A06104F130052946284607F013FB8146ED
:101F2000444908F023F980464FF0974107F062FFDB
:101F3000074608F055F8C4F8AC0201F06BFD054601
:101F400029462046FFF7A4FF0646206A00902B4949
:101F500005A8D4E9062302F0B5FD0396D4E90D12D5
:101F6000206B8DE80700204605A90EC9FFF719FF71
:101F700015B0BDE8F0832DE9F0418CB080460C46E9
:101F800003A807F0F5F9684607F048FA206801F061
:101F9000A2FC80F00045606801F09DFC80F00046E6
:101FA000A06801F098FC074600950196029700BFD3
:101FB000694603A807F058F904F1300203A9404626
:101FC00007F052FA0CB0BDE8F08110B5059C10BDC9
:101FD00010B51948FFF752FE4FF08B43002211460F
:101FE0000D4807F017FA00231A4612490B4807F06C
:101FF00011FA084807F012FA10BD00001806002078
:10200000000048426F12033BCC0000200000024356
:102010006666E63FE0040020C8040020D4040020E7
:10202000CDCCCC3D6666663F340000208DEDB5A07A
:10203000F7C6B03E0000C84218020020014600204A
:1020400005E04FF47A7221F81020421CD0B2062825
:10205000F7DB70472DE9F04F87B004460F469046F6
:102060009946109808F022F80690484608F01EF8A5
:102070004FF07C51049008F079F88346404608F010
:1020800015F80190AB4807F0D9F80090019908F0D5
:102090006DF84FF07C51029008F068F804903846D3
:1020A00008F01CF84FF07C51029008F05FF80390A4
:1020B000049907F02BFE5946059008F017FA82465E
:1020C000069907F023FE054607F08AFF00B220803C
:1020D000109807F0EBFF0690484607F0E7FF8246AE
:1020E0004FF07C5108F042F80490404607F0DEFFC4
:1020F0000190904807F0A2F80090019908F036F896
:102100004FF07C51029008F031F88246384607F0D3
:10211000E5FF4FF07C51029008F028F883465146C5
:1021200007F0F4FD0390049907F0F0FD059006997F
:1021300008F0DCF9054607F053FF00B26080109804
:1021400007F0B4FF0690484607F0B0FF0590384608
:1021500007F0C4FF4FF07C51049008F007F8834665
:10216000059907F0D3FD8246069907F0CFFD054695
:1021700007F036FF00B2A080109807F097FF069096
:10218000484607F093FF82464FF07C5107F0EEFF80
:102190000490404607F08AFF0190664807F04EF829
:1021A0000090019907F0E2FF83464FF07C5107F061
:1021B000DDFF8246384607F091FF83464FF07C51A1
:1021C00007F0D4FF5146029008F090F9039004996B
:1021D00007F09CFD0590069908F088F9054607F080
:1021E000FFFE00B2E080109807F060FF06904846BE
:1021F00007F05CFF4FF07C51049007F0B7FF834677
:10220000404607F053FF01904A4807F017F8009046
:10221000019907F0ABFF4FF07C51029007F0A6FF49
:102220000490384607F05AFF4FF07C51029007F0B7
:102230009DFF0390049908F059F95946059008F05C
:1022400055F98246069907F061FD054607F0C8FE7C
:1022500000B22081109807F029FF0690484607F049
:1022600025FF0590384607F039FF4FF07C51049068
:1022700007F07CFF8346059908F038F982460699F5
:1022800008F034F9054607F0ABFE00B26081B4F9FE
:102290000060012007E034F91010B14201DD34F98B
:1022A0001060411CC8B20628F5DB002519E040F299
:1022B0006C70864207DD34F81510A6F26C70081AAF
:1022C00000B224F8150034F8151088B240F26C7290
:1022D00040F24C4101F0D8FA00B224F81500681C15
:1022E000C5B2062DE3DB1448407A10B92046FFF74B
:1022F000A5FE1148007B40B91048C08840F2E24179
:10230000884202DA2046FFF799FE21460C4802F087
:10231000C8FF07B0BDE8F08F02880A8042884A8073
:1023200082888A80C288CA8002890A8142894A8159
:102330007047000000004040CC000020CC05002089
:102340009B00002010B50446204600BF044604F15F
:10235000100007F063F8A0F1100404F11C0007F06E
:102360005DF8A0F11C0404F1280007F057F8A0F173
:10237000280404F1340007F051F8A0F1340404F10A
:10238000400007F04BF8A0F1400404F1500005F0C4
:10239000CEFFA0F1500404F1740005F0C8FFA0F1D5
:1023A000740404F1B40007F039F8A0F1B4044FF05C
:1023B00082431A46194604F1B40007F034F8FE4887
:1023C0009834A0614FF48020A062FC4844F898093A
:1023D000FB499C200151FB49A0200151FA49A4204E
:1023E0000151FA49A8200151F949AC200151204678
:1023F00010BD10B50446F74802F0DCFB10BD10B567
:10240000044604F15003F44AF4492046FFF70EF95C
:1024100004F17403F24AF1492046FFF707F910BDB1
:1024200010B504462046FFF7EAFF2046FFF7E1FF1C
:1024300010BD01B5AEB017A806F0F0FF14A806F065
:10244000EDFFE84800680A2803D0E7480078022832
:102450007DD10020E44908705521E34803F0C6F817
:102460000020E049086001F0D5FAE0490968401A07
:102470000F9007F0E7F9DE4ADE4BCDE9100107F0D7
:1024800031FACDE9120107F0B1F81A9001F0C2FA61
:10249000D64908602E98C068129007F007FE0246E1
:1024A00013902E9974312E98FFF7E3F92E998860D6
:1024B0002E988068D0490968401A119007F00EFEE6
:1024C00012901A9907F096FC139007F089FD01B25B
:1024D0002E9841802E988068C74908602E98B0F9E0
:1024E00002004FF4FA525142139001F0D8F901B2B0
:1024F0002E9841802E98B0F902006421139001F0CB
:10250000D9F901B22E9841802E98C068BA4909685D
:10251000884205D1B9480078401CB849087002E0EB
:102520000021B64801702E98C068B34908602E9803
:10253000806800280FDD2E988068B0F57A7F0ADA6F
:10254000AE4800781E2806DA01212E9800E006E049
:1025500080F8D01003E000212E9880F8D010A14818
:102560000068401C9F490860A5480068052803D101
:10257000984802F034FC09E2A14800680A28FAD120
:1025800001F048FA9F490968401A0F9007F05AF97C
:10259000974A984BCDE9100107F0A4F9CDE9120153
:1025A00007F024F81A9001F035FA964908600021E6
:1025B00093480160874802F012FC864802F02BFC29
:1025C000129007F073FD024613902E9950312E9809
:1025D000FFF726F92E9948602E984168D0F8C4007C
:1025E000081A119007F062FD12901A9907F002FC88
:1025F000139007F0F5FC01B22E9801802E984168E7
:10260000C0F8C4102E98B0F900004FF4487251423F
:10261000139001F044F901B22E9801802E98B0F980
:1026200000000A21139001F045F901B22E980180B3
:102630002E9890F8D00000287ED02E98B0F9020095
:10264000119007F033FD12902E98406A01461190C8
:10265000129807F04BFF13901698014612901398AA
:1026600007F054FB16902E98D0F8A0000146089071
:102670004FF07E5007F03AFF099007F01BFBCDE9C1
:102680000C012E98B0F90200079007F0C4F85E4ADA
:102690005E4BCDE9080107F025F9CDE90A01DDE936
:1026A0000C2307F01FF9CDE910012E98D0F8A000F7
:1026B0000C902E98406A0B900C9907F057FD0D90E6
:1026C00007F0F8FACDE90E01DDE9102306F0C0FFAE
:1026D000CDE9120106F08AFF01462E9841622E983C
:1026E000D0F8AC00014608904FF07E5007F0FEFE97
:1026F000099007F0DFFACDE90C012E988068079069
:1027000007F089F8404A414BCDE9080107F0EAF8A3
:10271000CDE90A01DDE90C2307F0E4F8CDE9100169
:102720002E98D0F8AC000C902E98006B0B900C9962
:1027300007F01CFD0D9000E07AE007F0BBFACDE950
:102740000E01DDE9102306F083FFCDE9120106F04A
:102750004DFF01462E9801632E984068039007F0C4
:102760005AF8CDE906012E988068019007F053F8D9
:10277000254A264BCDE9020107F0B4F8CDE9040162
:10278000DDE9062307F0ACF9CDE9080106F02EFFDC
:102790000B9007F08FFA1E4A1E4BCDE90C0107F093
:1027A000A1F8CDE910012E98D0F8CC000D9007F0DB
:1027B00032F8CDE90E012FE0FFCF743ECDCC4C3F77
:1027C00052B87E3FA4707D3F0AD7A33BF6287C3FDA
:1027D0003333733F700600200000A0400AD7A33CAB
:1027E000000048423C0000209C00002048000020DF
:1027F0008DEDB5A0F7C6B03E4C0000205000002083
:1028000038000020440000209A9999999999B93F7D
:10281000FCA9F1D24D62503FDDE9102306F018FF0C
:10282000CDE9120106F0C8FF2E99C1F8CC00ADE049
:102830002E98B0F90000119007F038FC12902E98F5
:10284000406A01461190129807F050FE13901698B6
:1028500001461290139807F059FA16902E98D0F866
:10286000A400119016981090119907F07FFC139016
:102870002E98D0F89C0001460D904FF07E5007F046
:1028800035FE0F902E98B0F900000D9007F00EFC69
:102890000E900F9907F06AFC11902E98D0F89C00CA
:1028A0000F902E98406A0E900F9907F05FFC1090E1
:1028B000119907F02BFA1290139907F027FA0146A5
:1028C0002E9841622E98D0F8A80001460F904FF044
:1028D0007E5007F00BFE11902E984168D0F8CC0086
:1028E00008440F9007F0E2FB1090119907F03EFCAE
:1028F00013902E98D0F8A80011902E98006B10908D
:10290000119907F033FC1290139907F0FFF9014673
:102910002E9801632E984068109007F0C7FB119025
:102920002E98006B01461090119807F0DFFD0021F2
:10293000129007F0E7FC0DD22E984068119007F036
:10294000B5FB12902E98006B01461190129807F07B
:10295000CDFD0EE02E984068119007F0A7FB129075
:102960002E98006B01461190129807F0BFFD80F081
:1029700000409A49139007F0C5FC07D22E98406892
:10298000139007F093FB01462E980163944800686A
:10299000401C9349086001F03DF892490968401ACB
:1029A0000F9006F04FFF904A904BCDE9100106F0D2
:1029B00099FFCDE9120106F019FE1A9001F02AF8EC
:1029C000884908608A4911A8FFF7D5FA11A807C8F5
:1029D00017AB07C38748407A08BB2E98D0F8C000D1
:1029E000C117139000EB916081112E98D0F8C000B0
:1029F000411A2E98C0F8C0102E98D0F8C00011903F
:102A000007F054FB1290199801461190129807F0A4
:102A10007DF9139007F0E4FA2E99C1F8C0002E98C2
:102A2000D0F8C000C117139000EB91608011119095
:102A300007F03CFB1290199801461190129807F08C
:102A4000C3FC19902E98D0F8B4000F9007F0C8FA84
:102A5000119017980F9007F0C3FA1090119900F099
:102A600029FF129007F022FB13902E98D0F8B000A7
:102A700001461290139807F079FB2E9908612E9861
:102A8000D0F8B8000F9007F0ABFA119018980F909B
:102A900007F0A6FA1090119900F00CFF129007F0C1
:102AA00005FB80F0004013902E98D0F8B00001464E
:102AB0001290139807F05AFB01462E9841612E9808
:102AC000D0F8BC000F9007F08BFA119019980F9076
:102AD00007F086FA1090119900F0ECFE129007F0C2
:102AE000E5FA13902E98D0F8B00001461290139892
:102AF00007F03CFB01462E9881612E9A40322E99B8
:102B00001C3111A806F056FD11A807C824AB07C355
:102B100024A90EA81A9A06F031FD0EA807C827AB03
:102B200007C34FF07C5227A90BA806F027FD0BA87E
:102B300007C82AAB07C32AA92E98283006F077FCCD
:102B40002E98D0E90823C16940300EC02E9A343245
:102B50002E99103111A806F02DFD11A807C81BAB46
:102B600007C31BA90EA81A9A06F008FD0EA807C8ED
:102B70001EAB07C34FF07C521EA90BA806F0FEFC4B
:102B80000BA807C821AB07C321A92E981C3006F05B
:102B90004EFC2E98D0E90523016934300EC02FB0C9
:102BA00000BD10B5044600231A46194604F1100072
:102BB00006F039FC00231A46194604F11C0006F001
:102BC00032FC00231A46194604F1280006F02BFCBB
:102BD00010BD10B50848FFF7B5FB10BD0000484315
:102BE00038000020400000208DEDB5A0F7C6B03EB3
:102BF00018020020CC000020F804002010B5044684
:102C0000FE490888FE49098801F0D2FA10BD1CB5BA
:102C10000446FA490889694601F025F9F7494889C7
:102C20000DF1020101F01FF9F449888901A901F0B1
:102C30001AF9BDF8000000B2F2490881BDF802009F
:102C400001B2F0484181BDF8040001B2ED48818134
:102C50001CBD1CB50446E9494888694601F003F9E2
:102C6000E64988880DF1020101F0FDF8E349C888C2
:102C700001A901F0F8F8BDF8000000B2E149488070
:102C8000BDF8020001B2DF488180BDF8040001B246
:102C9000DC48C1801CBD38B50446D849C88969469E
:102CA00001F0E1F8BDF8000007F018FA0546D64932
:102CB00007F0A0F8D5490860D049088A694601F0B4
:102CC000D2F8BDF8000007F009FA0546CE4907F032
:102CD00091F8CE494860C949488A694601F0C3F86D
:102CE000BDF8000007F0FAF90546C94907F082F877
:102CF000C6498860C149888A694601F0B4F8BDF8C0
:102D0000000007F0EBF90546BF4907F073F8BF492B
:102D1000C861BA49C88A694601F0A5F8BDF8000043
:102D200007F0DCF90546B84907F064F8B7490862CE
:102D3000B249088B694601F096F8BDF8000007F02B
:102D4000CDF90546B24907F055F8B0494862AB499C
:102D5000488B694601F087F8BDF8000007F0BEF91E
:102D60000546A94907F046F8A8498863A349888B16
:102D7000694601F078F8BDF8000007F0AFF90546A4
:102D8000A14907F037F8A149C8639C49C88B694637
:102D900001F069F8BDF8000007F0A0F905469C496C
:102DA00007F028F8994908649449088C694601F0AD
:102DB0005AF8BDF8000007F091F90546924907F06E
:102DC00019F89249C1F8A8008C49488C694601F06D
:102DD0004AF8BDF8000007F081F905468A4907F076
:102DE00009F88A49C1F8AC008449888C694601F029
:102DF0003AF8BDF8000007F071F90546844906F07D
:102E0000F9FF8249C1F8B0007C49C88C694601F0DD
:102E10002AF8BDF8000007F061F905467A4906F086
:102E2000E9FF7A4948657549088D694601F01BF844
:102E3000BDF8000007F052F90546734906F0DAFFC5
:102E4000724988656D49488D694601F00CF8BDF8F6
:102E5000000007F043F905466D4906F0CBFF6B49CA
:102E6000C8656649888D694600F0FDFFBDF8000021
:102E700007F034F90546644906F0BCFF634908676A
:102E80005E49C88D694600F0EEFFBDF8000007F00E
:102E900025F905465C4906F0ADFF5C49486757498E
:102EA000088E694600F0DFFFBDF8000007F016F954
:102EB0000546574906F09EFF5449886738BD10B54E
:102EC00004462046FFF7E7FE2046FFF7C2FE2046F5
:102ED000FFF79DFE10BD70B505464C4908684A498C
:102EE00007F044F9064607F0C1F884B24349C8899F
:102EF000214601F05DF945494868434907F036F934
:102F0000064607F0B3F884B23C49088A214601F02E
:102F10004FF93E4988683E4907F028F9064607F010
:102F2000A5F884B23549488A214601F041F937496C
:102F3000C869354907F01AF9064607F097F884B2D0
:102F40002E49888A214601F033F93049086A2E4912
:102F500007F00CF9064607F089F884B22749C88AB9
:102F6000214601F025F92949486A294907F0FEF868
:102F7000064607F07BF884B22049088B214601F011
:102F800017F92249886B204907F0F0F8064607F048
:102F90006DF884B21949488B214601F009F91B49A3
:102FA000C86B194907F0E2F8064607F05FF884B2EB
:102FB0001249888B214601F0FBF81449086C14492A
:102FC00007F0D4F8064607F051F884B20B49C88BD5
:102FD000214601F0EDF80D49D1F8A8000A4907F0A3
:102FE000C5F8064607F042F884B20449088C214629
:102FF00001F0DEF80549D1F8AC000BE0BEA60008F0
:1030000054000020180600200000C84220010020C3
:1030100000007A445E4907F0A9F8064607F026F852
:1030200084B25C49488C214601F0C2F85A49D1F873
:10303000B0005A4907F09AF8064607F017F884B22C
:103040005449888C214601F0B3F85349486D5049E2
:1030500007F08CF8064607F009F884B24D49C88C91
:10306000214601F0A5F84C49886D494907F07EF8E2
:10307000064606F0FBFF84B24649088D214601F062
:1030800097F84549C86D454907F070F8064606F0BF
:10309000EDFF84B23F49488D214601F089F83E4951
:1030A000086F3B4907F062F8064606F0DFFF84B27E
:1030B0003849888D214601F07BF83749486F3449FB
:1030C00007F054F8064606F0D1FF84B23149C88DA6
:1030D000214601F06DF83049886F304907F046F815
:1030E000064606F0C3FF84B22A49088E214601F045
:1030F0005FF870BD38B5044626490888694600F077
:10310000B2FEBDF8000038BD10B504462046FFF7FA
:10311000F1FF23490988884202D02046FFF7DBFEF1
:103120002046FFF7CCFE2046FFF768FD10BD10B526
:1031300004461C4A528891B2164A508801F038F869
:10314000184A928891B2134A908801F031F8154AD2
:10315000D28891B20F4AD08801F02AF810BD10B57C
:103160000446104A128991B20A4A108901F020F8E7
:103170000C4A528991B2074A508901F019F8094A5C
:10318000928991B2034A908901F012F810BD0000B3
:103190000000C842BEA600082001002000007A44BA
:1031A00054000020180600202DE9F05F04460E466A
:1031B00017460021A06806F0DFFE3AD0002138460D
:1031C00006F0DAFE35D0A06920F00041C1F1FF41E0
:1031D000C90F19B100250020A06108E06169701ACB
:1031E00006F064FF8046394606F004FE0546284690
:1031F000A16907F07BF982463946454806F086FD0D
:1032000083465946384606F0F5FD8146514606F09C
:10321000ADFF8046A16906F079FD05466661A561AE
:103220002946A06806F0A2FF804606F0D9FEBDE858
:10323000F09F0020FBE72DE9F04704460E461546B7
:103240000021606806F098FE22D00021284606F092
:1032500093FE1DD0304606F029FF8146616806F0D6
:1032600085FF8046294606F081FF0746216906F062
:103270004DFD2061E06880F0004702463946206934
:1032800000F0D3FA2061206906F0AAFEBDE8F087BD
:103290000020FBE72DE9F04104460D46284606F0E4
:1032A00005FF0746216806F061FF064606F098FE16
:1032B000BDE8F0812DE9F04104460D461646294649
:1032C0002046FFF7E7FF0746324629462046FFF72C
:1032D000B2FF0744324629462046FFF765FF3844CF
:1032E000BDE8F0812DE9F04104460D461646294619
:1032F0002046FFF7CFFF0746324629462046FFF714
:103300009AFF3844BDE8F081002101617047000058
:103310000361023C30B50146002013E000FB00F2DF
:10332000193A32235A4302F6C41242435A4340F632
:10333000C41392FBF3F213B201F11C0222F8103015
:10334000421CD0B20728E9DB00202EE000EB80040D
:103350006400A4F132020123002A00DD3223002A96
:1033600000DA3223002503FB03F495FBF4F4643404
:1033700054430A2594FBF5F404F5FA7425B201F1DF
:103380002A0424F8105034F910404FF448756C4367
:103390004FF47A7594FBF5F404F24C4425B201F134
:1033A0002A0424F81050421CD0B20C28CEDB30BDC9
:1033B00010B504462046FFF7ADFF204610BD2DE9AD
:1033C000F05F0446002060E034F81010A1F2DC51F8
:1033D000002904DD34F81010A1F2DC5104E034F8C7
:1033E000101040F2DC52511AB1F5FA7F10DA34F8BD
:1033F0001010A1F2DC51002904DD34F81010A1F204
:10340000DC5107E034F8101040F2DC52511A01E0B0
:103410004FF4FA710E4602281FD0642196FBF1F595
:1034200004F11C016A1C31F9122031F91510511AEE
:1034300005EBC50202EB0512A6EB820251436422A2
:1034400091FBF2F204F11C0131F8151011440AB29B
:1034500004F1140121F8102005E071420AB204F1D0
:10346000140121F8102034F8101040F2DC5291427F
:1034700009DA04F1140131F8101049420AB204F1DA
:10348000140121F81020411CC8B203289CDBE088FD
:103490004FF4FA6240F2E24100F0F6F90646A6F275
:1034A000E2404FF47A71484340F2EE21B0FBF1F66E
:1034B000642096FBF0F58648007B08BB04F12A00E7
:1034C000691C30F9111030F91500081A05EBC50117
:1034D00001EB0511A6EB81014843642190FBF1F15A
:1034E00004F12A0030F81500084401B26183E08835
:1034F0004FF4FA6240F2E24100F0C6F901B2618392
:10350000B4F91800002802DDB4F9180002E0B4F99B
:1035100018004042462833DAE08840F2E24188420F
:103520002EDD6C4AD2F89812906806F0DFFF8046D4
:1035300006F056FD07B217F1B40F02DC07F5B470C0
:1035400007B2B42F02DBA7F5B47007B2784207B216
:10355000384606F0ABFD83465F48016F584606F0DB
:1035600005FE8146B4F9180006F0A0FD82464946E2
:1035700006F0BCFF804606F033FD01B2218304E073
:10358000544880685349C1F89802BDE8F09F01464D
:10359000002034E031F81020B2F5617F04DB31F80F
:1035A0001020B2F5FA6F00DD2BE031F8102040F268
:1035B000E2439A4207DA494A125C494B1B781A43A4
:1035C000474B1A7006E0454A135C454A12789A4305
:1035D000434B1A7031F81020B2F5E16F07DD414A14
:1035E000125C3F4B1B781A433D4B1A7006E03D4A74
:1035F000135C3B4A12789A43394B1A70401C0428DA
:10360000C8DB00BF364A12784AB1374A1278FA2A24
:103610000ADA354A1278521C334B1A7004E0002241
:10362000314B1A702E4B1A702F4A1278642A29D106
:10363000274A527A6AB12A4A127802F01002E2B19D
:10364000274A127802F04002BAB10023204A53728E
:1036500013E0234A127802F0200272B1204A127855
:1036600002F040024AB11A4A127A1AB10123184AEA
:10367000537202E001221D4B5A700022184B1A703F
:10368000194B1A7070471A49498900291ADD1849DF
:10369000498940F63402914214DA154949890029D2
:1036A00005DD1349498940F2145291420ADB104961
:1036B0004989B1F5AF6F04DD0D494989B1F5C86F8E
:1036C00000DB00BF704700B50948FFF771FE00BD81
:1036D000CC0000201802002020010020B6A600081F
:1036E00057000020BAA60008560000201806002047
:1036F000CC05002010B53848FDF770F83648FDF7C6
:103700008CFD10BD10B53548FEF730FB3348FEF791
:10371000D6FB3348FEF7CBF93248FEF78AFE10BDE0
:1037200010B52F48FEF777F910BD10B500F084FAF8
:1037300010BD10B52C48FFF742FE2B48FFF727FFBE
:103740002948FFF7A0FF2448FDF731FF2748FCF781
:1037500036FD2348FEF75FFA2148FEF75DFA10BDFB
:1037600010B523480088012804DBFFF7C3FF0020C1
:103770001F4908801E484088022804DBFFF7C2FF6B
:1037800000201B4948801A488088052804DBFFF781
:10379000C7FF0020164988801548C0880A2804DB26
:1037A000FFF7C3FF00201249C88011480089142880
:1037B00004DBFFF7BEFF00200D49088110BD00218A
:1037C0000181C180818041800180704700B5084837
:1037D000FFF7F5FF00BD0000DC000020180200200C
:1037E00020010020F8040020CC050020CC0000209F
:1037F0000E06002010B50446204604F0F4FD08B182
:10380000002010BD4FF07E51204606F07BFD01D810
:103810006748F6E76749204606F074FC01D8664819
:10382000EFE7204604F0B2FEEBE72DE9F041064653
:103830000C461546304604F0D6FD50B129462046C8
:1038400006F064FA07464FF07C5106F08FFCBDE8A5
:10385000F0812146304606F055FC01D22046F6E7BD
:103860002946304606F04EFD01D22846EFE73046A5
:10387000EDE703468B4201DA08467047934201DDCB
:103880001046FAE71846F8E703468B4201DA084685
:103890007047934201DD1046FAE71846F8E7034601
:1038A0008B4201DA08467047934201DD1046FAE781
:1038B0001846F8E7002801DD024600E042428A424D
:1038C00001DA002006E0002801DD401A02E00028AD
:1038D00000DA0844704710B504463849204606F01F
:1038E00045FC10BD10B504463549204606F03EFCA7
:1038F00010BD10B504462146204606F037FC10BD29
:103900002DE9F04105460C462046FFF7F2FF074639
:103910002846FFF7EEFF8046394606F0F7F90646DF
:1039200005F08CFCBDE8F0812DE9F05F06460C4601
:1039300015462846FFF7DDFF81462046FFF7D9FFF1
:1039400082463046FFF7D5FF8346514606F0DEF942
:103950008046494606F0DAF9074605F06FFCBDE8F7
:10396000F09F2DE9FE4F07460C4615461E46304691
:10397000FFF7BFFF02902846FFF7BBFF01902046EC
:10398000FFF7B7FF00903846FFF7B3FF8346009973
:1039900006F0BCF98246019906F0B8F98146029911
:1039A00006F0B4F9804605F049FCBDE8FE8F000042
:1039B000DB0FC93F000080BFDB0FC9BF34FA8E3C6C
:1039C000E12E654200B585B0684602F0DAFF504945
:1039D0000098B0FBF1F04F49086005B000BD4E48BB
:1039E0000068401C4C4908604C480088401C4B490A
:1039F000088008464088401C488008468088401C53
:103A000088800846C088401CC88008460089401C41
:103A10000881704700BF404801684FF0E02082698C
:103A20003D4800688142F6D13A48006800EB400307
:103A3000C3EBC010C2EBC000364B1B68B0FBF3F009
:103A400001EB4103C3EBC11300EBC300704730B57A
:103A50000446FFF7DFFF054600BFFFF7DBFF401B13
:103A6000A042FAD330BD10B5044603E04FF47A709B
:103A7000FFF7EDFF2000A4F10104F7D110BD70B5F0
:103A80004FF4407001F030FEFFF79CFF24480068BF
:103A90004FF47A72B0FBF2F1481EB0F1807F00D390
:103AA0001BE0481E4FF0E022506150170F22002803
:103AB00007DA13071D0E1B4B00F00F04241F1D55C2
:103AC00003E013071C0E184B1C5400BF00204FF0DE
:103AD000E02290610720106100BF00F084FB01F03C
:103AE00029FCFB220421114801F0E5F945F6C050FC
:103AF00001F028FB4FF4165001F0BEFC00F056FD1B
:103B000000F094F802F0CFF900F0CDFA70BD00009B
:103B100040420F00580000205C0000200E060020EC
:103B2000B800002018ED00E000E400E09806002056
:103B300008B50121084602F084FF01214FF401700D
:103B400002F08CFF1020ADF8000000208DF803007B
:103B50006946614802F0C6FC08BD00B591B05F48F7
:103B600002F058F85E4806905E48079000200890E2
:103B70000120099000200A9080200B9040000C90BA
:103B800080000D9020200E9000020F9000201090D9
:103B900006A9524802F0E0F80121504802F007F966
:103BA000002001908DF8080001208DF809004FF4E5
:103BB000602003900020049001208DF8140001A9DA
:103BC00047484C3801F025FE4FF4404002F0AAFE71
:103BD00005230122042142484C3801F0B2FE0121A4
:103BE0003F484C3801F04CFE01213D484C3801F073
:103BF0003CFE3B484C3801F05AFE00BF38484C3878
:103C000001F05AFE0028F9D135484C3801F05EFE2B
:103C100000BF33484C3801F05EFE0028F9D1012185
:103C20002F484C3801F061FE11B000BD10B5FFF710
:103C30007FFFFFF792FF10BD2DE9F84F294800885C
:103C400006F04CFA009006F035F80646264A274B57
:103C500005F048FE04460D462548006806F02AF89F
:103C60000646244A244B05F03DFE804622462B465C
:103C700005F0EEFC824605F0B9FC1D4908604FF0E6
:103C80008B411B48006806F0B5F8824606F012F832
:103C900006464FF06632194B05F024FE804600229E
:103CA0004FF0804305F01EFE044605F09FFC1449CA
:103CB00008600846006805F0FDFF04460022114B2D
:103CC00005F0D4FD03D201210F48417302E0002129
:103CD0000D484173BDE8F88F00080140080002401C
:103CE0004C24014060000020FCA9F1D24D62603FED
:103CF00064000020560E2DB29DEFEF3F66660A402D
:103D00006800002000000C40CC0000200346062183
:103D10000622F7480188F7480288ABB1012B1BD176
:103D20003AB94EF6EE60814201D100207047012081
:103D3000FCE739B94EF6EE60824201D10120F5E789
:103D40000020F3E7AB20F1E709B90020EEE70AB95C
:103D50000120EBE7AB20E9E70020E7E770B5042698
:103D600000240120FFF7D2FF0446AB2C06D1E04827
:103D700000EB8420E0490860AB2070BDDC4800EB1C
:103D80008420DD490860601CD949891E01EB80252B
:103D90000CE0D94800680068401C10B90426304681
:103DA000EBE7D5480068001DD3490860D248006899
:103DB000A842EED38020E0E710B50424CC4802F0FE
:103DC000B7F80446042C01D0204610BD0021C84895
:103DD00002F0B1F90446042C01D02046F5E7C548AD
:103DE00002F0A6F804462046EFE72DE9F04104462C
:103DF0000F4604250026DFF804830120FFF786FF25
:103E00000646AB2E01D1BDE8F081701CB849891E71
:103E100001EB802821E0B84800680068401CB8B970
:103E20003946B548006802F086F90546042D01D0F0
:103E30002846E8E72146B0480068801C02F07BF97C
:103E40000546AD480068001DAB4908602846DAE722
:103E5000A9480068001DA8490860A74800684045B7
:103E6000D9D38020CFE72DE9F04706460F4600253D
:103E700045F255584FF001099D4CA2460020FFF72E
:103E800045FF0546AB2D01D1BDE8F087984800EB12
:103E9000852A99480068841E0AE0B4F80080B0457D
:103EA00005D134F8020C38804FF0000904E0241FDB
:103EB0000AF102008442F0D800BF4846E4E72DE949
:103EC000F0474FF0060A062600250027A8464FF0C7
:103ED000FF398748B0F800A0864806885FEA0A00E4
:103EE00075D0A0F56E40EE3858B3A0F58850113863
:103EF00000286DD146B97E4802F01AF80446042C19
:103F00001ED02046BDE8F0874EF6EE60864210D106
:103F1000774802F00DF80446042C01D02046F1E762
:103F20000021744802F007F90446042C08D020460A
:103F3000E8E7FFF741FF0446042C01D02046E1E703
:103F4000AEE07EBB002522E06948C0886C4931F8AC
:103F50001510884201D10FFA85F94D4515D06849F1
:103F600031F815006749FFF77EFF8046B8F1010F71
:103F70000BD0634931F8150062490988FFF735FF16
:103F80000746042F01D03846BCE7681C85B2192DBE
:103F9000DADB0021564802F0CEF80446042C02D0A9
:103FA0002046AFE707E0534801F0C2FF0446042C67
:103FB0001FD02046A6E74FF6FF70864212D14D482B
:103FC00001F0B6FF0446042C03D020469AE711E026
:103FD0005EE00021464802F0AEF80446042C08D00A
:103FE00020468FE7FFF7E8FE0446042C01D0204668
:103FF00088E755E036B9FFF7DFFE0446042C46D0CB
:1040000020467FE74FF6FF70864207D1394801F01E
:104010008FFF0446042C3AD0204673E7002523E0A6
:104020003448801D0088364931F81510884201D186
:104030000FFA85F94D4515D0314931F81500314950
:10404000FFF711FF8046B8F1010F0BD02C4931F872
:1040500015002C490988FFF7C8FE0746042F01D038
:1040600038464FE7681C85B2192DD9DB002121485D
:1040700002F061F80446042C01D0204642E71C48B7
:1040800001F056FF0446042C01D020463AE707E031
:10409000FFF792FE0446042C01D0204632E700BF11
:1040A00000BF04202EE710B5FFF709FF0446FFF715
:1040B00055FE204610BD2DE9F84F074689460425D8
:1040C000DFF830A0AAF1010A094800904FF000087B
:1040D000002400264FF0000B0020FFF717FE80465B
:1040E000B8F1010F10D1DFF808A00248009016E0E7
:1040F000000001080004010870000020FF0701080B
:10410000BEA600086C000020B8F1000F04D1DFF853
:10411000C4A03148009002E0AB20BDE8F88F4EF615
:10412000EE61504602F007F80546042D01D02846FE
:10413000F3E7FFF713FE49463846FFF756FE0646FB
:10414000042E01D03046E8E700241CE0234830F874
:104150001400B84215D0214931F814002049FFF766
:1041600082FE8346BBF1010F0BD01C4931F81400CD
:104170001B490988FFF739FE0646042E01D0304658
:10418000CBE7601C84B2192CE0DB009801F0D0FE74
:104190000546042D01D02846BFE70021504601F016
:1041A000CAFF0546042D01D02846B6E72846B4E7E5
:1041B00070B505460E46002431462846FFF715FE29
:1041C0000446802C04D131462846FFF774FF04468C
:1041D000204670BD0004010800000108BEA60008CA
:1041E0006C000020704708B50121082002F036FC61
:1041F0004020ADF8000003208DF8020014208DF857
:1042000003006946E84802F06DF98020ADF800002F
:1042100003208DF8020014208DF803006946E2485F
:1042200002F060F908BD704700B501464020DE4A43
:10423000143210600846FFF7F6FF8020DA4A143285
:1042400010600846FFF7EFFF4020D74A1032106099
:104250000846FFF7E8FF8020D34A10321060084676
:10426000FFF7E1FF00BD00B501464020CE4A143201
:1042700010600846FFF7D7FF8020CB4A103210604D
:104280000846FFF7D0FF4020C74A103210600846AA
:10429000FFF7C9FFC4480830006800F0800040B153
:1042A0004020C14A143210600846FFF7BCFF0020CE
:1042B00000BD4020BC4A143210600846FFF7B3FF2F
:1042C0000120F5E710B5024608231DE04020B64C5A
:1042D000143420601046FFF7A6FF01F0800018B1EB
:1042E0008020241F206003E08020AF4C1434206025
:1042F0004806010E1046FFF796FF4020AA4C1034E6
:1043000020601046FFF78FFF1800A3F10104E3B20D
:10431000DCD14020A44C1434206010BD00B501460F
:104320008020A14A10321060402010600846FFF73C
:104330007AFF9D480830006808B9012000E000209D
:1043400000F0800008B1002000BD8020964A1432A1
:1043500010600846FFF767FF93480830006800F0D8
:10436000800008B10020EFE780208F4A14321060EF
:104370000846FFF758FF0120E6E7F0B506460F466E
:1043800014461D463046FFF7C9FF08B90020F0BDAE
:1043900039463046FFF796FF3046FFF764FF20B9F5
:1043A0003046FFF741FF0020F1E721463046FFF796
:1043B00089FF3046FFF757FF29463046FFF782FF57
:1043C0003046FFF750FF3046FFF72EFF0120DEE7B3
:1043D00000B501464020744A143210600846FFF7C9
:1043E00022FF8020704A103210600846FFF71BFF42
:1043F00040206D4A103210600846FFF714FF40203D
:10440000694A143210600846FFF70DFF00BD10B571
:104410000246082300218020634C1034206016E0FF
:104420004806010E4020604C143420601046FFF70F
:10443000FAFE4020241F20601046FFF7F4FE5A4881
:104440000830006800F0800008B141F00101180058
:10445000A3F10104E3B2E3D14020534C14342060B3
:10446000084610BDF0B506460C4615463046FFF727
:1044700055FF08B90020F0BD21463046FFF722FF66
:104480003046FFF7F0FE20B93046FFF7CDFE0020A2
:10449000F1E729463046FFF715FF3046FFF7E3FE08
:1044A0003046FFF73BFF601CC1B23046FFF70AFF02
:1044B0003046FFF7D8FE3046FFF7A9FF07463046E3
:1044C000FFF786FF3046FFF7AFFE3846D3E700B56B
:1044D00001464020344A143210600846FFF7A3FE1C
:1044E0008020314A143210600846FFF79CFE4020BD
:1044F0002D4A103210600846FFF795FE40202A4AE8
:10450000143210600846FFF78EFE00BD2DE9F0431F
:1045100081460E4617461C46DDF81C80B8F1010F97
:1045200002DA0020BDE8F0834846FFF7F7FE08B93D
:104530000020F7E731464846FFF7C4FE4846FFF73C
:1045400092FE20B94846FFF76FFE0020EAE73946A1
:104550004846FFF7B7FE4846FFF785FE4846FFF797
:10456000DDFE701CC1B24846FFF7ACFE4846FFF7BF
:104570007AFE012509E04846FFF749FF04F8010BE0
:104580004846FFF7A4FF681CC5B24545F3DB484623
:10459000FFF73DFF04F8010B4846FFF719FF4846B7
:1045A000FFF742FE0120BDE7000C01401CB50121D0
:1045B000102002F053FA4FF48040ADF804001020B0
:1045C0008DF8070003208DF8060001A91A4801F0B4
:1045D00089FF0121102002F041FA4FF40050ADF89C
:1045E000000010208DF8030003208DF802006946BA
:1045F000114801F077FF1CBD10B504464FF400517F
:104600000D4802F01CF810BD10B504464FF480416F
:10461000094802F014F810BD10B504464FF40051DB
:10462000054802F00EF810BD10B504464FF4804165
:10463000014802F006F810BD0010014010B5044614
:104640002046FFF7CFFD0446A01C04F004FF841EA3
:1046500004F1080004F0FFFEA0F1080404F11C00BE
:1046600004F0DCFEA0F11C0404F1280004F0D6FEE6
:10467000A0F1280404F1340004F0D0FEA0F13404C9
:10468000204610BD30B50346C822002007E000BF19
:104690001400A2F10105AAB2FAD1441CE0B288428A
:1046A000F5DB30BD2DE9F04107460D4616462A2EB2
:1046B00015D006DC052E0CD00A2E0CD0142E16D1E7
:1046C0000BE0622E0DD0BC2E0DD0B6F5807F0ED142
:1046D0000BE006240DE005240BE0042409E003248C
:1046E00007E0022405E0012403E0002401E00224A5
:1046F00000BF00BF80236B22D0213846FFF73DFE6C
:1047000005213846FFF7BEFF4FF47A7090FBF5F0B5
:10471000401E00F0FF0843461922D0213846FFF71B
:104720002CFE03236B22D0213846FFF726FE0223FE
:104730003722D0213846FFF720FE23461A22D02107
:104740003846FFF71AFE18231B22D0213846FFF700
:1047500014FE10231C22D0213846FFF70EFEBDE8C0
:10476000F0812DE9F0410446207800286AD0EA481B
:10477000007800F0010048B9E74803F04DFE28B189
:10478000E64804F04BFEE448AFF30080E4480088BC
:1047900080B900231A461946A01C04F061FE0023CC
:1047A0001A461946DD4804F03EFE0120DC49088027
:1047B000BDE8F08104F11C01D84804F038FED84867
:1047C0000088C82839D1D648008805F087FC0646FD
:1047D000D2490868314605F00DFB054605F000FC9E
:1047E00000B26080CE48008805F078FC0646CB49D0
:1047F0004868314605F0FEFA054605F0F1FB01B2C6
:10480000A180C748008805F069FC0746C34988684D
:10481000394605F0EFFA06464FF08B4105F066FE8B
:10482000054605F0DDFB01B2E1800020BC490880AF
:104830002070BC48FEF77BFCBAE7B9480088401CF2
:10484000B749088000BFB3E72DE9FC4104463C228C
:10485000D0212046FFF706FEA0733B22D021204640
:10486000FFF700FEE073A17BE07B41EA0020618856
:10487000401A00B2ADF800003E22D0212046FFF7DA
:10488000F1FD20743D22D0212046FFF7EBFD60743E
:10489000217C607C41EA0021A088081A00B2ADF8B2
:1048A00002004022D0212046FFF7DCFDA0743F2209
:1048B000D0212046FFF7D6FDE074A17CE07C41EAE0
:1048C0000021E088081A00B2ADF80400BDF9040028
:1048D00005F0ECFB0546BDF9020005F0E7FB0646D6
:1048E000BDF9000005F0E2FB07462B46324639468B
:1048F00004F11C0004F097FD2046FFF732FFBDE8ED
:10490000FC8170B50446607800286ED08648007837
:1049100000F0010048B9844803F07EFD28B18348C7
:1049200004F07CFD8048AFF300808148008880B9A6
:1049300000231A46194604F1080004F091FD0023F3
:104940001A461946794804F06EFD0120784908801E
:1049500070BD04F12801754804F069FD74480088B1
:10496000C8283DD17248008805F0B8FB06466F495B
:104970000868314605F03EFA054605F031FB00B205
:1049800020816B48008805F0A9FB06466749486806
:10499000314605F02FFA054605F022FB01B2618190
:1049A0006348008805F09AFB0646604988683146EE
:1049B00005F020FA054605F013FB01B2A1810020A5
:1049C0005B49088060705B48007A28B9012159482A
:1049D00041720120574908725248FEF7C0FBB7E701
:1049E00053480088401C5249088000BFB0E72DE9B9
:1049F000FC4104464422D0212046FFF733FD2075B8
:104A00004322D0212046FFF72DFD6075217D607D7A
:104A100041EA00202189401A00B2ADF80000462288
:104A2000D0212046FFF71EFDA0754522D02120464B
:104A3000FFF718FDE075A17DE07D41EA0021608966
:104A4000081A00B2ADF802004822D0212046FFF734
:104A500009FD20764722D0212046FFF703FD60762E
:104A6000217E607E41EA0021A089081A00B2ADF8DB
:104A70000400BDF9040005F019FB0546BDF902006C
:104A800005F014FB0646BDF9000005F00FFB0746D4
:104A90002B463246394604F1280004F0C4FC204677
:104AA000FFF72FFFBDE8FC8110B5D1E90834CA69D2
:104AB00080E81C0010BD10B5D1E90B348A6A80E88B
:104AC0001C0010BD0FB470B505460C461A49069877
:104AD00005F04CFB0646FEF7FEFE6063164907989C
:104AE00005F044FB0646FEF7F6FEA063124908985F
:104AF00005F03CFB0646FEF7EEFEE063D4E90E123D
:104B0000606B85E8070070BC5DF814FB10B50B48BE
:104B1000FFF794FD10BD000078000020580600202B
:104B20007C0000205200002080000020640600204D
:104B300084000020CC0000208DC1793D18060020A3
:104B400010B5044601235822EE212046FFF715FC3C
:104B500010BD7CB50546002001900026002418E019
:104B600002200090A02000EB4400C2B201ABEE2175
:104B70002846FFF7CBFC3044C6B29DF805009DF8EF
:104B8000041040EA012105F1100020F81410601C07
:104B9000C4B2082CE4DB082E01D101207CBD00202A
:104BA000FCE710B5044601231E22EE212046FFF744
:104BB000E4FB10BD10B504460A20FEF754FF204662
:104BC000FFF7EFFF0320FEF74EFF2046FFF7C1FF80
:104BD0002046FFF7B5FF10BD10B50446012348225B
:104BE000EE212046FFF7C9FB10BD38B5044603206F
:104BF00004F120030022EE2100902046FFF786FCFE
:104C000038BD2DE9F04F8BB004464FF00008C14687
:104C100094F8200001042120005D41EA00202221B7
:104C2000095D0843A06094F8230001042420005D7E
:104C300041EA00202521095D0843E060608BA168FE
:104C4000A1EB0025A08A00040022218B4FEAE57C1D
:104C5000A1FB05BE02FB05E301FB0C334FEADB11B0
:104C600041EA4361401842EBE312CDE90802608A51
:104C70004FEAC0304246E18A4FEAE57CA1FB05BE1F
:104C800002FB05E301FB0C334FEA1B2141EA036100
:104C9000401842EB2322CDE90602A08B42464FEAA0
:104CA000E573A0FB051C02FB05C200FB03204FEAD5
:104CB000402242EAD1504FF4FA614718B7F5FA6F33
:104CC00019DAA7F5FA66764306EB86004FEA600824
:104CD00006EB86004FEAA009544887420BDA07F238
:104CE000DC567643072000FB068806EB460000EB07
:104CF000C60009EB6009DDE90801B0EB080061EBD3
:104D0000E871CDE90801DDE90601B0EB090061EBCE
:104D1000E971CDE906014FF00003E168DDE9062CF9
:104D2000A1FB020B03FB02B201FB0C224FEA505124
:104D300041EAC22C4FEA6251DDE90802BCEB0000F7
:104D400061EB0201C00B40EA414A504605F0AEF962
:104D50003749019005F04EF8834636480290584690
:104D6000029903F097FE4FF07E51039005F02CFB63
:104D70003149049005F0FAF9059005F031F98246C1
:104D8000606818B16068AAEB000020602B480078CA
:104D9000B0B12A480078401E2849087008460078BB
:104DA000C82804DA2648006850442549086023488A
:104DB000007828B922480068C72190FBF1F06060B4
:104DC0000BB0BDE8F08F38B50446032004F123038F
:104DD0000022EE2100902046FFF798FB38BD10B569
:104DE00004461848006860B12046FFF7ECFF2046F3
:104DF000FFF7A6FE2046FFF704FF002011490860D8
:104E000008E02046FFF7F1FE2046FFF7E5FE01200F
:104E10000C49086010BD01460868704710B50A4C7F
:104E20002046FFF7DFF9044600BF10BD24FAFFFF5C
:104E300080E6C547B1DC423ED048874A900000205A
:104E40008C00002088000020700600202DE9F04131
:104E500005460E461446284600F000FB314628461B
:104E600000F0CAFA07462146284600F0C5FA28464F
:104E700000F0ECFA3846BDE8F0812DE9F04707462E
:104E8000884615461E46384600F0E8FA4146384640
:104E900000F0B2FA8146002405E0295D384600F0B2
:104EA000ABFA601CC4B2B442F7DB384600F0CEFA6D
:104EB0004846BDE8F08770B505460C4616462846BC
:104EC00000F0BCFA05239C4A2A212846FFF7D5FFAB
:104ED00005239A4A30212846FFF7CFFF01222121DE
:104EE0002846FFF7B3FF012222212846FFF7AEFF35
:104EF0001A2224212846FFF7A9FF324625212846F9
:104F0000FFF7A4FF0F2226212846FFF79FFF012C61
:104F10000AD1FF2231212846FFF798FF0F222021D6
:104F20002846FFF793FF51E0022C0AD1FF223121DE
:104F30002846FFF78BFF0E2220212846FFF786FF29
:104F400044E0032C21D1FF22E1212846FFF77EFF18
:104F5000FF22E2212846FFF779FF0F222021284671
:104F6000FFF774FF5021284600F046FA73212846C7
:104F700000F042FA01223C212846FFF767FF062293
:104F80003D212846FFF762FF20E00E22202128461F
:104F9000FFF75CFFFF22E1212846FFF757FFFF22C2
:104FA000E2212846FFF752FF5021284600F024FA5C
:104FB0007321284600F020FA01223C212846FFF701
:104FC00045FF06223D212846FFF740FF284600F016
:104FD0002DFA70BD70B506460C461546304600F0F9
:104FE0002DFA0523554A2A213046FFF746FF2B4666
:104FF0002246A0213046FFF740FF304600F016FA67
:1050000070BD70B506460C461546304600F016FADF
:105010002B462246A8213046FFF72FFF304600F0EE
:1050200005FA70BD2DE9F0470746884615461E462D
:10503000384600F013FA4146384600F0DDF9814663
:10504000002406E00021384600F0D6F92855601CFF
:10505000C4B2B442F6DB384600F0F8F94846BDE881
:10506000F0877CB505460523344A30212846FFF7F2
:1050700004FF05236A4610212846FFF7D3FF0024CA
:1050800008E01DF804002D49095D884200D003E0C6
:10509000601CC4B2052CF4DB00BF052C01D101203B
:1050A0007CBD0020FCE770B504460D46204600F0AC
:1050B000D5F92946204600F09FF90021204600F04E
:1050C0009BF90646204600F0C1F9304670BD70B528
:1050D000054607212846FFF7E6FF044604F0400096
:1050E000C0B160212846FFF7DEFF0646212E0BDA0D
:1050F00033462A4661212846FFF794FF3246294667
:105100000F48FBF708F904E0FF22E2212846FFF7E9
:105110009DFE00BF04F0100038B104F0010020B182
:10512000FF22E1212846FFF791FE2246272128464B
:10513000FFF78CFE70BD000096000020910000205B
:10514000DC00002030B589B0054601210C2001F0BB
:1051500085FC0F20ADF8040003208DF80600182010
:105160008DF8070001A96D4801F0BCF90320ADF8E6
:10517000040001A96A4801F0B5F900BF0121084601
:1051800001F079FC4FF47A70684366490968B1FB15
:10519000F0F0401E84B240F2E730ADF81C00ADF8EC
:1051A00018400020ADF81E00ADF81A0006A94FF017
:1051B000804001F011FF6020ADF808000120ADF83B
:1051C0000A000020ADF80E00ADF8100002A94FF063
:1051D000804001F03EFF0821C80602F089FB02A9C9
:1051E0004FF0804001F077FF0821C80602F089FBEC
:1051F00002A94FF0804001F0BBFF0821C80602F071
:105200008DFB02A94FF0804001F0FDFF0821C80688
:1052100002F08DFB0121880702F03AFB012188078B
:1052200002F036FA0121022001F025FC3D48006819
:105230003D49B0FBF1F0401E84B240F2E730ADF8DA
:105240001C00ADF818400020ADF81E00ADF81A00A3
:1052500006A9364801F0C0FE6020ADF80800012024
:10526000ADF80A000020ADF80E00ADF8100002A95C
:105270002E4801F07DFF08212C4802F04FFB02A9C7
:105280002A4801F0C0FF0821284802F050FB012104
:10529000264802F0FDFA0121244802F0F9F909B08C
:1052A00030BD0246002014E031F91030B3F57A7FAA
:1052B00004DA4FF47A7321F8103008E031F9103035
:1052C000B3F5FA6F03DD4FF4FA6321F81030431C95
:1052D000D8B20628E8DB0888A0F57A704FF0804342
:1052E00098864888A0F57A70104B3C3318808888DF
:1052F000A0F57A704FF080439887C888A0F57A703F
:105300000A4B403318800889A0F57A701B0618876D
:105310004889A0F57A70064B188070470008014054
:10532000000C0140B800002000366E01000400406F
:105330004000004000B587B00121082001F08EFB3D
:105340000121042001F08AFB0121880301F093FB75
:105350004FF46040ADF8040001208DF806001820DD
:105360008DF8070001A9414801F0BCF84FF48070A6
:10537000ADF8040001208DF8060010208DF807001C
:1053800001A93B4801F0AEF84FF48050ADF804009D
:1053900001208DF8060010208DF8070001A9334880
:1053A00001F0A0F84FF48051304801F048F9002096
:1053B000ADF808004FF48270ADF80A000020ADF897
:1053C0000C00ADF80E00ADF810004FF40070ADF811
:1053D00012000820ADF814000020ADF816000720D8
:1053E000ADF8180002A9234801F0C2FB01212148B1
:1053F00001F063FC07B000BD70B505460C4600BF68
:1054000002211C4801F0DDFC0028F9D02146194892
:1054100001F084FC00BF0121164801F0D2FC0028F5
:10542000F9D0144801F07CFCC0B270BD10B5044640
:105430004FF480710E4801F002F910BD10B504461A
:105440004FF480710A4801F0FCF810BD10B5044615
:105450004FF48051054801F0F2F810BD10B5044634
:105460004FF48051014801F0ECF810BD000C0140F0
:10547000000801400038004010B588B00446012102
:10548000880401F0F8FA0121082001F0E7FA4FF44E
:105490008060ADF8040003208DF8060018208DF818
:1054A000070001A97D4801F01DF84FF40060ADF838
:1054B000040003208DF8060004208DF8070001A9E0
:1054C000764801F00FF804940020ADF81400ADF810
:1054D0001600ADF81800ADF81C000C20ADF81A004D
:1054E0000020ADF80800ADF80A004FF40070ADF8E8
:1054F0000C000020ADF80E0004A9694802F0E9FB99
:1055000002A9674802F05AFC012240F22551644882
:1055100002F077FC0121624802F067FC27208DF839
:10552000000001208DF8010000208DF8020001200C
:105530008DF80300684600F0DCF808B010BD10B527
:105540005749098801F0080121B1554A121D1288F6
:10555000D1B200BF5249098801F08001F1B1504930
:105560000C31098801F08001C1B14E490A780978EF
:10557000491C4C4B19704C49895C494A121D1180D9
:1055800019460978494A1278914207D144490C31A9
:10559000098821F08001424A0C3211804049098873
:1055A00001F0200109B33E4B1B1D1B88DAB20378C2
:1055B0002BB93F4B1A7003785B1C037014E003781F
:1055C000012B11D13B4B1A701B78394C247843EADC
:1055D0000421002905DD40F2DC53994201DA364B03
:1055E000D96003785B1C037000BF10BD70B5054621
:1055F0000C462E4801780078401C2C4A10702A482E
:10560000445427480C30008800F0800028B901225B
:1056100040F22771224802F0F4FB70BD70B50546D8
:105620000C4614E020780D2804D10D212846FFF700
:10563000DDFF0BE020780A2804D10A212846FFF775
:10564000D5FF03E021782846FFF7D0FF641C2078BF
:105650000028E7D170BD2DE9F04106460C461546FD
:1056600000200AE0225C11490B780978491C0F4F91
:1056700039700D49CA54411CC8B2A842F2DB08482F
:105680000C30008800F0800028B9012240F2277118
:10569000034802F0B6FBBDE8F0810000000C0140B9
:1056A000004800409D000020960800209E00002039
:1056B000A00000209F000020F8040020704700BFD9
:1056C000FEE700BFFEE700BFFEE77047704710B57A
:1056D000FEF785F910BD704710B50248FFF72FFFA0
:1056E00010BD00009C00002031490143314A116087
:1056F000704770B5002100230F22C47804B32D4CED
:10570000246804F4E064C4F5E064210AC1F10403F0
:10571000CA40447804FA03F1847814402143090113
:10572000254C0678A155047804F01F050124AC40EF
:1057300005786D11AD0005F1E025C5F8004109E0DF
:10574000047804F01F050124AC401C4D0678761146
:1057500045F8264070BD1A4A0A400243154B1B1FEC
:105760001A60704739B1134A121D12680243114B77
:105770001B1D1A6006E00F4A121D126882430D4B72
:105780001B1D1A607047042808D14FF0E0210969F9
:1057900041F004014FF0E022116107E04FF0E021F9
:1057A000096921F004014FF0E02211617047000007
:1057B0000000FA050CED00E000E400E080E100E00C
:1057C00080FFFF1F10B50446FA48844208D101212A
:1057D000401501F05DF90021601501F059F917E05D
:1057E000F548844208D10121001501F051F900214A
:1057F000201501F04DF90BE0F048844208D1012159
:10580000C80301F045F900214FF4004001F040F9D0
:1058100010BD30B50246002000235068E84C2040FF
:105820000D790C6844EA0524204350609068E54CEB
:105830002040D1E902542C434D7944EA45042043E9
:105840009060D06A20F470000C7C641EE4B22343A4
:1058500040EA0350D06230BD002101600171417106
:105860008160C16001210174704721B1826842F0FA
:105870000102826003E0826822F0010282607047C8
:1058800021B1826842F48072826003E0826822F46F
:1058900080728260704710B50023CBB21AB14468A1
:1058A0001C43446002E044689C43446010BD81682E
:1058B00041F0080181607047014600208A6802F0CB
:1058C00008020AB1012000E000207047816841F021
:1058D000040181607047014600208A6802F00402DA
:1058E0000AB1012000E00020704721B1826842F433
:1058F000A002826003E0826822F4A0028260704706
:10590000014600208A6802F480020AB1012000E00A
:105910000020704710B50A4600210023416821F499
:105920006041531E41EA4331416010BD21B14268DC
:1059300042F40062426003E0426822F40062426086
:105940007047F0B504460D4600200021092D11DDF9
:10595000E068A5F10A0606EB4607072606FA07F1F6
:105960008843A5F10A0606EB460603FA06F108434A
:10597000E0600CE0206905EB4507072606FA07F111
:10598000884305EB450603FA06F108432061072A20
:105990000FDA606B561E06EB86071F2606FA07F124
:1059A0008843561E06EB860605FA06F10843606337
:1059B00022E00D2A0FDA206BD61F06EB86071F2682
:1059C00006FA07F18843D61F06EB860605FA06F1AC
:1059D0000843206310E0E06AA2F10D0606EB86079B
:1059E0001F2606FA07F18843A2F10D0606EB86068C
:1059F00005FA06F10843E062F0BD21B1826842F485
:105A00008012826003E0826822F480128260704714
:105A10000146C86C80B2704766484C3000687047D9
:105A200021B1426842F48062426003E0426822F49D
:105A300080624260704721B1426842F48052426005
:105A400003E0426822F48052426070470A46002117
:105A5000816821F4E04111438160704721B182687F
:105A600042F40042826003E0826822F400428260D5
:105A7000704721B1826842F40212826003E08268BA
:105A800022F4021282607047014600208A6802F404
:105A900000120AB1012000E000207047F0B5044672
:105AA0001546002000220026092911DDE068A1F139
:105AB0000A0707EB470C072707FA0CF29043A1F1FE
:105AC0000A0707EB470703FA07F21043E0600CE010
:105AD000206901EB410C072707FA0CF2904301EB18
