:020000040800F2
:1000000030100020418D0008C96100084B8D0008A8
:10001000CB610008CF610008D36100080000000038
:10002000000000000000000000000000D761000890
:10003000D961000800000000578D0008DB6100084E
:100040005B8D00085B8D00085B8D00085B8D0008F0
:100050005B8D00085B8D00085B8D00085B8D0008E0
:100060005B8D00085B8D00085B8D00085B8D0008D0
:100070005B8D00085B8D00085B8D00085B8D0008C0
:100080005B8D00085B8D00085B8D00085B8D0008B0
:100090005B8D00085B8D00085B8D00085B8D0008A0
:1000A0005B8D00085B8D00085B8D00085B8D000890
:1000B0005B8D00085B8D00085B8D00085B8D000880
:1000C0005B8D00085B8D00085B8D00085B8D000870
:1000D0005B8D0008E36100085B8D0008E5610008A6
:1000E0005B8D00085B8D00085B8D000800F002F856
:1000F00000F03CF80AA090E8000C82448344AAF186
:100100000107DA4501D100F031F8AFF2090EBAE883
:100110000F0013F0010F18BFFB1A43F0010318473B
:1001200080B30000A0B30000103A24BF78C878C1A3
:10013000FAD8520724BF30C830C144BF04680C60ED
:10014000704700000023002400250026103A28BF35
:1001500078C1FBD8520728BF30C148BF0B60704739
:100160001FB508F011FE1FBD10B510BD08F032FE1E
:100170001146FFF7F5FF00F009F808F050FE03B450
:10018000FFF7F2FF03BC08F051FE000004F00BFA89
:100190000F4803F081F90F4801F059FF0E4802F0B3
:1001A00007FB04F097FF11E003F01EFD0B4804F07D
:1001B000A5FF0B484089B0F5AF6F07DD08484089BF
:1001C000B0F5C86F02DA054804F0A8FFECE70000BC
:1001D0003A000020080200200005002068000020EE
:1001E000D40500200122C272704710B50446607B1E
:1001F00000B338480078401C36490870084600783B
:10020000012804D0052809D00A2812D10DE032486F
:1002100004F074FF304804F079FF0AE02E4804F03F
:100220007DFF2D4804F082FF03E00020294908707B
:1002300000BF49E0607AE0B1207BD0B92548007862
:10024000401C2449087008460078012804D014286E
:1002500006D028280CD107E01F4804F04FFF07E024
:100260001D4804F05BFF03E000201A49087000BF3E
:100270002AE0607A10B3207B00B318480078401C55
:100280001649087008460078012804D0142809D0BF
:10029000282812D10DE0104804F030FF0E4804F079
:1002A00045FF0AE00C4804F039FF0B4804F02EFF2C
:1002B00003E000200949087000BF05E0064804F08B
:1002C0001DFF054804F022FF10BD00B50448FFF7EC
:1002D00089FF00BD00000020680000200100002010
:1002E000C000002070B504460E4615462A4604F1AB
:1002F0000F01FE4805F0F4FB70BD2DE9F041044606
:100300000D461646AA20E073AA212174EF216174DC
:100310000221A174E57426750027002006E004F18F
:100320000F01095C3944CFB2411CC8B20628F6DB84
:100330006775082204F10F012046FFF7D3FFBDE8DF
:10034000F0812DE9F04F87B005460C461646002790
:1003500001200690002004E0215C3944CFB2411C0A
:10036000C8B2711E8142F7DCA01910F8010CB84226
:1003700002D007B0BDE8F08F2078AA2802D16078BB
:10038000AF2800D0F5E70021D9488172A078012874
:1003900011D12079012801D1D6490870207902288D
:1003A00002D10120D34948702079032803D10120CC
:1003B000D04908704870A078022816D12079012809
:1003C00005D128716871A871E87128726872207966
:1003D000A02801D1012028702079A12805D1C64884
:1003E00001F0BAFAC54802F03EFFA07803287CD19C
:1003F0002079617941EA0020C149C880A079E1797A
:1004000041EA0020BE498880207A617A41EA0020D2
:10041000BB490880A07AE17A41EA0020B8494880C7
:10042000207B617B41EA0020B5490881A07BE17B0C
:1004300041EA0020B2494881207C617C41EA0020E9
:10044000AF498881A07CE17C41EA0020AC49C881A9
:100450000698002861D008460088A0F2DC590846BA
:100460004088A0F2DC58A749886803F080FC02901D
:1004700008F0D4FF824648460AF040FC83465146C5
:100480000AF09CFC9F490490886803F070FC01907E
:1004900009F094FB834640460AF030FC594602902E
:1004A0000AF08CFC824698490AF0B6FD0390049944
:1004B0000AF054FA05900AF001FC9149088091492C
:1004C000886803F054FC029009F078FB04904846D9
:1004D0000AF014FC039004990AF070FC8949059015
:1004E000886803F044FC019000E016E008F096FFF5
:1004F000039040460AF002FC029003990AF05EFC69
:10050000814904900AF02AFA834605990AF026FAEE
:1005100082460AF0D3FB7A494880A07810287DD122
:100520002179090209B2627941EA02000AF0E6FB88
:10053000824676490AF086FA6F490860A179090275
:1005400009B2E27941EA02000AF0D8FB82466F491B
:100550000AF078FA68494860217A090209B2627A99
:1005600041EA02000AF0CAFB824668490AF06AFAC8
:1005700061498860A17A090209B2E27A41EA02007F
:100580000AF0BCFB824661490AF05CFA5A49C8612C
:10059000217B090209B2627B41EA02000AF0AEFB4C
:1005A00082465A490AF04EFA53490862A17B090271
:1005B00009B2E27B41EA02000AF0A0FB82465349FD
:1005C0000AF040FA4C494862217C090209B2627C77
:1005D00041EA02000AF092FB82464C490AF032FAE4
:1005E00045498863A17C090209B2E27C41EA020024
:1005F0000AF084FB824645490AF024FA3E49C86362
:10060000217D090209B2627D41EA02000AF076FB0F
:1006100082463E490AF016FA374900E005E00864D0
:10062000A1783A462846FFF768FEA07811286FD1D6
:100630002179090209B2627941EA02000AF05EFBFF
:10064000824632490AF0FEF92B494865A179090230
:1006500009B2E27941EA02000AF050FB82462B49D6
:100660000AF0F0F924498865217A090209B2627A10
:1006700041EA02000AF042FB824624490AF0E2F90C
:100680001D49C865A17A090209B2E27A41EA02006D
:100690000AF034FB82461D490AF0D4F9164908676E
:1006A000217B090209B2627B41EA02000AF026FBC3
:1006B000824616490AF0C6F90F494867A17B09022C
:1006C00009B2E27B41EA02000AF018FB82460F49B8
:1006D0000AF0B8F908498867217C090209B2627CEE
:1006E00041EA02000AF00AFB824612E0A00600205E
:1006F000C000002020060020140100203A00002045
:10070000D4050020080200200080BB4400007A4489
:1007100028E0FE490AF096F9FD49C1F88C00A17C59
:10072000090209B2E27C41EA02000AF0E7FA8246D5
:10073000F6490AF087F9F649C1F89000217D0902CF
:1007400009B2627D41EA02000AF0D8FA8246EF4916
:100750000AF078F9EE49C1F89400A1783A462846A3
:10076000FFF7CBFDA078122834D12179090209B214
:10077000627941EA02000AF0C1FA8246E3490AF0CE
:1007800061F9E349C1F8A800A179090209B2E27947
:1007900041EA02000AF0B2FA8246DC490AF052F954
:1007A000DB49C1F8AC00217A090209B2627A41EA58
:1007B00002000AF0A3FA8246D4490AF043F9D44968
:1007C000C1F8B000A1783A462846FFF796FDD14817
:1007D00002F049FDA078132804D1A1783A462846B2
:1007E000FFF78BFDA078142804D1A1783A4628465B
:1007F000FFF783FDA078152804D1A1783A46284652
:10080000FFF77BFD00BFB4E510B50446C24805F014
:10081000E4F910BD2DE9FC5F04460E4617469846E4
:10082000DDE90CAB0025AA2229466D1C04F10F005E
:10083000425429466D1C425406F10F00C2B22946AB
:100840006D1C04F10F004254002229466D1C4254D5
:10085000AE4938460AF0B2FA00900AF0E9F900B25F
:1008600001909DF8052029466D1C04F10F004254AB
:100870009DF8042029466D1C4254A44940460AF0C4
:100880009DFA00900AF0D4F900B201909DF805207D
:1008900029466D1C04F10F0042549DF8042028469F
:1008A000691CCDB204F10F010A54984950460AF070
:1008B00085FA00900AF0BCF900B201909DF805207D
:1008C0002846691CCDB204F10F010A549DF804209A
:1008D0002846691CCDB204F10F010A548B495846D1
:1008E0000AF06CFA00900AF0A3F900B201909DF8AA
:1008F00005202846691CCDB204F10F010A549DF869
:1009000004202846691CCDB204F10F010A547F4926
:100910000E980AF053FA00900AF08AF900B201909A
:100920009DF805202846691CCDB204F10F010A5438
:100930009DF804202846691CCDB204F10F010A5429
:1009400072490F980AF03AFA00900AF071F900B271
:1009500001909DF805202846691CCDB204F10F01D5
:100960000A549DF804202846691CCDB204F10F01F9
:100970000A54664910980AF021FA00900AF058F9D2
:1009800000B201909DF805202846691CCDB204F103
:100990000F010A549DF804202846691CCDB204F1C9
:1009A0000F010A54594911980AF008FA00900AF008
:1009B0003FF900B201909DF805202846691CCDB290
:1009C00004F10F010A549DF804202846691CCDB299
:1009D00004F10F010A544D4912980AF0EFF9009002
:1009E0000AF026F900B201909DF805202846691CFE
:1009F000CDB204F10F010A549DF804202846691C69
:100A0000CDB204F10F010A54281FA0744FF0000961
:100A1000002007E004F10F01095C494401F0FF09DF
:100A2000411CC8B2A842F5DB2846691CCDB204F1CE
:100A30000F0101F800902A462046FFF753FCBDE85D
:100A4000FC9F2DE9F84304460E4617460025AA22CE
:100A500029466D1C04F10F00425429466D1C425476
:100A6000052229466D1C4254002229466D1C425421
:100A700000969DF8012029466D1C42549DF80020E7
:100A800029466D1C425400979DF8012029466D1C93
:100A900042549DF800202846691CCDB204F10F0194
:100AA0000A54281FA0744FF00008002007E004F14A
:100AB0000F01095C414401F0FF08411CC8B2A84283
:100AC000F5DB2846691CCDB204F10F0101F8008066
:100AD0002A462046FFF706FCBDE8F8837FB50446AA
:100AE0000025AA2229466D1C04F10F004254294614
:100AF0006D1C4254062229466D1C42540022294690
:100B00006D1C42549DF80520294607E000007A44F8
:100B1000140100203A000020A00600206D1C425461
:100B20009DF8042029466D1C42549DF80920294651
:100B30006D1C42549DF808202846691CCDB204F172
:100B40000F010A549DF80D202846691CCDB204F10E
:100B50000F010A549DF80C202846691CCDB204F1FF
:100B60000F010A549DF821202846691CCDB204F1DA
:100B70000F010A549DF820202846691CCDB204F1CB
:100B80000F010A549DF825202846691CCDB204F1B6
:100B90000F010A549DF824202846691CCDB204F1A7
:100BA0000F010A549DF829202846691CCDB204F192
:100BB0000F010A549DF828202846691CCDB204F183
:100BC0000F010A549DF82D202846691CCDB204F16E
:100BD0000F010A549DF82C202846691CCDB204F15F
:100BE0000F010A549DF831202846691CCDB204F14A
:100BF0000F010A549DF830202846691CCDB204F13B
:100C00000F010A54281FA0740026002006E004F1FA
:100C10000F01095C3144CEB2411CC8B2A842F6DBD8
:100C20002846691CCDB204F10F010E542A46204615
:100C3000FFF758FB7FBD7FB504460025AA22294651
:100C40006D1C04F10F00425429466D1C42540322CE
:100C500029466D1C4254002229466D1C42549DF8C1
:100C6000052029466D1C42549DF8042029466D1C20
:100C700042549DF8092029466D1C42549DF80820D5
:100C80002846691CCDB204F10F010A549DF80D20CD
:100C90002846691CCDB204F10F010A549DF80C20BE
:100CA0002846691CCDB204F10F010A549DF8212099
:100CB0002846691CCDB204F10F010A549DF820208A
:100CC0002846691CCDB204F10F010A549DF8252075
:100CD0002846691CCDB204F10F010A549DF8242066
:100CE0002846691CCDB204F10F010A549DF8292051
:100CF0002846691CCDB204F10F010A549DF8282042
:100D00002846691CCDB204F10F010A549DF82D202C
:100D10002846691CCDB204F10F010A549DF82C201D
:100D20002846691CCDB204F10F010A549DF8312008
:100D30002846691CCDB204F10F010A549DF83020F9
:100D40002846691CCDB204F10F010A549DF83520E4
:100D50002846691CCDB204F10F010A549DF83420D5
:100D60002846691CCDB204F10F010A549DF83920C0
:100D70002846691CCDB204F10F010A549DF83820B1
:100D80002846691CCDB204F10F010A54281FA07433
:100D90000026002006E004F10F01095C3144CEB2C8
:100DA000411CC8B2A842F6DB2846691CCDB204F14A
:100DB0000F010E542A462046FFF794FA7FBD2DE915
:100DC000F84304460E4617460025AA2229466D1C04
:100DD00004F10F00425429466D1C42540722294653
:100DE0006D1C4254002229466D1C425400969DF809
:100DF000032029466D1C42549DF8022029466D1C93
:100E000042549DF8012029466D1C42549DF8002053
:100E10002846691CCDB204F10F010A5400979DF8D1
:100E200001202846691CCDB204F10F010A549DF837
:100E300000202846691CCDB204F10F010A54281F76
:100E4000A0744FF00008002007E004F10F01095CD6
:100E5000414401F0FF08411CC8B2A842F5DB284616
:100E6000691CCDB204F10F0101F800802A4620462A
:100E7000FFF738FABDE8F8832DE9F84F04460E462F
:100E800017469846DDE90AAB0025AA2229466D1CC3
:100E900004F10F00425429466D1C42540222294697
:100EA0006D1C4254002229466D1C425400969DF848
:100EB000012029466D1C42549DF8002029466D1CD6
:100EC000425400979DF8012029466D1C42549DF81C
:100ED00000202846691CCDB204F10F010A54CDF858
:100EE00000809DF801202846691CCDB204F10F0155
:100EF0000A549DF800202846691CCDB204F10F0168
:100F00000A54CDF800A09DF801202846691CCDB2F6
:100F100004F10F010A549DF800202846691CCDB247
:100F200004F10F010A54CDF800B09DF801202846C5
:100F3000691CCDB204F10F010A549DF80020284627
:100F4000691CCDB204F10F010A540C9800909DF871
:100F500001202846691CCDB204F10F010A549DF806
:100F600000202846691CCDB204F10F010A540D98E7
:100F700000909DF801202846691CCDB204F10F01B4
:100F80000A549DF800202846691CCDB204F10F01D7
:100F90000A540E9800909DF801202846691CCDB295
:100FA00004F10F010A549DF800202846691CCDB2B7
:100FB00004F10F010A540F9800909DF80120284673
:100FC000691CCDB204F10F010A549DF80020284697
:100FD000691CCDB204F10F010A54281FA0744FF010
:100FE0000009002007E004F10F01095C494401F009
:100FF000FF09411CC8B2A842F5DB2846691CCDB2E6
:1010000004F10F0101F800902A462046FFF76AF923
:10101000BDE8F88F2DE9FE4F04460E461746984668
:10102000DDE90CAB0025CDF804A0AA2229466D1CF1
:1010300004F10F00425429466D1C425401222946F6
:101040006D1C4254002229466D1C4254FE49304614
:1010500009F0B4FE009009F0EBFD00B202909DF89B
:10106000092029466D1C04F10F0042549DF8082008
:1010700029466D1C4254F449384609F09FFE009001
:1010800009F0D6FD00B202909DF8092029466D1C9A
:1010900004F10F0042549DF808202846691CCDB287
:1010A00004F10F010A54E849404609F087FE009018
:1010B00009F0BEFD00B202909DF809202846691C87
:1010C000CDB204F10F010A549DF808202846691C8E
:1010D000CDB204F10F010A549DF807202846691C7F
:1010E000CDB204F10F010A549DF806202846691C70
:1010F000CDB204F10F010A549DF805202846691C61
:10110000CDB204F10F010A549DF804202846691C51
:10111000CDB204F10F010A542846691CCDB204F186
:101120000F0101F800B029466A1CD5B204F10F0284
:101130000E985054281FA0744FF00009002007E0BB
:1011400004F10F01095C494401F0FF09411CC8B2D8
:10115000A842F5DB2846691CCDB204F10F0101F865
:1011600000902A462046FFF7BDF8BDE8FE8F2DE926
:10117000FF4104460E460025AA2229466D1C04F1B3
:101180000F00425429466D1C4254002229466D1C12
:10119000425429466D1C425429466D1C46549DF804
:1011A000092029466D1C42549DF8082029466D1CD3
:1011B00042549DF80D202846691CCDB204F10F0160
:1011C0000A549DF80C202846691CCDB204F10F0189
:1011D0000A549DF829202846691CCDB204F10F015C
:1011E0000A549DF828202846691CCDB204F10F014D
:1011F0000A549DF82D202846691CCDB204F10F0138
:101200000A549DF82C202846691CCDB204F10F0128
:101210000A54281FA0740027002006E004F10F01E3
:10122000095C3944CFB2411CC8B2A842F6DB28465B
:10123000691CCDB204F10F010F542A462046FFF776
:1012400051F8BDE8FF812DE9F04788B004467F489A
:1012500000787F49097890FBF1F201FB12017C488C
:101260000078401E814201D10120A07077480078AB
:101270007849097890FBF1F201FB1201754800787A
:10128000401E814201D10120E0707048007872490F
:10129000097890FBF1F201FB12016F480078401EC3
:1012A000814201D101206073684800786B49097858
:1012B00090FBF1F201FB120168480078401E814268
:1012C00001D101206070614800786549097890FB80
:1012D000F1F201FB120162480078401E814201D107
:1012E0000120A072594800785E49097890FBF1F21C
:1012F00001FB12015B480078401E814201D10120B0
:101300002073524800785849097890FBF1F201FBAC
:10131000120155480078401E814201D10120A0737E
:101320004A480078401C49490870207868B100207C
:1013300020704FF4C8716E234FF49672CDE90010FF
:1013400001212046FFF713FF44E16078A8B1002097
:1013500060704649086B09F06BFC05464448407ACA
:101360004349097BCDE900510290424883684268B5
:1013700001682046FFF74EFE2CE1607B10B1002093
:10138000607327E1A07880B30020A07039494869D4
:1013900009F04EFC05B23749086909F049FC06B26C
:1013A0003449C86809F044FC07B23249C86A09F0F8
:1013B0003FFC0FFA80F82F49886A09F039FC0FFAD0
:1013C00080F92C49486A09F033FC0FFA80FA0020B2
:1013D000CDE90250049043464A465146CDE9007695
:1013E00005902046FFF748FDF4E0FFE7E078A0B164
:1013F0000020E0701D48806800EBC00303EB001084
:101400004FF6FF7303EA800218484068642300FB2C
:1014100003F12046FFF7D3FCDCE0A07A98B100206E
:10142000A0721548408A1449098A134AD289124B7E
:101430009B89CDE90332CDE905100F484189008928
:101440000D4A52881AE024E00000C8420200002041
:1014500003000020090000200400002005000020F7
:1014600006000020070000200800002000050020E2
:10147000C000002008020020D4050020CDE9002093
:101480000291614803888288C1882046FFF7D3FB18
:10149000A0E0207B80B30020207305A95B4801F009
:1014A00000F900200AE005A931F81010A1F57A71C1
:1014B00009B205AA22F81010411CC8B20628F2DBB6
:1014C0000022BDF81E0080B2BDF81C1089B2CDE923
:1014D000020204920191BDF81A0080B20090BDF89A
:1014E000180083B2BDF8160082B2BDF8140081B2B4
:1014F0002046FFF7F3FA6DE0FFE7A07B80B1002004
:10150000A07343494348006809F058FC064609F0B7
:10151000D5FB85B2002229462046FFF792FA59E012
:101520002079E8B1002020713B48016CC06B3A4A39
:10153000926B394B5B6ACDE90332CDE90501364840
:10154000006A3549C969344A9268CDE900210290A0
:1015500031484368012102682046FFF75BF939E012
:101560006079F0B1002060712B48D0F89420D0F859
:101570009010D0F88C00284B9B6FCDE90330CDE95B
:1015800005122548416F006F234AD26DCDE9002036
:1015900002912148836D0221426D2046FFF73AF9FE
:1015A00018E0A079B0B10020A071039004900590DC
:1015B0000146024606901848D0F8B000CDE9012156
:1015C00000901548D0F8AC300321D0F8A820204670
:1015D000FFF720F908B0BDE8F087104909781E2907
:1015E0000CDD00210D4A11700D49897A19B90122CB
:1015F0000B498A7202E0002209494A7207490978B8
:10160000491C064A11707047D4050020F4040020DC
:101610000000C8425C000020140100200A000020E5
:10162000C00000202DE9F04781460C4615462946AA
:10163000C34809F0C3FB804641464FF07E5009F095
:1016400001FA0746214609F089F906463146204647
:1016500009F0F8F9BDE8F0872DE9F84F0F46154677
:101660001C462946B64809F0A9FB8146394609F0CF
:10167000A5FB804641464FF07E5009F0E3F906464F
:101680003146B04809F09AFB82463146304609F0AF
:1016900095FB8346514609F061F981464FF07E5132
:1016A00009F05CF9804641464FF07E5009F0CAF9D6
:1016B00020603146A34809F081FB8346314630461D
:1016C00009F07CFB5946009009F048F982464FF03A
:1016D0007E5109F043F9804631469A4809F06EFB85
:1016E000314600904FF0804009F068FB8346314658
:1016F00009F064FB8246009909F030F981464146C1
:1017000009F0A0F9606031468E4809F057FB834626
:101710003146304609F052FB5946009009F01EF957
:1017200081464FF07E5109F019F980463146304626
:1017300009F044FB8246414609F084F9A060BDE807
:10174000F88F2DE9F04107460D46144621462846FC
:1017500009F004F906463146204609F073F9BDE860
:10176000F0810FB4F0B58DB005460F461A9C2246A5
:1017700017A904A808F0EFFC04A807C807AB07C323
:1017800021464FF07E5009F0D9FC0646324614A996
:1017900001A808F0E0FC01A807C80AAB07C307AA24
:1017A0000AA9284608F0F3FC0DB0F0BC5DF814FB64
:1017B0000FB470B59EB005460E4614460FA8002122
:1017C00081604160016000BF04F10C010CA8A268B7
:1017D00008F0C1FC0CA807C812AB07C304F118013C
:1017E00009A8626808F0B7FC09A807C815AB07C3C9
:1017F00025A906A8226808F0AEFC06A807C818AB01
:1018000007C315AA18A903A808F0C1FC03A807C8B4
:101810001BAB07C312AA1BA9684608F020FC9DE871
:1018200007000FAB07C3D4E90712A069C4E904128B
:10183000E0600FA807C8C4E90712A0610FA807C895
:1018400085E807001EB070BC5DF814FB2DE9F05F61
:1018500083460C4615463C48A168006809F0AEFA7C
:1018600080463A486168006809F0A8FA814628462F
:10187000216809F0A3FA8246494609F06FF8074645
:10188000414609F05BFC0646304800682E49086076
:101890002E480660304609F0CBF9BDE8F09F2DE9EF
:1018A000F05F83460C4615462948A168006809F098
:1018B00085FA804627486168006809F07FFA81460A
:1018C0002846216809F07AFA8246494609F046F826
:1018D0000746414609F032FC06461E4800681C498E
:1018E00008601C480660304609F0A2F9BDE8F09F88
:1018F0000FB4F0B58DB005460F461A9C21464FF047
:101900007E5009F01BFC0646324617A904A808F0D1
:1019100022FC04A807C807AB07C3224614A901A8E4
:1019200008F019FC01A807C80AAB07C307AA0AA94F
:10193000284608F02CFC0DB0F0BC5DF814FB00004C
:10194000DB0FC94000004040100000200C000020C8
:10195000180000201400002038B50446F948FA4B5E
:10196000FA4A11460090204607F0A3FAF548F64BD4
:10197000F64A1146009004F11C0007F09AFAF1486B
:101980000023F34AF349009004F1380007F091FA7C
:10199000002003460246F049009004F1540007F08D
:1019A00088FA0020034602464FF08041009004F17F
:1019B000700007F07EFAE948E94B4FF07C524FF097
:1019C0007F51009004F18C0007F073FADD4800238A
:1019D0001A46E449009004F1A80007F06AFA38BDFD
:1019E00010B5044607231C22DF49204607F088FA79
:1019F000044604F1C40008F0B4FAA0F1C40404F1F0
:101A0000D00008F0AEFAA0F1D00404F1EC0008F028
:101A1000A8FAA0F1EC04962004F8DC0F32206070E4
:101A20006420E082DC3C2046FFF796FF204610BD94
:101A300010B50446CD49086B09F0FAF8C4F8D8008F
:101A400010BD2DE9F04188B0044603A80021816053
:101A50004160016000BFC6490868C64909F0AEF997
:101A60000746C549B1F9141048004FF4AF7251420E
:101A700002F061F9804609F041F90646394609F05D
:101A80005DFB054609F0D4F80690B9494868B949A4
:101A900009F094F90746B849B1F9161048004FF417
:101AA000AF72514202F047F9804609F027F9064625
:101AB000394609F043FB054609F0BAF807900221C0
:101AC000069802F043F906900221079802F03EF9C9
:101AD00007904FF08142A6491831684608F0A3FAF2
:101AE0009DE8070003AB07C304F15400069901F019
:101AF00099FD074609F002F90646039909F01EFB15
:101B0000054609F095F8C4F8E00004F1540007997F
:101B100001F088FD074609F0F1F80646049909F03E
:101B20000DFB054609F084F8E421085194F8DD0026
:101B30009149B1F9181000FB01F5E91705EBD161E6
:101B4000481109F0DBF80746059909F0F7FA06464F
:101B500009F06EF8E821085108B0BDE8F0812DE9E0
:101B6000F04F85B006460C461746984680494868AF
:101B7000002109F0EFF902D27D48406803E07C487B
:101B8000406880F00040824679490868002109F0E9
:101B9000E1F902D27648006803E07548006880F0F9
:101BA00000408346514609F0D5F90DD270490868C6
:101BB000002109F0CFF902D26D48006811E06C48AD
:101BC000006880F000400CE069494868002109F095
:101BD000C1F902D26648406803E06548406880F079
:101BE00000400546654A002102F06BF88146002559
:101BF0001BE06148C08840F2E241884205DAC5EB4B
:101C0000C50106EB810001F047FD06F1E00252F844
:101C10002510C5EBC50206EB8200514A01F012FD0A
:101C200002A941F82500681CC5B2032DE1DB524B27
:101C3000B3F91830002B03DD4F4BB3F9183003E034
:101C40004D4BB3F918305B4203F596724A4BB3F92A
:101C50001830002B03DD484BB3F9183003E0464B36
:101C6000B3F918305B42464DE91A049802F063F864
:101C7000404204904348007BD8B9484602F077F8C8
:101C8000009007F0CBFB83463B49B1F91A10A1F550
:101C90007A7009F033F85946019008F0D3FE824675
:101CA000394908F05BFE054608F0C2FF01B2324830
:101CB00041833148008900286ADD2F48008940F2BD
:101CC0001451884264DA2C48408900280EDD2A48E5
:101CD000408988420ADA049800902748408B81B2F4
:101CE0002A48DDE9022300F0A1FB2CE122484089CB
:101CF00040F214518842F8DD1F484089B0F5C86FA2
:101D0000F3DA002C0CDDB4F5C87F09DA04980090F2
:101D100040F286611D48DDE9022300F087FB12E1F5
:101D2000B4F5C87F35DBB4F5167F32DA049800903D
:101D3000039800F1500340F204611448029A00F045
:101D400075FB00E1000048430AD7A33C9A99193E6D
:101D50006666E63ECDCC4C3F0000A0400000164336
:101D60006F12033B9A99993FC18E0008000500202D
:101D70000802002000002041D40500200000A041FE
:101D8000D4FEFFFFC000002000007A44F4040020CD
:101D900075E0B4F5167F0DDB40F2EE20844209DADF
:101DA0000498009040F204616C48DDE9022300F0E1
:101DB0003DFBC8E040F2EE2084420FDB40F21A40C7
:101DC00084420BDA049800900398A0F1500340F28B
:101DD00004616248029A00F029FBB4E040F21A4024
:101DE00084420CDBB4F5966F09DA0498009040F257
:101DF00004615A48DDE9022300F018FBA3E0B4F5C2
:101E0000966F0DDB40F21450844209DA049800907A
:101E100040F2E6515148DDE9022300F007FB92E071
:101E200040F2145084420CDBB4F5AF6F09DA049829
:101E3000009040F2FA514948DDE9022300F0F6FA39
:101E400081E0B4F5AF6F0DDB40F2DC50844209DA7B
:101E50000498009040F2DC514048DDE9022300F094
:101E6000E5FA70E000213E484172049800904FF47A
:101E700096613A48DDE9022300F0D8FA63E0394878
:101E8000008940F2145188425DDD36480089B0F582
:101E9000C86F58DAB8F1000F02D001213048417202
:101EA000002C12DDFA2C10DA39462F4808F056FDC6
:101EB000824608F003FF85B204980090294627481F
:101EC000DDE9022300F0B2FA3DE0FA2C0CDBB4F5B8
:101ED000FA7F09DA0498009040F246511F48DDE984
:101EE000022300F0A3FA2EE0B4F5FA7F0DDB40F2F6
:101EF0008A20844209DA049800904FF4AF611748B1
:101F0000DDE9022300F092FA1DE040F28A208442CB
:101F10000DDB40F25230844209DA0498009040F21E
:101F200046510E48DDE9022300F080FA0BE0002163
:101F30000B484172049800904FF496610748DDE920
:101F4000022300F073FA05B0BDE8F08F70477047C8
:101F500010B50648FFF744FD10BD0000F404002052
:101F6000C0000020D405002000C0A84414010020B7
:101F700010B50446204600BF0446204607F0D4FFB3
:101F8000044604F10C0007F0CFFFA0F10C0404F1AB
:101F9000180007F0C9FFA0F1180404F1240007F0AD
:101FA000C3FFA0F1240404F1300007F0BDFFA0F14D
:101FB000300404F13C0006F040FFA0F13C0404F1C1
:101FC000600006F03AFFA0F1600404F1880006F01A
:101FD00043FFA0F1880404F5C87006F03DFFA0F5AA
:101FE000C87404F527704FF07E5101600021C16074
:101FF0008160416000BFA0F52774204610BD10B578
:10200000044662224FF47A71EF4803F0D1F810BD14
:1020100010B50446ED4AEE492046FFF703FBED49B3
:10202000086004F13C03E94AE9492046FFF714FB44
:1020300004F16003E84AE6492046FFF70DFBE74A52
:10204000E3492046FFF77DFBE249486010BD10B52B
:1020500004462046FFF7DCFF2046FFF7D0FF10BD07
:102060003EB50446D84803F075F9D74803F045FA61
:10207000D549684603F0A5FA9DE80700C4E90412B3
:10208000E060D149684603F095FA9DE80700C4E98D
:102090000A1260623EBD2DE9FF4196B00446239FBF
:1020A00004AE20AD284607F0B7FF804642462946D9
:1020B000304607F0B8FF00BF04A807C820AB07C32D
:1020C0000AA807F031FF0AA904F5277001F080FF84
:1020D00007A807F029FF0AAA20A904A808F073F8A6
:1020E00004A807C807AB07C3BD4A07A904A808F09E
:1020F00032F804A807C813AB07C313A9B94807F0FF
:102100001CFF4FF0804207A904A808F024F804A897
:1021100007C80DAB07C30DAAB24901A808F037F8EC
:1021200001A807C810AB07C310A917A807F005FF3F
:102130003A4617A904F5277001F0BBFF04F5277094
:1021400001F08CFE04F10803221D214604F52770DE
:1021500002F041F91AB0BDE8F0812DE9F04782465E
:102160000C46A1490968601A08F094F907469F4A8D
:102170009F4B08F0DFF9054608F060F881469A4861
:1021800004604846BDE8F0872DE9F04395B0044669
:102190000EA807F087FE08A807F084FED4E90A011C
:1021A000CDE9000104F13C02214605A8636AFFF76E
:1021B000FFFA05A807C8C4E90D122063D4E9040199
:1021C000CDE9000104F16002214605A8E368FFF7AC
:1021D000EFFA05A807C8C4E90712A06104F13005A9
:1021E0002946284607F09BFF8146824908F0E6FD14
:1021F00080464FF0974108F025FC074608F018FD8F
:10220000C4F8AC0202F09AF9054629462046FFF7C9
:10221000A4FF0646206A00906B4905A8D4E906236E
:1022200003F0D6F90396D4E90D12206B8DE8070070
:10223000204605A90EC9FFF72EFF15B0BDE8F083B3
:102240002DE9F0418CB080460C4603A807F016FE3D
:10225000684607F069FE206801F089FD80F00045BE
:10226000606801F084FD80F00046A06801F07FFD09
:10227000074600950196029700BF694603A807F03C
:1022800079FD04F1300203A9404607F073FE0CB05B
:10229000BDE8F0813FB5A5B004462F9D0AA807F020
:1022A000EDFD26AA544907A807F071FF07A807C843
:1022B0001FAB07C32A461FA904A807F04CFF04A8B8
:1022C00007C822AB07C34FF0804222A901A807F03C
:1022D000AAFE4A4801A90EC90EC048490AA807F03B
:1022E00049FD0AAA464907A807F0D5FE444807A9B0
:1022F0000EC90EC00AAA434907A807F0CCFE414800
:1023000007A90EC90EC0404A2CA907A807F023FF51
:1023100007A807C819AB07C33C4A394904A807F006
:102320001AFF04A807C81CAB07C319AA1CA901A857
:1023300007F02DFF324801A90EC90EC0324A2CA960
:1023400007A807F008FF07A807C813AB07C32F4A61
:102350002C4904A807F0FFFE04A807C816AB07C362
:1023600013AA16A901A807F012FF264801A90EC951
:102370000EC02146224807F09DFD2146214807F066
:10238000C3FD1D4826A90EC90EC029B030BD10B529
:102390001F48FFF7EDFD184807F0C6FD174807F086
:1023A000C3FD4FF08B4300221146154807F0B8FDDE
:1023B00000231A464FF08B41124807F0B1FD09483F
:1023C00007F0B2FD10BD00002006002000004842CA
:1023D0006F12033BC0000020000002436666E63F28
:1023E0006F12833AE80400201C0000208DEDB5A098
:1023F000F7C6B03E0000C842B8040020C404002064
:10240000D0040020DC0400200AD7A33C48E17A3F36
:10241000080200200146002005E04FF47A7221F8FE
:102420001020421CD0B20628F7DB70472DE9F04F90
:102430008FB004460D4616469B46DDF86090484630
:1024400008F011F8CDE90A01584608F00CF80746E3
:102450009A4A9B4B08F06EF8CDE90601304608F029
:1024600002F80022974BCDE9000108F063F8074617
:102470008846284608F00EF83A464346CDE9020160
:1024800008F056F9CDE90401DDE9062307F008FF5D
:10249000CDE90801DDE90A2307F002FFCDE90C01CF
:1024A00007F0B2FF00B2A080484607F0DCFFCDE99C
:1024B0000A01584607F0D7FF0746804A804B08F0CC
:1024C00039F8CDE90601304607F0CDFF0746002276
:1024D0007C4B08F02FF8CDE90201284607F0DAFF1F
:1024E000CDE90001DDE9022308F022F9CDE904017C
:1024F000DDE9062308F01CF9CDE90801DDE90A232E
:1025000007F0CEFECDE90C0107F07EFF00B260803F
:10251000484607F0A8FFCDE90A01584607F0A3FF97
:102520000746664A664B08F005F8CDE906013046D5
:1025300007F099FF0022634BCDE9000107F0FAFF95
:1025400007468846284607F0A5FF3A464346CDE9A8
:10255000020107F0A5FECDE90401DDE9062307F03D
:102560009FFECDE90801DDE90A2308F0E1F8CDE995
:102570000C0107F049FF00B22080484607F073FFC6
:10258000CDE90A01584607F06EFF07464B4A4C4B0F
:1025900007F0D0FFCDE90601304607F064FF07469B
:1025A0000022484B07F0C6FFCDE90201284607F09C
:1025B00071FFCDE90001DDE9022307F071FECDE9ED
:1025C0000401DDE9062308F0B3F8CDE90801DDE9EF
:1025D0000A2308F0ADF8CDE90C0107F015FF00B2B1
:1025E000E080A81BA0EB090000B26081A819484454
:1025F00000B22081B4F900A0012007E034F91010E6
:10260000514501DD34F910A0411CC8B20628F5DBA4
:10261000002719E040F26C70824507DD34F817108E
:10262000AAF26C70081A00B224F8170034F81710D8
:1026300088B240F26C7240F24C4101F071FB00B282
:1026400024F81700781CC7B2062FE3DB1E48407A37
:1026500010B92046FFF7DEFE1C484089002819DD2E
:102660001A48408940F21451884213DA1748008909
:1026700000280FDD1548008988420BDA1248007BDC
:1026800040B91248C08840F2E241884202DA20464E
:10269000FFF7C0FE21460E4803F089FB0FB0BDE8EE
:1026A000F08F02880A8042884A8082888A80C288A5
:1026B000CA8002890A8142894A81704783C0CAA1BF
:1026C00045B6EB3F0000E03FC0000020D4050020ED
:1026D0008F00002010B50446204600BF044604F1D8
:1026E000100007F021FCA0F1100404F11C0007F019
:1026F0001BFCA0F11C0404F1280007F015FCA0F15C
:10270000280404F1340007F00FFCA0F1340404F1B4
:10271000400007F009FCA0F1400404F1500006F06D
:102720008CFBA0F1500404F1740006F086FBA0F1CC
:10273000740404F1B40007F0F7FBA0F1B4044FF007
:1027400082431A46194604F1B40007F0F2FBFE4832
:102750009834A0614FF48020A062FC4844F89809A6
:10276000FB499C200151FB49A0200151FA49A420BA
:102770000151FA49A8200151F949AC2001512046E4
:1027800010BD10B50446F74802F09AFF10BD10B511
:10279000044604F15003F44AF4492046FEF75CFF76
:1027A00004F17403F24AF1492046FEF755FF10BDCB
:1027B00010B504462046FFF7EAFF2046FFF7E1FF89
:1027C00010BD01B5AEB017A807F0AEFB14A807F016
:1027D000ABFBE84800680A2803D0E74800780228E5
:1027E0007DD10020E44908705521E34803F084FCC2
:1027F0000020E049086001F0A1FEE0490968401AA4
:102800000F9007F047FEDE4ADE4BCDE9100107F0DE
:1028100091FECDE9120107F011FD1A9001F08EFE34
:10282000D64908602E98C068129008F067FA0246F0
:1028300013902E9974312E98FFF731F82E998860F5
:102840002E988068D0490968401A119008F06EFAF5
:1028500012901A9908F0F6F8139008F0E9F901B20D
:102860002E9841802E988068C74908602E98B0F94C
:1028700002004FF4FA525142139001F05CFA01B297
:102880002E9841802E98B0F902006421139001F037
:102890005DFA01B22E9841802E98C068BA49096845
:1028A000884205D1B9480078401CB849087002E058
:1028B0000021B64801702E98C068B34908602E9870
:1028C000806800280FDD2E988068B0F57A7F0ADADC
:1028D000AE4800781E2806DA01212E9800E006E0B6
:1028E00080F8D01003E000212E9880F8D010A14885
:1028F0000068401C9F490860A5480068052803D16E
:10290000984802F0F2FF09E2A14800680A28FAD1CB
:1029100001F014FE9F490968401A0F9007F0BAFDB4
:10292000974A984BCDE9100107F004FECDE912015A
:1029300007F084FC1A9001F001FE9649086000211E
:1029400093480160874802F0D0FF864802F0E9FF13
:10295000129008F0D3F9024613902E9950312E9818
:10296000FEF774FF2E9948602E984168D0F8C40095
:10297000081A119008F0C2F912901A9908F062F83A
:10298000139008F055F901B22E9801802E984168F5
:10299000C0F8C4102E98B0F900004FF448725142AC
:1029A000139001F0C8F901B22E9801802E98B0F969
:1029B00000000A21139001F0C9F901B22E9801809C
:1029C0002E9890F8D00000287ED02E98B0F9020002
:1029D000119008F093F912902E98406A01461190D8
:1029E000129808F0ABFB13901698014612901398BA
:1029F00007F0B4FF16902E98D0F8A000014608907A
:102A00004FF07E5008F09AFB099007F07BFFCDE96C
:102A10000C012E98B0F90200079007F024FD5E4AE1
:102A20005E4BCDE9080107F085FDCDE90A01DDE93E
:102A30000C2307F07FFDCDE910012E98D0F8A000FF
:102A40000C902E98406A0B900C9908F0B7F90D90F5
:102A500007F058FFCDE90E01DDE9102307F020FC57
:102A6000CDE9120107F0EAFB01462E9841622E984B
:102A7000D0F8AC00014608904FF07E5008F05EFBA5
:102A8000099007F03FFFCDE90C012E988068079070
:102A900007F0E9FC404A414BCDE9080107F04AFD47
:102AA000CDE90A01DDE90C2307F044FDCDE9100171
:102AB0002E98D0F8AC000C902E98006B0B900C99CF
:102AC00008F07CF90D9000E07AE007F01BFFCDE9FB
:102AD0000E01DDE9102307F0E3FBCDE9120107F059
:102AE000ADFB01462E9801632E984068039007F0D5
:102AF000BAFCCDE906012E988068019007F0B3FC7E
:102B0000254A264BCDE9020107F014FDCDE9040169
:102B1000DDE9062307F00CFECDE9080107F08EFB86
:102B20000B9007F0EFFE1E4A1E4BCDE90C0107F09B
:102B300001FDCDE910012E98D0F8CC000D9007F0E2
:102B400092FCCDE90E012FE0FFCF743ECDCC4C3F7F
:102B500052B87E3FA4707D3F0AD7A33BF6287C3F46
:102B60003333733F780600200000A0400AD7A33C0F
:102B70000000484224000020900000203000002087
:102B80008DEDB5A0F7C6B03E34000020380000201F
:102B9000200000202C0000209A9999999999B93F1A
:102BA000FCA9F1D24D62503FDDE9102307F078FB1C
:102BB000CDE9120107F028FC2E99C1F8CC00ADE058
:102BC0002E98B0F90000119008F098F812902E9805
:102BD000406A01461190129808F0B0FA13901698C6
:102BE00001461290139807F0B9FE16902E98D0F86F
:102BF000A400119016981090119908F0DFF8139026
:102C00002E98D0F89C0001460D904FF07E5008F0B1
:102C100095FA0F902E98B0F900000D9008F06EF81C
:102C20000E900F9908F0CAF811902E98D0F89C00D9
:102C30000F902E98406A0E900F9908F0BFF81090F0
:102C4000119907F08BFE1290139907F087FE014649
:102C50002E9841622E98D0F8A80001460F904FF0B0
:102C60007E5008F06BFA11902E984168D0F8CC0095
:102C700008440F9008F042F81090119908F09EF85F
:102C800013902E98D0F8A80011902E98006B1090F9
:102C9000119908F093F81290139907F05FFE01461E
:102CA0002E9801632E984068109008F027F8119034
:102CB0002E98006B01461090119808F03FFA002101
:102CC000129008F047F90DD22E984068119008F044
:102CD00015F812902E98006B01461190129808F08A
:102CE0002DFA0EE02E984068119008F007F8129027
:102CF0002E98006B01461190129808F01FFA80F090
:102D000000409A49139008F025F907D22E984068A0
:102D1000139007F0F3FF01462E9801639448006872
:102D2000401C9349086001F009FC92490968401A67
:102D30000F9007F0AFFB904A904BCDE9100107F0E0
:102D4000F9FBCDE9120107F079FA1A9001F0F6FBD0
:102D5000884908608A4911A8FFF772FA11A807C8C4
:102D600017AB07C38748407A08BB2E98D0F8C0003D
:102D7000C117139000EB916081112E98D0F8C0001C
:102D8000411A2E98C0F8C0102E98D0F8C0001190AB
:102D900007F0B4FF1290199801461190129807F0AD
:102DA000DDFD139007F044FF2E99C1F8C0002E9866
:102DB000D0F8C000C117139000EB91608011119002
:102DC00007F09CFF1290199801461190129808F094
:102DD00023F919902E98D0F8B4000F9007F028FF2F
:102DE000119017980F9007F023FF1090119900F0A1
:102DF000ADFF129007F082FF13902E98D0F8B0002C
:102E000001461290139807F0D9FF2E9908612E9869
:102E1000D0F8B8000F9007F00BFF119018980F90A2
:102E200007F006FF1090119900F090FF129007F044
:102E300065FF80F0004013902E98D0F8B000014656
:102E40001290139807F0BAFF01462E9841612E9810
:102E5000D0F8BC000F9007F0EBFE119019980F907E
:102E600007F0E6FE1090119900F070FF129007F045
:102E700045FF13902E98D0F8B00001461290139899
:102E800007F09CFF01462E9881612E9A40322E99C0
:102E90001C3111A807F07BF911A807C824AB07C3A0
:102EA00024A90EA81A9A07F056F90EA807C827AB4E
:102EB00007C34FF07C5227A90BA807F04CF90BA8C9
:102EC00007C82AAB07C32AA92E98283007F035F87F
:102ED0002E98D0E90823C16940300EC02E9A3432B2
:102EE0002E99103111A807F052F911A807C81BAB91
:102EF00007C31BA90EA81A9A07F02DF90EA807C838
:102F00001EAB07C34FF07C521EA90BA807F023F994
:102F10000BA807C821AB07C321A92E981C3007F0C6
:102F20000CF82E98D0E90523016934300EC02FB07B
:102F300000BD10B5044600231A46194604F11000DE
:102F400006F0F7FF00231A46194604F11C0006F0AC
:102F5000F0FF00231A46194604F1280006F0E9FFA5
:102F600010BD10B50848FFF7B5FB10BD0000484381
:102F700020000020280000208DEDB5A0F7C6B03E4F
:102F800008020020C00000200005002010B5044603
:102F9000FE490888FE49098801F09EFE10BD1CB557
:102FA0000446FA490889694601F0F1FCF749488965
:102FB0000DF1020101F0EBFCF449888901A901F04F
:102FC000E6FCBDF8000000B2F2490881BDF802003D
:102FD00001B2F0484181BDF8040001B2ED488181A1
:102FE0001CBD1CB50446E9494888694601F0CFFC80
:102FF000E64988880DF1020101F0C9FCE349C8885F
:1030000001A901F0C4FCBDF8000000B2E14948800C
:10301000BDF8020001B2DF488180BDF8040001B2B2
:10302000DC48C1801CBD38B50446D849C88969460A
:1030300001F0ADFCBDF8000007F078FE0546D6496A
:1030400007F000FDD5490860D049088A694601F0BB
:103050009EFCBDF8000007F069FE0546CE4907F06A
:10306000F1FCCE494860C949488A694601F08FFCA5
:10307000BDF8000007F05AFE0546C94907F0E2FC1A
:10308000C6498860C149888A694601F080FCBDF85C
:10309000000007F04BFE0546BF4907F0D3FCBF49CF
:1030A000C861BA49C88A694601F071FCBDF80000E0
:1030B00007F03CFE0546B84907F0C4FCB749086272
:1030C000B249088B694601F062FCBDF8000007F0C8
:1030D0002DFE0546B24907F0B5FCB0494862AB4940
:1030E000488B694601F053FCBDF8000007F01EFE56
:1030F0000546A94907F0A6FCA8498863A349888B1F
:10310000694601F044FCBDF8000007F00FFE0546DB
:10311000A14907F097FCA149C8639C49C88B69463F
:1031200001F035FCBDF8000007F000FE05469C49A3
:1031300007F088FC994908649449088C694601F0B5
:1031400026FCBDF8000007F0F1FD0546924907F0A6
:1031500079FC9249C1F8A8008C49488C694601F075
:1031600016FCBDF8000007F0E1FD05468A4907F0AE
:1031700069FC8A49C1F8AC008449888C694601F031
:1031800006FCBDF8000007F0D1FD0546844907F0B4
:1031900059FC8249C1F8B0007C49C88C694601F0ED
:1031A000F6FBBDF8000007F0C1FD05467A4907F0BF
:1031B00049FC7A4948657549088D694601F0E7FB85
:1031C000BDF8000007F0B2FD0546734907F03AFC70
:1031D000724988656D49488D694601F0D8FBBDF894
:1031E000000007F0A3FD05466D4907F02BFC6B4975
:1031F000C8656649888D694601F0C9FBBDF80000C5
:1032000007F094FD0546644907F01CFC6349086714
:103210005E49C88D694601F0BAFBBDF8000007F0B1
:1032200085FD05465C4907F00DFC5C494867574938
:10323000088E694601F0ABFBBDF8000007F076FD93
:103240000546574907F0FEFB5449886738BD10B55D
:1032500004462046FFF7E7FE2046FFF7C2FE204661
:10326000FFF79DFE10BD70B505464C4908684A49F8
:1032700007F0A4FD064607F021FD84B24349C88942
:10328000214601F029FD45494868434907F096FD6C
:10329000064607F013FD84B23C49088A214601F036
:1032A0001BFD3E4988683E4907F088FD064607F049
:1032B00005FD84B23549488A214601F00DFD3749A4
:1032C000C869354907F07AFD064607F0F7FC84B275
:1032D0002E49888A214601F0FFFC3049086A2E49B0
:1032E00007F06CFD064607F0E9FC84B22749C88A5E
:1032F000214601F0F1FC2949486A294907F05EFDA1
:10330000064607F0DBFC84B22049088B214601F019
:10331000E3FC2249886B204907F050FD064607F080
:10332000CDFC84B21949488B214601F0D5FC1B49DC
:10333000C86B194907F042FD064607F0BFFC84B28E
:103340001249888B214601F0C7FC1449086C1449C6
:1033500007F034FD064607F0B1FC84B20B49C88B78
:10336000214601F0B9FC0D49D1F8A8000A4907F03F
:1033700025FD064607F0A2FC84B20449088C2146CC
:1033800001F0AAFC0549D1F8AC000BE00EB300082F
:103390003C000020200600200000C842140100204C
:1033A00000007A445E4907F009FD064607F086FCF6
:1033B00084B25C49488C214601F08EFC5A49D1F810
:1033C000B0005A4907F0FAFC064607F077FC84B2D1
:1033D0005449888C214601F07FFC5349486D50497F
:1033E00007F0ECFC064607F069FC84B24D49C88C36
:1033F000214601F071FC4C49886D494907F0DEFC1B
:10340000064607F05BFC84B24649088D214601F070
:1034100063FC4549C86D454907F0D0FC064607F0F6
:103420004DFC84B23F49488D214601F055FC3E4990
:10343000086F3B4907F0C2FC064607F03FFC84B228
:103440003849888D214601F047FC3749486F344997
:1034500007F0B4FC064607F031FC84B23149C88D50
:10346000214601F039FC3049886F304907F0A6FC4D
:10347000064607F023FC84B22A49088E214601F053
:103480002BFC70BD38B5044626490888694601F012
:103490007EFABDF8000038BD10B504462046FFF79F
:1034A000F1FF23490988884202D02046FFF7DBFE5E
:1034B0002046FFF7CCFE2046FFF768FD10BD10B593
:1034C00004461C4A528891B2164A508801F004FC06
:1034D000184A928891B2134A908801F0FDFB154A70
:1034E000D28891B20F4AD08801F0F6FB10BD10B51A
:1034F0000446104A128991B20A4A108901F0ECFB85
:103500000C4A528991B2074A508901F0E5FB094AF9
:10351000928991B2034A908901F0DEFB10BD000050
:103520000000C8420EB300081401002000007A44D5
:103530003C000020200600202DE9F05F04460E46E6
:1035400017460021A06807F03FFB3AD0002138461B
:1035500007F03AFB35D0A06920F00041C1F1FF41EE
:10356000C90F19B100250020A06108E06169701A37
:1035700007F0C4FB8046394607F064FA0546284642
:10358000A16907F0DBFD82463946454807F0E6F9B8
:1035900083465946384607F055FA8146514607F0AA
:1035A0000DFC8046A16907F0D9F905466661A56161
:1035B0002946A06807F002FC804607F039FBBDE809
:1035C000F09F0020FBE72DE9F04704460E46154624
:1035D0000021606807F0F8FA22D00021284607F0A1
:1035E000F3FA1DD0304607F089FB8146616807F089
:1035F000E5FB8046294607F0E1FB0746216907F015
:10360000ADF92061E06880F0004702463946206944
:1036100000F057FB2061206907F00AFBBDE8F08746
:103620000020FBE72DE9F04104460D46284607F04F
:1036300065FB0746216807F0C1FB064607F0F8FA6C
:10364000BDE8F0812DE9F04104460D4616462946B5
:103650002046FFF7E7FF0746324629462046FFF798
:10366000B2FF0744324629462046FFF765FF38443B
:10367000BDE8F0812DE9F04104460D461646294685
:103680002046FFF7CFFF0746324629462046FFF780
:103690009AFF3844BDE8F0810021016170470000C5
:1036A0000361023C30B50146002013E000FB00F24C
:1036B000193A32235A4302F6C41242435A4340F69F
:1036C000C41392FBF3F213B201F11C0222F8103082
:1036D000421CD0B20728E9DB00202EE000EB80047A
:1036E0006400A4F132020123002A00DD3223002A03
:1036F00000DA3223002503FB03F495FBF4F4643471
:1037000054430A2594FBF5F404F5FA7425B201F14B
:103710002A0424F8105034F910404FF448756C43D3
:103720004FF47A7594FBF5F404F24C4425B201F1A0
:103730002A0424F81050421CD0B20C28CEDB30BD35
:1037400010B504462046FFF7ADFF204610BD2DE919
:10375000F05F0446002060E034F81010A1F2DC5164
:10376000002904DD34F81010A1F2DC5104E034F833
:10377000101040F2DC52511AB1F5FA7F10DA34F829
:103780001010A1F2DC51002904DD34F81010A1F270
:10379000DC5107E034F8101040F2DC52511A01E01D
:1037A0004FF4FA710E4602281FD0642196FBF1F502
:1037B00004F11C016A1C31F9122031F91510511A5B
:1037C00005EBC50202EB0512A6EB8202514364220F
:1037D00091FBF2F204F11C0131F8151011440AB208
:1037E00004F1140121F8102005E071420AB204F13D
:1037F000140121F8102034F8101040F2DC529142EC
:1038000009DA04F1140131F8101049420AB204F146
:10381000140121F81020411CC8B203289CDBE08869
:103820004FF4FA6240F2E24100F07AFA0646A6F25C
:10383000E2404FF47A71484340F2EE21B0FBF1F6DA
:10384000642096FBF0F58648007B08BB04F12A0053
:10385000691C30F9111030F91500081A05EBC50183
:1038600001EB0511A6EB81014843642190FBF1F1C6
:1038700004F12A0030F81500084401B26183E088A1
:103880004FF4FA6240F2E24100F04AFA01B2618379
:10389000B4F91800002802DDB4F9180002E0B4F908
:1038A00018004042462833DAE08840F2E24188427C
:1038B0002EDD6C4AD2F89812906807F03FFC8046E3
:1038C00007F0B6F907B217F1B40F02DC07F5B470D0
:1038D00007B2B42F02DBA7F5B47007B2784207B283
:1038E000384607F00BFA83465F48016F584607F0E9
:1038F00065FA8146B4F9180007F000FA8246494695
:1039000007F01CFC804607F093F901B2218304E024
:10391000544880685349C1F89802BDE8F09F0146B9
:10392000002034E031F81020B2F5617F04DB31F87B
:103930001020B2F5FA6F00DD2BE031F8102040F2D4
:10394000E2439A4207DA494A125C494B1B781A4310
:10395000474B1A7006E0454A135C454A12789A4371
:10396000434B1A7031F81020B2F5E16F07DD414A80
:10397000125C3F4B1B781A433D4B1A7006E03D4AE0
:10398000135C3B4A12789A43394B1A70401C042846
:10399000C8DB00BF364A12784AB1374A1278FA2A91
:1039A0000ADA354A1278521C334B1A7004E00022AE
:1039B000314B1A702E4B1A702F4A1278642A29D173
:1039C000274A527A6AB12A4A127802F01002E2B10A
:1039D000274A127802F04002BAB10023204A5372FB
:1039E00013E0234A127802F0200272B1204A1278C2
:1039F00002F040024AB11A4A127A1AB10123184A57
:103A0000537202E001221D4B5A700022184B1A70AB
:103A1000194B1A7070471A49498900291ADD18494B
:103A2000498940F63402914214DA1549498900293E
:103A300005DD1349498940F2145291420ADB1049CD
:103A40004989B1F5AF6F04DD0D494989B1F5C86FFA
:103A500000DB00BF704700B50948FFF771FE00BDED
:103A6000C0000020080200201401002006B3000856
:103A70003F0000200AB300083E000020200600207E
:103A8000D405002010B57648FCF7BEFE7448FDF75B
:103A9000DAFB10BD70B57348FEF7E2FA7248008990
:103AA000002809DD7048008940F21451884203DA89
:103AB00000206E4908602DE06B480089B0F5AF6FBB
:103AC00028DD69480089B0F5C86F23DA6548C16A06
:103AD0004FF08B4007F032FB0546624A916A506A0C
:103AE0002A4600F06DF90446204606F02DF90446FA
:103AF0005E480168204607F02DFA01D25B48046059
:103B00005B495A48006807F025FA02D2012059495A
:103B1000087000BF5348FEF737FB53484089002820
:103B200013DD5148408940F2145188420DDA4E4865
:103B30000089002809DD4C480089884205DA002008
:103B40004D4908604B49087021E047484089B0F56D
:103B5000AF6F0ADD44484089B0F5C86F05DA4648C2
:103B60000068401C4449086011E03F480089B0F5F6
:103B7000AF6F0CDD3C480089B0F5C86F07DA3D48EF
:103B8000007820B13C480068401C3B490860394837
:103B9000037836480268384801683848FDF7DFFF87
:103BA0003748FEF70EFE70BD10B53448FDF749FFEB
:103BB00010BD10B500F0D4FD10BD10B52A48FFF7B8
:103BC000C6FD2948FFF7ABFE2748FFF724FF24482E
:103BD000FDF703FD2B48FCF708FB2848FEF7B6F974
:103BE0002648FEF7B4F910BD10B527480088012813
:103BF00004DBFFF747FF0020234908802248408864
:103C0000022804DBFFF746FF00201F4948801E48BA
:103C10008088052804DBFFF7C7FF00201A49888049
:103C20001948C0880A2804DBFFF7C3FF00201649A3
:103C3000C88015480089142804DBFFF7BEFF002068
:103C40001149088110BD00210181C180818041801E
:103C50000180704700B50C48FFF7F5FF00BD00007C
:103C6000D000002008020020D405002044000020DD
:103C70000000C8424800002040000020140100203D
:103C800000050020C00000201606002010B50446E4
:103C9000204605F02EF908B1002010BD4FF07E51EE
:103CA000204607F057F901D86748F6E767492046EC
:103CB00007F050F801D86648EFE7204605F0ECF928
:103CC000EBE72DE9F04106460C461546304605F077
:103CD00010F950B12946204606F040FE07464FF045
:103CE0007C5107F06BF8BDE8F0812146304607F0C3
:103CF00031F801D22046F6E72946304607F02AF986
:103D000001D22846EFE73046EDE703468B4201DA61
:103D100008467047934201DD1046FAE71846F8E777
:103D200003468B4201DA08467047934201DD104694
:103D3000FAE71846F8E703468B4201DA084670476F
:103D4000934201DD1046FAE71846F8E7002801DD46
:103D5000024600E042428A4201DA002006E00028E2
:103D600001DD401A02E0002800DA0844704710B56F
:103D700004463849204607F021F810BD10B5044626
:103D80003549204607F01AF810BD10B50446214603
:103D9000204607F013F810BD2DE9F04105460C460A
:103DA0002046FFF7F2FF07462846FFF7EEFF804662
:103DB000394606F0D3FD064605F0C6FFBDE8F081A2
:103DC0002DE9F05F06460C4615462846FFF7DDFF55
:103DD00081462046FFF7D9FF82463046FFF7D5FFE0
:103DE0008346514606F0BAFD8046494606F0B6FDC8
:103DF000074605F0A9FFBDE8F09F2DE9FE4F0746F5
:103E00000C4615461E463046FFF7BFFF0290284677
:103E1000FFF7BBFF01902046FFF7B7FF0090384641
:103E2000FFF7B3FF8346009906F098FD824601999B
:103E300006F094FD8146029906F090FD804605F05B
:103E400083FFBDE8FE8F0000DB0FC93F000080BF8D
:103E5000DB0FC9BF34FA8E3CE12E654270B50446D3
:103E600094E80F00FFF7C9FF05462946206806F0D1
:103E7000E9FD20602946606806F0E4FD606029469F
:103E8000A06806F0DFFDA0602946E06806F0DAFDD4
:103E9000E06070BD2DE9F04F85B004460D46A16885
:103EA000084606F08BFF0746D4E9020106F086FFBC
:103EB00080466168084606F081FF8146D4E9010129
:103EC00006F07CFF8246E168606806F077FF0490A8
:103ED000D4E9000106F072FF0390A168206806F0A3
:103EE0006DFF0290E168206806F068FF0190E168CC
:103EF000084606F063FF00903846009906F02EFD54
:103F000083464FF0804106F059FF06464FF07E5140
:103F100007F082F828605046019907F00FF906462D
:103F20004FF0804106F04AFF68600299049806F05D
:103F300015FD06464FF0804106F040FFA860504650
:103F4000019906F00BFD06464FF0804106F036FF62
:103F5000E8604846009906F001FD83464FF0804135
:103F600006F02CFF06464FF07E5107F055F8286109
:103F70004046039907F0E2F806464FF0804106F00C
:103F80001DFF68610299049807F0D8F806464FF0C3
:103F9000804106F013FFA8614046039906F0DEFC5D
:103FA00006464FF0804106F009FFE8613946484671
:103FB00006F0D4FC83464FF0804106F0FFFE064633
:103FC0004FF07E5107F028F8286205B0BDE8F08F69
:103FD0002DE9F04704460D46A168206806F0EEFE84
:103FE0000746E168606806F0E9FE8046394607F05A
:103FF000A5F806464FF0804106F0E0FE2860D4E9BF
:10400000020106F0DBFE0746D4E9000106F0D6FE09
:104010008046394606F0A2FC06464FF0804106F085
:10402000CDFE6860A168084606F0C8FE804661685B
:10403000084606F0C3FE8146414606F08FFC07465F
:104040004FF0804106F0BAFE06464FF07E5106F072
:10405000E3FFA860BDE8F08770B58CB006460C465B
:1040600003AD284605F060FF054605F10C0005F09C
:104070005BFFA0F10C0505F1180005F055FFA0F15C
:10408000180500BFA06880F00040A06003A930467A
:10409000FFF700FF224603A9684605F06BFF9DE885
:1040A000070084E80700A06880F00040A0600CB022
:1040B00070BD2DE9F04F8FB00446894692465046B8
:1040C00006F020FCCDE90801D9F80810E06806F0F8
:1040D00075FE0490D9F80410A06806F06FFE0390F6
:1040E000606880F000400190D9F8001006F066FE8C
:1040F0000290039907F022F88346049907F01EF80E
:10410000059006F0FFFB07460022F74B06F012FA77
:10411000CDE90601DDE9082306F00CFA05460E4656
:10412000206806F0EFFB2A463346CDE90A0106F087
:10413000B7F8CDE90C0106F081F82060504606F092
:10414000E1FBCDE90601D9F80410E06806F036FE7F
:104150000490D9F80810A06806F030FE0390D9F852
:104160000010206806F02AFE0290039906F0F6FB84
:104170008346049906F0E2FF059006F0C3FB07466C
:104180000022D94B06F0D6F90546DDE9062306F0F4
:10419000D1F9CDE90A01606806F0B4FBCDE9080168
:1041A000DDE90A2306F07CF8CDE90C0106F046F8BB
:1041B0006060504606F0A6FBCDE90801D9F8001072
:1041C000E06806F0FBFD0490D9F80810606806F07E
:1041D000F5FD0390D9F80410206806F0EFFD029079
:1041E000039906F0ABFF8346049906F0B7FB0590F0
:1041F00006F088FB0022BC4BCDE9060106F09AF9D7
:104200000746DDE9082306F095F9CDE90A01A06823
:1042100006F078FB0546DDE90A2306F041F8CDE912
:104220000C0106F00BF8A060504606F06BFBCDE9E0
:104230000601D9F80010A06806F0C0FD0390D9F877
:104240000410606806F0BAFD8346D9F808102068AB
:1042500006F0B4FD5946029006F080FB80460399B3
:1042600006F06CFF074606F04DFB054600229E4B0C
:1042700006F060F9CDE90401DDE9062306F05AF9FC
:10428000CDE90A01E06806F03DFBCDE90801DDE972
:104290000A2306F005F8CDE90C0105F0CFFFE06038
:1042A0000FB0BDE8F08F2DE9F04F85B004460D4604
:1042B00016461F464FF07C51284606F07FFD824689
:1042C00005F0ACF880464FF07C51304606F076FDA4
:1042D000824605F0A3F881464FF07C51384606F03F
:1042E0006DFD824605F09AF804904FF07C51284607
:1042F00006F064FD824605F061FC03904FF07C51AE
:10430000304606F05BFD824605F058FC02904FF007
:104310007C51384606F052FD824605F04FFC019074
:10432000DDE9021006F04AFD0090019906F046FD15
:1043300082464946404606F041FD0090049906F049
:104340003DFD8346514606F009FB20604046029938
:1043500006F034FD0090019906F030FD8246494692
:10436000039806F02BFD0090049906F027FD834684
:10437000514606F0E3FE60604946039806F01EFDD4
:104380000090019906F01AFD82464046029906F017
:1043900015FD0090049906F011FD8346514606F084
:1043A000DDFAA060DDE9021006F008FD0090049936
:1043B00006F004FD82464946404606F0FFFC0090A8
:1043C000019906F0FBFC8346514606F0B7FEE0601B
:1043D00005B0BDE8F08F2DE9FE4F04460D461646A8
:1043E0001F468DB3A168084606F0E8FC019061689D
:1043F000084606F0E3FC0090019906F0AFFA834608
:104400004FF0804106F0DAFC82464FF07E5106F014
:1044100003FE8146D4E9020106F0D0FC8346D4E9CC
:10442000000106F0CBFC5946019006F097FA82464F
:104430004FF0804106F0C2FC4946029004F0C0FEF5
:104440008046FFF79BFC2860C6B1E168606806F013
:10445000B5FC8346A168206806F0B0FC594602907E
:1044600006F06CFE82464FF0804106F0A7FC8146C4
:10447000FFF70CFC8046FFF781FC30608FB361686A
:10448000084606F09BFC01902168084606F096FC61
:104490000090019906F062FA83464FF0804106F0E1
:1044A0008DFC82464FF07E5106F048FE0290E16896
:1044B000206806F083FC8346D4E9010106F07EFC07
:1044C0005946019006F03AFE82464FF0804106F0D0
:1044D00075FC8146029904F073FE8046FFF74EFC9E
:1044E0003860BDE8FE8F00000000E03F00B585B0F9
:1044F000684602F0CCFF50490098B0FBF1F04F49FC
:10450000086005B000BD4E480068401C4C4908607A
:104510004C480088401C4B49088008464088401C95
:10452000488008468088401C88800846C088401C17
:10453000C88008460089401C0881704700BF404879
:1045400001684FF0E02082693D4800688142F6D161
:104550003A48006800EB4003C3EBC010C2EBC00058
:10456000364B1B68B0FBF3F001EB4103C3EBC11307
:1045700000EBC300704730B50446FFF7DFFF054688
:1045800000BFFFF7DBFF401BA042FAD330BD10B5E0
:10459000044603E04FF47A70FFF7EDFF2000A4F12A
:1045A0000104F7D110BD70B54FF4407001F022FE48
:1045B000FFF79CFF244800684FF47A72B0FBF2F1D9
:1045C000481EB0F1807F00D31BE0481E4FF0E02270
:1045D000506150170F22002807DA13071D0E1B4BDE
:1045E00000F00F04241F1D5503E013071C0E184B89
:1045F0001C5400BF00204FF0E022906107201061A2
:1046000000BF00F084FB01F01BFCFB2204211148D9
:1046100001F0D7F945F6C05001F01AFB4FF41650DF
:1046200001F0B0FC00F056FD00F094F802F0C1F982
:1046300000F0CDFA70BD000040420F004C00002099
:104640005000002016060020AC00002018ED00E00D
:1046500000E400E0A006002008B50121084602F0B1
:1046600076FF01214FF4017002F07EFF1020ADF8BB
:10467000000000208DF803006946614802F0B8FC94
:1046800008BD00B591B05F4802F04AF85E48069058
:104690005E480790002008900120099000200A90B1
:1046A00080200B9040000C9080000D9020200E90F8
:1046B00000020F900020109006A9524802F0D2F894
:1046C0000121504802F0F9F8002001908DF808000F
:1046D00001208DF809004FF4602003900020049021
:1046E00001208DF8140001A947484C3801F017FE4D
:1046F0004FF4404002F09CFE052301220421424871
:104700004C3801F0A4FE01213F484C3801F03EFE38
:1047100001213D484C3801F02EFE3B484C3801F059
:104720004CFE00BF38484C3801F04CFE0028F9D14F
:1047300035484C3801F050FE00BF33484C3801F08A
:1047400050FE0028F9D101212F484C3801F053FECA
:1047500011B000BD10B5FFF77FFFFFF792FF10BD4E
:104760002DE9F84F2948008806F0E0FA009006F09D
:10477000C9F80646264A274B05F0DCFE04460D46DE
:104780002548006806F0BEF80646244A244B05F08A
:10479000D1FE804622462B4605F082FD824605F07A
:1047A0004DFD1D4908604FF08B411B48006806F025
:1047B00049F9824606F0A6F806464FF06632194BD4
:1047C00005F0B8FE804600224FF0804305F0B2FEAF
:1047D000044605F033FD144908600846006806F0F9
:1047E00091F804460022114B05F068FE03D2012126
:1047F0000F48417302E000210D484173BDE8F88F76
:1048000000080140080002404C24014054000020F0
:10481000FCA9F1D24D62603F58000020560E2DB227
:104820009DEFEF3F66660A405C00002000000C40F0
:10483000C0000020034606210622F7480188F748F9
:104840000288ABB1012B1BD13AB94EF6EE60814222
:1048500001D1002070470120FCE739B94EF6EE6027
:10486000824201D10120F5E70020F3E7AB20F1E718
:1048700009B90020EEE70AB90120EBE7AB20E9E730
:104880000020E7E770B5042600240120FFF7D2FFDF
:104890000446AB2C06D1E04800EB8420E0490860D8
:1048A000AB2070BDDC4800EB8420DD490860601C53
:1048B000D949891E01EB80250CE0D94800680068C1
:1048C000401C10B904263046EBE7D5480068001DAF
:1048D000D3490860D2480068A842EED38020E0E7C0
:1048E00010B50424CC4802F0A9F80446042C01D0E9
:1048F000204610BD0021C84802F0A3F90446042C4C
:1049000001D02046F5E7C54802F098F80446204655
:10491000EFE72DE9F04104460F4604250026DFF8B5
:1049200004830120FFF786FF0646AB2E01D1BDE8C8
:10493000F081701CB849891E01EB802821E0B8483D
:1049400000680068401CB8B93946B548006802F0F4
:1049500078F90546042D01D02846E8E72146B048FD
:104960000068801C02F06DF90546AD480068001D26
:10497000AB4908602846DAE7A9480068001DA84945
:104980000860A74800684045D9D38020CFE72DE9CB
:10499000F04706460F46002545F255584FF00109ED
:1049A0009D4CA2460020FFF745FF0546AB2D01D1E7
:1049B000BDE8F087984800EB852A99480068841E76
:1049C0000AE0B4F80080B04505D134F8020C388014
:1049D0004FF0000904E0241F0AF102008442F0D8DD
:1049E00000BF4846E4E72DE9F0474FF0060A0626E7
:1049F00000250027A8464FF0FF398748B0F800A0EF
:104A0000864806885FEA0A0075D0A0F56E40EE3849
:104A100058B3A0F58850113800286DD146B97E48AA
:104A200002F00CF80446042C1ED02046BDE8F087A6
:104A30004EF6EE60864210D1774801F0FFFF044643
:104A4000042C01D02046F1E70021744802F0F9F867
:104A50000446042C08D02046E8E7FFF741FF04464F
:104A6000042C01D02046E1E7AEE07EBB002522E029
:104A70006948C0886C4931F81510884201D10FFA95
:104A800085F94D4515D0684931F815006749FFF79C
:104A90007EFF8046B8F1010F0BD0634931F8150055
:104AA00062490988FFF735FF0746042F01D03846D1
:104AB000BCE7681C85B2192DDADB0021564802F0EC
:104AC000C0F80446042C02D02046AFE707E0534864
:104AD00001F0B4FF0446042C1FD02046A6E74FF691
:104AE000FF70864212D14D4801F0A8FF0446042C05
:104AF00003D020469AE711E05EE00021464802F02C
:104B0000A0F80446042C08D020468FE7FFF7E8FE03
:104B10000446042C01D0204688E755E036B9FFF75B
:104B2000DFFE0446042C46D020467FE74FF6FF7098
:104B3000864207D1394801F081FF0446042C3AD05F
:104B4000204673E7002523E03448801D008836495D
:104B500031F81510884201D10FFA85F94D4515D06D
:104B6000314931F815003149FFF711FF8046B8F19E
:104B7000010F0BD02C4931F815002C490988FFF79B
:104B8000C8FE0746042F01D038464FE7681C85B29F
:104B9000192DD9DB0021214802F053F80446042CDA
:104BA00001D0204642E71C4801F048FF0446042C8F
:104BB00001D020463AE707E0FFF792FE0446042CB6
:104BC00001D0204632E700BF00BF04202EE710B519
:104BD000FFF709FF0446FFF755FE204610BD2DE9FB
:104BE000F84F074689460425DFF830A0AAF1010AEC
:104BF000094800904FF00008002400264FF0000BF9
:104C00000020FFF717FE8046B8F1010F10D1DFF842
:104C100008A00248009016E0000001080004010806
:104C200064000020FF0701080EB3000860000020A8
:104C3000B8F1000F04D1DFF8C4A03148009002E0C1
:104C4000AB20BDE8F88F4EF6EE61504601F0F9FF5B
:104C50000546042D01D02846F3E7FFF713FE494629
:104C60003846FFF756FE0646042E01D03046E8E7E8
:104C700000241CE0234830F81400B84215D0214924
:104C800031F814002049FFF782FE8346BBF1010F83
:104C90000BD01C4931F814001B490988FFF739FE75
:104CA0000646042E01D03046CBE7601C84B2192C96
:104CB000E0DB009801F0C2FE0546042D01D0284635
:104CC000BFE70021504601F0BCFF0546042D01D08E
:104CD0002846B6E72846B4E770B505460E460024D8
:104CE00031462846FFF715FE0446802C04D1314694
:104CF0002846FFF774FF0446204670BD00040108F3
:104D0000000001080EB3000860000020704708B5DD
:104D10000121082002F028FC4020ADF8000003200B
:104D20008DF8020014208DF803006946E84802F06F
:104D30005FF98020ADF8000003208DF802001420F8
:104D40008DF803006946E24802F052F908BD704749
:104D500000B501464020DE4A143210600846FFF7D5
:104D6000F6FF8020DA4A143210600846FFF7EFFFA2
:104D70004020D74A103210600846FFF7E8FF802035
:104D8000D34A103210600846FFF7E1FF00BD00B5BE
:104D900001464020CE4A143210600846FFF7D7FF84
:104DA0008020CB4A103210600846FFF7D0FF402029
:104DB000C74A103210600846FFF7C9FFC4480830E0
:104DC000006800F0800040B14020C14A14321060F9
:104DD0000846FFF7BCFF002000BD4020BC4A14324B
:104DE00010600846FFF7B3FF0120F5E710B5024653
:104DF00008231DE04020B64C143420601046FFF715
:104E0000A6FF01F0800018B18020241F206003E07D
:104E10008020AF4C143420604806010E1046FFF786
:104E200096FF4020AA4C103420601046FFF78FFFF9
:104E30001800A3F10104E3B2DCD14020A44C1434E7
:104E4000206010BD00B501468020A14A10321060DC
:104E5000402010600846FFF77AFF9D480830006840
:104E600008B9012000E0002000F0800008B1002017
:104E700000BD8020964A143210600846FFF767FF95
:104E800093480830006800F0800008B10020EFE788
:104E900080208F4A143210600846FFF758FF012027
:104EA000E6E7F0B506460F4614461D463046FFF7C6
:104EB000C9FF08B90020F0BD39463046FFF796FF1C
:104EC0003046FFF764FF20B93046FFF741FF00206E
:104ED000F1E721463046FFF789FF3046FFF757FFDD
:104EE00029463046FFF782FF3046FFF750FF304635
:104EF000FFF72EFF0120DEE700B501464020744A8F
:104F0000143210600846FFF722FF8020704A1032EA
:104F100010600846FFF71BFF40206D4A10321060FA
:104F20000846FFF714FF4020694A14321060084613
:104F3000FFF70DFF00BD10B50246082300218020B9
:104F4000634C1034206016E04806010E4020604C8F
:104F5000143420601046FFF7FAFE4020241F206022
:104F60001046FFF7F4FE5A480830006800F0800051
:104F700008B141F001011800A3F10104E3B2E3D14B
:104F80004020534C14342060084610BDF0B506464E
:104F90000C4615463046FFF755FF08B90020F0BD16
:104FA00021463046FFF722FF3046FFF7F0FE20B9DA
:104FB0003046FFF7CDFE0020F1E729463046FFF7E7
:104FC00015FF3046FFF7E3FE3046FFF73BFF601C5E
:104FD000C1B23046FFF70AFF3046FFF7D8FE304631
:104FE000FFF7A9FF07463046FFF786FF3046FFF779
:104FF000AFFE3846D3E700B501464020344A1432AC
:1050000010600846FFF7A3FE8020314A143210607A
:105010000846FFF79CFE40202D4A103210600846DB
:10502000FFF795FE40202A4A143210600846FFF729
:105030008EFE00BD2DE9F04381460E4617461C4604
:10504000DDF81C80B8F1010F02DA0020BDE8F08322
:105050004846FFF7F7FE08B90020F7E73146484613
:10506000FFF7C4FE4846FFF792FE20B94846FFF717
:105070006FFE0020EAE739464846FFF7B7FE48468C
:10508000FFF785FE4846FFF7DDFE701CC1B24846BB
:10509000FFF7ACFE4846FFF77AFE012509E04846D7
:1050A000FFF749FF04F8010B4846FFF7A4FF681C0F
:1050B000C5B24545F3DB4846FFF73DFF04F8010B59
:1050C0004846FFF719FF4846FFF742FE0120BDE7BB
:1050D000000C014008B50121102002F045FA4FF400
:1050E0008040ADF8000010208DF8030003208DF8FB
:1050F00002006946114801F07BFF08BD10B5044667
:105100004FF480410D4802F020F810BD10B5044660
:105110004FF40051094802F018F810BD10B50446CC
:105120004FF48041064802F012F810BD10B5044655
:105130004FF40051034802F00AF810BD001001407E
:1051400000080140000C014010B504462046FFF75E
:10515000DDFD0446A01C04F004FF841E04F10800D9
:1051600004F0FFFEA0F1080404F11C0004F0DCFED2
:10517000A0F11C0404F1280004F0D6FEA0F12804DC
:1051800004F1340004F0D0FEA0F13404204610BD38
:1051900030B50346C822002007E000BF1400A2F18A
:1051A0000105AAB2FAD1441CE0B28842F5DB30BD59
:1051B0002DE9F04107460D4616462A2E15D006DC8D
:1051C000052E0CD00A2E0CD0142E16D10BE0622E18
:1051D0000DD0BC2E0DD0B6F5807F0ED10BE006248D
:1051E0000DE005240BE0042409E0032407E0022479
:1051F00005E0012403E0002401E0022400BF00BF19
:1052000080236B22D0213846FFF74BFE052138461C
:10521000FFF7BEFF4FF47A7090FBF5F0401E00F0F0
:10522000FF0843461922D0213846FFF73AFE0323F0
:105230006B22D0213846FFF734FE02233722D021DB
:105240003846FFF72EFE23461A22D0213846FFF7B4
:1052500028FE18231B22D0213846FFF722FE1023F8
:105260001C22D0213846FFF71CFEBDE8F0812DE955
:10527000F0410446207800286AD0EA48007800F01F
:10528000010048B9E74803F04DFE28B1E64804F0B4
:105290004BFEE448AFF30080E448008880B9002367
:1052A0001A461946A01C04F061FE00231A4619464E
:1052B000DD4804F03EFE0120DC490880BDE8F081B5
:1052C00004F11C01D84804F038FED8480088C828EA
:1052D00039D1D648008805F029FD0646D24908682C
:1052E000314605F0AFFB054605F0A2FC00B2608038
:1052F000CE48008805F01AFD0646CB49486831467D
:1053000005F0A0FB054605F093FC01B2A180C7485B
:10531000008805F00BFD0746C3498868394605F04B
:1053200091FB06464FF08B4105F008FF054605F05E
:105330007FFC01B2E1800020BC4908802070BC489D
:10534000FEF7BDF8BAE7B9480088401CB7490880A5
:1053500000BFB3E72DE9FC4104463C22D0212046A2
:10536000FFF714FEA0733B22D0212046FFF70EFE6C
:10537000E073A17BE07B41EA00206188401A00B223
:10538000ADF800003E22D0212046FFF7FFFD20743B
:105390003D22D0212046FFF7F9FD6074217C607C1E
:1053A00041EA0021A088081A00B2ADF802004022AC
:1053B000D0212046FFF7EAFDA0743F22D0212046ED
:1053C000FFF7E4FDE074A17CE07C41EA0021E08885
:1053D000081A00B2ADF80400BDF9040005F08EFC17
:1053E0000546BDF9020005F089FC0646BDF900003E
:1053F00005F084FC07462B463246394604F11C0072
:1054000004F097FD2046FFF732FFBDE8FC8170B540
:105410000446607800286ED08648007800F00100CD
:1054200048B9844803F07EFD28B1834804F07CFD30
:105430008048AFF300808148008880B900231A4675
:10544000194604F1080004F091FD00231A4619469C
:10545000794804F06EFD01207849088070BD04F1A0
:105460002801754804F069FD74480088C8283DD1BA
:105470007248008805F05AFC06466F4908683146B4
:1054800005F0E0FA054605F0D3FB00B220816B4839
:10549000008805F04BFC064667494868314605F030
:1054A000D1FA054605F0C4FB01B26181634800886A
:1054B00005F03CFC064660498868314605F0C2FAB2
:1054C000054605F0B5FB01B2A18100205B490880CB
:1054D00060705B48007A28B9012159484172012067
:1054E000574908725248FEF702F8B7E75348008858
:1054F000401C5249088000BFB0E72DE9FC4104463A
:105500004422D0212046FFF741FD20754322D021BF
:105510002046FFF73BFD6075217D607D41EA00205C
:105520002189401A00B2ADF800004622D021204661
:10553000FFF72CFDA0754522D0212046FFF726FD60
:10554000E075A17DE07D41EA00216089081A00B282
:10555000ADF802004822D0212046FFF717FD207643
:105560004722D0212046FFF711FD6076217E607E24
:1055700041EA0021A089081A00B2ADF80400BDF983
:10558000040005F0BBFB0546BDF9020005F0B6FBC3
:105590000646BDF9000005F0B1FB07462B46324632
:1055A000394604F1280004F0C4FC2046FFF72FFF21
:1055B000BDE8FC8110B5D1E90834CA6980E81C0057
:1055C00010BD10B5D1E90B348A6A80E81C0010BD0B
:1055D0000FB470B505460C461A49069805F0EEFB67
:1055E0000646FEF7C4FB60631649079805F0E6FB24
:1055F0000646FEF7BCFBA0631249089805F0DEFBE7
:105600000646FEF7B4FBE063D4E90E12606B85E852
:10561000070070BC5DF814FB10B50B48FFF794FD54
:1056200010BD00006C00002060060020700000200B
:105630003A000020740000206C0600207800002052
:10564000C00000208DC1793D2006002010B5044621
:1056500001235822EE212046FFF723FC10BD7CB524
:105660000546002001900026002418E0022000904A
:10567000A02000EB4400C2B201ABEE212846FFF7A8
:10568000D9FC3044C6B29DF805009DF8041040EAEC
:10569000012105F1100020F81410601CC4B2082C80
:1056A000E4DB082E01D101207CBD0020FCE710B511
:1056B000044601231E22EE212046FFF7F2FB10BD17
:1056C00010B504460A20FEF762FF2046FFF7EFFF01
:1056D0000320FEF75CFF2046FFF7C1FF2046FFF7DF
:1056E000B5FF10BD10B5044601234822EE21204627
:1056F000FFF7D7FB10BD38B50446032004F12003A3
:105700000022EE2100902046FFF794FC38BD2DE9E1
:10571000F04F8BB004464FF00008C14694F82000CB
:1057200001042120005D41EA00202221095D084397
:10573000A06094F8230001042420005D41EA0020C9
:105740002521095D0843E060608BA168A1EB00257D
:10575000A08A00040022218B4FEAE57CA1FB05BE54
:1057600002FB05E301FB0C334FEADB1141EA436125
:10577000401842EBE312CDE90802608A4FEAC030DC
:105780004246E18A4FEAE57CA1FB05BE02FB05E348
:1057900001FB0C334FEA1B2141EA0361401842EB45
:1057A0002322CDE90602A08B42464FEAE573A0FB17
:1057B000051C02FB05C200FB03204FEA402242EA1F
:1057C000D1504FF4FA614718B7F5FA6F19DAA7F517
:1057D000FA66764306EB86004FEA600806EB860021
:1057E0004FEAA009544887420BDA07F2DC567643A9
:1057F000072000FB068806EB460000EBC60009EB1D
:105800006009DDE90801B0EB080061EBE871CDE962
:105810000801DDE90601B0EB090061EBE971CDE9B2
:1058200006014FF00003E168DDE9062CA1FB020B45
:1058300003FB02B201FB0C224FEA505141EAC22C99
:105840004FEA6251DDE90802BCEB000061EB0201A6
:10585000C00B40EA414A504605F050FA37490190E2
:1058600005F0F0F88346364802905846029903F056
:1058700097FE4FF07E51039005F0CEFB3149049026
:1058800005F09CFA059005F0D3F98246606818B1DE
:105890006068AAEB000020602B480078B0B12A486D
:1058A0000078401E2849087008460078C82804DAA5
:1058B000264800685044254908602348007828B9E4
:1058C00022480068C72190FBF1F060600BB0BDE892
:1058D000F08F38B50446032004F123030022EE21A3
:1058E00000902046FFF7A6FB38BD10B504461848C7
:1058F000006860B12046FFF7ECFF2046FFF7A6FEE8
:105900002046FFF704FF00201149086008E0204608
:10591000FFF7F1FE2046FFF7E5FE01200C49086085
:1059200010BD01460868704710B50A4C2046FFF7C5
:10593000EDF9044600BF10BD24FAFFFF80E6C5471D
:10594000B1DC423ED048874A84000020800000201D
:105950007C000020780600202DE9F04105460E4627
:105960001446284600F000FB3146284600F0CAFAEB
:1059700007462146284600F0C5FA284600F0ECFA12
:105980003846BDE8F0812DE9F047074688461546C0
:105990001E46384600F0E8FA4146384600F0B2FAB2
:1059A0008146002405E0295D384600F0ABFA601C12
:1059B000C4B2B442F7DB384600F0CEFA4846BDE840
:1059C000F08770B505460C461646284600F0BCFA2E
:1059D00005239C4A2A212846FFF7D5FF05239A4A2A
:1059E00030212846FFF7CFFF012221212846FFF76B
:1059F000B3FF012222212846FFF7AEFF1A222421FD
:105A00002846FFF7A9FF324625212846FFF7A4FFC5
:105A10000F2226212846FFF79FFF012C0AD1FF22E3
:105A200031212846FFF798FF0F2220212846FFF753
:105A300093FF51E0022C0AD1FF2231212846FFF7C3
:105A40008BFF0E2220212846FFF786FF44E0032C1F
:105A500021D1FF22E1212846FFF77EFFFF22E2212C
:105A60002846FFF779FF0F2220212846FFF774FF11
:105A70005021284600F046FA7321284600F042FAE9
:105A800001223C212846FFF767FF06223D212846D8
:105A9000FFF762FF20E00E2220212846FFF75CFF7F
:105AA000FF22E1212846FFF757FFFF22E221284687
:105AB000FFF752FF5021284600F024FA73212846B0
:105AC00000F020FA01223C212846FFF745FF06227C
:105AD0003D212846FFF740FF284600F02DFA70BD13
