:020000040800F2
:1000000040100020DD890008655E0008E7890008CF
:10001000675E00086B5E00086F5E0008000000006D
:10002000000000000000000000000000735E0008F7
:10003000755E000800000000F3890008775E000884
:10004000F7890008F7890008F7890008F789000890
:10005000F7890008F7890008F7890008F789000880
:10006000F7890008F7890008F7890008F789000870
:10007000F7890008F7890008F7890008F789000860
:10008000F7890008F7890008F7890008F789000850
:10009000F7890008F7890008F7890008F789000840
:1000A000F7890008F7890008F7890008F789000830
:1000B000F7890008F7890008F7890008F789000820
:1000C000F7890008F7890008F7890008F789000810
:1000D000F78900087F5E0008F7890008815E000844
:1000E000F7890008F7890008F789000800F002F88E
:1000F00000F03CF80AA090E8000C82448344AAF186
:100100000107DA4501D100F031F8AFF2090EBAE883
:100110000F0013F0010F18BFFB1A43F0010318473B
:10012000CCAF0000ECAF0000103A24BF78C878C113
:10013000FAD8520724BF30C830C144BF04680C60ED
:10014000704700000023002400250026103A28BF35
:1001500078C1FBD8520728BF30C148BF0B60704739
:100160001FB508F05FFC1FBD10B510BD08F080FC86
:100170001146FFF7F5FF00F009F808F09EFC03B404
:10018000FFF7F2FF03BC08F09FFC000001200B49C1
:1001900088830020C88301204884088404F043F841
:1001A000074803F021F8074801F01BFE064802F05B
:1001B000A7F901E003F060FBFCE70000D005002098
:1001C0003A00002000020020FC0400200122C2723C
:1001D000704710B50446607B00B338480078401C77
:1001E0003649087008460078012804D0052809D04F
:1001F0000A2812D10DE0324804F0D2FD304804F054
:10020000D7FD0AE02E4804F0DBFD2D4804F0E0FDA8
:1002100003E000202949087000BF49E0607AE0B19E
:10022000207BD0B925480078401C24490870084636
:100230000078012804D0142806D028280CD107E023
:100240001F4804F0ADFD07E01D4804F0B9FD03E0D0
:1002500000201A49087000BF2AE0607A10B3207BA2
:1002600000B318480078401C16490870084600780A
:10027000012804D0142809D0282812D10DE01048F4
:1002800004F08EFD0E4804F0A3FD0AE00C4804F0D3
:1002900097FD0B4804F08CFD03E00020094908702D
:1002A00000BF05E0064804F07BFD054804F080FD32
:1002B00010BD00B50448FFF789FF00BD0000002015
:1002C0005C00002001000020B400002070B504464E
:1002D0000E4615462A4604F10F01FE4805F04EFA77
:1002E00070BD2DE9F04104460D461646AA20E07384
:1002F000AA212174EF2161740221A174E57426758D
:100300000027002006E004F10F01095C3944CFB258
:10031000411CC8B20628F6DB6775082204F10F01FC
:100320002046FFF7D3FFBDE8F0812DE9F04F87B0FD
:1003300005460C461646002701200690002004E0E2
:10034000215C3944CFB2411CC8B2711E8142F7DC36
:10035000A01910F8010CB84202D007B0BDE8F08F28
:100360002078AA2802D16078AF2800D0F5E70021D4
:10037000D9488172A078012811D12079012801D1B2
:10038000D64908702079022802D10120D34948704B
:100390002079032803D10120D04908704870A07843
:1003A000022816D12079012805D128716871A87119
:1003B000E871287268722079A02801D10120287084
:1003C0002079A12805D1C64801F0BEFAC54802F03F
:1003D000F2FDA07803287CD1C348808B28B1207916
:1003E000617941EA0020C049C880A079E17941EAF9
:1003F0000020BD498880207A617A41EA0020BA490C
:100400000880A07AE17A41EA0020B7494880207B41
:10041000617B41EA0020B4490881A07BE17B41EA8D
:100420000020B1494881207C617C41EA0020AE492E
:100430008881A07CE17C41EA0020AB49C881069814
:10044000002861D008460088A0F2DC5908464088A0
:10045000A0F2DC58A549886803F0C9FA029008F0B8
:1004600033FE824648460AF06FFA834651460AF048
:10047000CBFA9E490490886803F0B9FA019009F01C
:10048000F3F9834640460AF05FFA594602900AF0B3
:10049000BBFA824696490AF0E5FB039004990AF0FC
:1004A00083F805900AF030FA8F4908808F498868F0
:1004B00003F09DFA029009F0D7F9049048460AF03B
:1004C00043FA039004990AF09FFA884905908868D6
:1004D00000E019E003F08BFA019008F0F5FD0390BD
:1004E00040460AF031FA029003990AF08DFA8049E9
:1004F00004900AF059F8834605990AF055F88246A7
:100500000AF002FA78494880A07810287ED1217933
:10051000090209B2627941EA02000AF015FA82463C
:1005200074490AF0B5F86E490860A179090209B268
:10053000E27941EA02000AF007FA82466D490AF0C0
:10054000A7F867494860217A090209B2627A41EA4C
:1005500002000AF0F9F9824666490AF099F8604902
:100560008860A17A090209B2E27A41EA02000AF03F
:10057000EBF982465F490AF08BF85949C861217B43
:10058000090209B2627B41EA02000AF0DDF9824603
:1005900058490AF07DF852490862A17B090209B264
:1005A000E27B41EA02000AF0CFF9824651490AF0A3
:1005B0006FF84B494862217C090209B2627C41EA2A
:1005C00002000AF0C1F982464A490AF061F844493A
:1005D0008863A17C090209B2E27C41EA02000AF0C8
:1005E000B3F9824643490AF053F83D49C863217D77
:1005F000090209B2627D41EA02000AF0A5F98246C9
:100600003C490AF045F83649086400E004E0A17866
:100610003A462846FFF765FEA07811286CD121796B
:10062000090209B2627941EA02000AF08DF98246B4
:1006300030490AF02DF82A494865A179090209B222
:10064000E27941EA02000AF07FF9824629490AF07C
:100650001FF823498865217A090209B2627A41EAC2
:1006600002000AF071F9824622490AF011F81C4989
:10067000C865A17A090209B2E27A41EA02000AF0E9
:1006800063F982461B490AF003F815490867217B84
:10069000090209B2627B41EA02000AF055F982467A
:1006A000144909F0F5FF0E494867A17B090209B218
:1006B000E27B41EA02000AF047F982460D4909F05F
:1006C000E7FF07498867217C090209B2627C41EA99
:1006D000020012E0B0060020B40000203006002026
:1006E000080100203A000020D00500200002002070
:1006F0000080BB4400007A442BE00AF025F98246D2
:10070000FE4909F0C5FFFE49C1F88C00A17C090231
:1007100009B2E27C41EA02000AF016F98246F74982
:1007200009F0B6FFF649C1F89000217D090209B22F
:10073000627D41EA02000AF007F98246EF4909F0BA
:10074000A7FFEF49C1F89400A1783A462846FFF781
:10075000C8FDA078122834D12179090209B2627942
:1007600041EA02000AF0F0F88246E44909F090FFFD
:10077000E349C1F8A800A179090209B2E27941EA86
:1007800002000AF0E1F88246DC4909F081FFDC4909
:10079000C1F8AC00217A090209B2627A41EA02008A
:1007A0000AF0D2F88246D54909F072FFD449C1F85F
:1007B000B000A1783A462846FFF793FDD14802F0F1
:1007C000FAFBA078132804D1A1783A462846FFF70F
:1007D00088FDA078142804D1A1783A462846FFF76E
:1007E00080FDA078152804D1A1783A462846FFF765
:1007F00078FD00BFB1E510B50446C34805F03BF8ED
:1008000010BD2DE9FC5F04460E4617469846DDE90B
:100810000CAB0025AA2229466D1C04F10F0042549E
:1008200029466D1C425406F10F00C2B229466D1CC8
:1008300004F10F004254002229466D1C4254AF4976
:1008400038460AF0E1F800900AF018F800B201907A
:100850009DF8052029466D1C04F10F0042549DF8B7
:10086000042029466D1C4254A44940460AF0CCF8A5
:1008700000900AF003F800B201909DF80520294687
:100880006D1C04F10F0042549DF804202846691C99
:10089000CDB204F10F010A54984950460AF0B4F859
:1008A000009009F0EBFF00B201909DF8052028466A
:1008B000691CCDB204F10F010A549DF804202846AA
:1008C000691CCDB204F10F010A548C4958460AF054
:1008D0009BF8009009F0D2FF00B201909DF805202E
:1008E0002846691CCDB204F10F010A549DF804207A
:1008F0002846691CCDB204F10F010A547F490E98B5
:100900000AF082F8009009F0B9FF00B201909DF85A
:1009100005202846691CCDB204F10F010A549DF848
:1009200004202846691CCDB204F10F010A54734912
:100930000F980AF069F8009009F0A0FF00B201904A
:100940009DF805202846691CCDB204F10F010A5418
:100950009DF804202846691CCDB204F10F010A5409
:10096000664910980AF050F8009009F087FF00B22D
:1009700001909DF805202846691CCDB204F10F01B5
:100980000A549DF804202846691CCDB204F10F01D9
:100990000A545A4911980AF037F8009009F06EFF8E
:1009A00000B201909DF805202846691CCDB204F1E3
:1009B0000F010A549DF804202846691CCDB204F1A9
:1009C0000F010A544D4912980AF01EF8009009F0E0
:1009D00055FF00B201909DF805202846691CCDB254
:1009E00004F10F010A549DF804202846691CCDB279
:1009F00004F10F010A54281FA0744FF000090020D1
:100A000007E004F10F01095C494401F0FF09411CB2
:100A1000C8B2A842F5DB2846691CCDB204F10F012B
:100A200001F800902A462046FFF750FCBDE8FC9FE5
:100A30002DE9F84304460E4617460025AA2229460A
:100A40006D1C04F10F00425429466D1C42540522CE
:100A500029466D1C4254002229466D1C42540096C2
:100A60009DF8012029466D1C42549DF8002029461E
:100A70006D1C425400979DF8012029466D1C42547C
:100A80009DF800202846691CCDB204F10F010A54DC
:100A9000281FA0744FF00008002007E004F10F01A8
:100AA000095C414401F0FF08411CC8B2A842F5DBD3
:100AB0002846691CCDB204F10F0101F800802A46D6
:100AC0002046FFF703FCBDE8F8837FB50446002508
:100AD000AA2229466D1C04F10F00425429466D1CC0
:100AE0004254062229466D1C4254002229466D1CA0
:100AF00042549DF8052029466D1C07E000007A4409
:100B0000080100203A000020B006002042549DF861
:100B1000042029466D1C42549DF8092029466D1C6D
:100B200042549DF808202846691CCDB204F10F01FB
:100B30000A549DF80D202846691CCDB204F10F011E
:100B40000A549DF80C202846691CCDB204F10F010F
:100B50000A549DF821202846691CCDB204F10F01EA
:100B60000A549DF820202846691CCDB204F10F01DB
:100B70000A549DF825202846691CCDB204F10F01C6
:100B80000A549DF824202846691CCDB204F10F01B7
:100B90000A549DF829202846691CCDB204F10F01A2
:100BA0000A549DF828202846691CCDB204F10F0193
:100BB0000A549DF82D202846691CCDB204F10F017E
:100BC0000A549DF82C202846691CCDB204F10F016F
:100BD0000A549DF831202846691CCDB204F10F015A
:100BE0000A549DF830202846691CCDB204F10F014B
:100BF0000A54281FA0740026002006E004F10F010B
:100C0000095C3144CEB2411CC8B2A842F6DB28468A
:100C1000691CCDB204F10F010E542A462046FFF79D
:100C200055FB7FBD7FB504460025AA2229466D1CD1
:100C300004F10F00425429466D1C425403222946F8
:100C40006D1C4254002229466D1C42549DF805201B
:100C500029466D1C42549DF8042029466D1C4254BF
:100C60009DF8092029466D1C42549DF8082028460D
:100C7000691CCDB204F10F010A549DF80D202846DD
:100C8000691CCDB204F10F010A549DF80C202846CE
:100C9000691CCDB204F10F010A549DF821202846A9
:100CA000691CCDB204F10F010A549DF8202028469A
:100CB000691CCDB204F10F010A549DF82520284685
:100CC000691CCDB204F10F010A549DF82420284676
:100CD000691CCDB204F10F010A549DF82920284661
:100CE000691CCDB204F10F010A549DF82820284652
:100CF000691CCDB204F10F010A549DF82D2028463D
:100D0000691CCDB204F10F010A549DF82C2028462D
:100D1000691CCDB204F10F010A549DF83120284618
:100D2000691CCDB204F10F010A549DF83020284609
:100D3000691CCDB204F10F010A549DF835202846F4
:100D4000691CCDB204F10F010A549DF834202846E5
:100D5000691CCDB204F10F010A549DF839202846D0
:100D6000691CCDB204F10F010A549DF838202846C1
:100D7000691CCDB204F10F010A54281FA07400268B
:100D8000002006E004F10F01095C3144CEB2411CA1
:100D9000C8B2A842F6DB2846691CCDB204F10F01A7
:100DA0000E542A462046FFF791FA7FBD2DE9F843FD
:100DB00004460E4617460025AA2229466D1C04F15A
:100DC0000F00425429466D1C4254072229466D1CCF
:100DD0004254002229466D1C425400969DF803207F
:100DE00029466D1C42549DF8022029466D1C425430
:100DF0009DF8012029466D1C42549DF8002028468C
:100E0000691CCDB204F10F010A5400979DF801202E
:100E10002846691CCDB204F10F010A549DF8002048
:100E20002846691CCDB204F10F010A54281FA07492
:100E30004FF00008002007E004F10F01095C414475
:100E400001F0FF08411CC8B2A842F5DB2846691C26
:100E5000CDB204F10F0101F800802A462046FFF7C9
:100E600035FABDE8F8832DE9F84F04460E461746DB
:100E70009846DDE90AAB0025AA2229466D1C04F13B
:100E80000F00425429466D1C4254022229466D1C13
:100E90004254002229466D1C425400969DF80120C0
:100EA00029466D1C42549DF8002029466D1C425471
:100EB00000979DF8012029466D1C42549DF80020A2
:100EC0002846691CCDB204F10F010A54CDF8008008
:100ED0009DF801202846691CCDB204F10F010A5487
:100EE0009DF800202846691CCDB204F10F010A5478
:100EF000CDF800A09DF801202846691CCDB204F170
:100F00000F010A549DF800202846691CCDB204F157
:100F10000F010A54CDF800B09DF801202846691C45
:100F2000CDB204F10F010A549DF800202846691C37
:100F3000CDB204F10F010A540C9800909DF80120E5
:100F40002846691CCDB204F10F010A549DF8002017
:100F50002846691CCDB204F10F010A540D98009087
:100F60009DF801202846691CCDB204F10F010A54F6
:100F70009DF800202846691CCDB204F10F010A54E7
:100F80000E9800909DF801202846691CCDB204F10E
:100F90000F010A549DF800202846691CCDB204F1C7
:100FA0000F010A540F9800909DF801202846691CF3
:100FB000CDB204F10F010A549DF800202846691CA7
:100FC000CDB204F10F010A54281FA0744FF000099C
:100FD000002007E004F10F01095C494401F0FF091A
:100FE000411CC8B2A842F5DB2846691CCDB204F109
:100FF0000F0101F800902A462046FFF767F9BDE887
:10100000F88F2DE9FE4F04460E4617469846DDE957
:101010000CAB0025CDF804A0AA2229466D1C04F1D2
:101020000F00425429466D1C4254012229466D1C72
:101030004254002229466D1C4254FE49304609F0B4
:10104000E3FC009009F01AFC00B202909DF8092020
:1010500029466D1C04F10F0042549DF808202946D2
:101060006D1C4254F349384609F0CEFC009009F05B
:1010700005FC00B202909DF8092029466D1C04F180
:101080000F0042549DF808202846691CCDB204F197
:101090000F010A54E749404609F0B6FC009009F0F8
:1010A000EDFB00B202909DF809202846691CCDB2E4
:1010B00004F10F010A549DF808202846691CCDB29E
:1010C00004F10F010A549DF807202846691CCDB28F
:1010D00004F10F010A549DF806202846691CCDB280
:1010E00004F10F010A549DF805202846691CCDB271
:1010F00004F10F010A549DF804202846691CCDB262
:1011000004F10F010A542846691CCDB204F10F0105
:1011100001F800B029466A1CD5B204F10F020E98FE
:101120005054281FA0744FF00009002007E004F17C
:101130000F01095C494401F0FF09411CC8B2A842F3
:10114000F5DB2846691CCDB204F10F0101F80090CF
:101150002A462046FFF7BAF8BDE8FE8F2DE9FF4189
:1011600004460E460025AA2229466D1C04F10F00F4
:10117000425429466D1C4254002229466D1C42549B
:1011800029466D1C425429466D1C46549DF8092081
:1011900029466D1C42549DF8082029466D1C425476
:1011A0009DF80D202846691CCDB204F10F010A54A8
:1011B0009DF80C202846691CCDB204F10F010A5499
:1011C0009DF829202846691CCDB204F10F010A546C
:1011D0009DF828202846691CCDB204F10F010A545D
:1011E0009DF82D202846691CCDB204F10F010A5448
:1011F0009DF82C202846691CCDB204F10F010A5439
:10120000281FA0740027002006E004F10F01095CEC
:101210003944CFB2411CC8B2A842F6DB2846691C4B
:10122000CDB204F10F010F542A462046FFF74EF8C5
:10123000BDE8FF812DE9F04788B004467E4800787C
:101240007E49097890FBF1F201FB12017B4800789E
:10125000401E814201D10120A07077480078784972
:10126000097890FBF1F201FB120175480078401EED
:10127000814201D10120E0706F48007871490978FE
:1012800090FBF1F201FB12016E480078401E814292
:1012900001D101206073684800786B49097890FBA0
:1012A000F1F201FB120168480078401E814201D131
:1012B00001206070604800786449097890FBF1F281
:1012C00001FB120161480078401E814201D10120DA
:1012D000A072594800785E49097890FBF1F201FB51
:1012E00012015B480078401E814201D10120207329
:1012F000514800785749097890FBF1F201FB12013F
:1013000054480078401E814201D10120A0734A4810
:101310000078401C48490870207868B1002020708F
:101320004FF4C8716E234FF49672CDE9001001217D
:101330002046FFF713FF44E16078A8B100206070F9
:101340004549086B09F09AFA05464448407A4349F2
:10135000097BCDE9005102904148836842680168E9
:101360002046FFF74EFE2CE1607B10B10020607339
:1013700027E1A07880B30020A0703949486909F0BE
:101380007DFA05B23649086909F078FA06B234499F
:10139000C86809F073FA07B23149C86A09F06EFAF1
:1013A0000FFA80F82E49886A09F068FA0FFA80F976
:1013B0002B49486A09F062FA0FFA80FA0020CDE959
:1013C0000250049043464A465146CDE900760590C6
:1013D0002046FFF748FDF4E0FFE7E078A0B10020E9
:1013E000E0701D48806800EBC00303EB00104FF66F
:1013F000FF7303EA800218484068642300FB03F18E
:101400002046FFF7D3FCDCE0A07A68B30020A0728E
:101410001448408A1349098A124AD289114B9B8980
:10142000CDE90332CDE905100E48418900890D4A06
:1014300052881AE00000C842020000200300002089
:101440000900002004000020050000200600002004
:101450000700002008000020FC040020B400002049
:1014600000020020D00500200AE0CDE90020029112
:10147000614803888288C1882046FFF7D3FBA0E03B
:10148000207B80B30020207305A95C4800F0B1FFE9
:1014900000200AE005A931F81010A1F57A7109B20F
:1014A00005AA22F81010411CC8B20628F2DB00225F
:1014B000BDF81E0080B2BDF81C1089B2CDE9020251
:1014C00004920191BDF81A0080B20090BDF8180096
:1014D00083B2BDF8160082B2BDF8140081B2204676
:1014E000FFF7F3FA6DE0FFE7A07B80B10020A07367
:1014F00043494448006809F087FA064609F004FAAF
:1015000085B2002229462046FFF792FA59E0207959
:10151000E8B1002020713C48016CC06B3A4A926BE4
:10152000394B5B6ACDE90332CDE905013648006AE3
:101530003549C969344A9268CDE9002102903248A0
:101540004368012102682046FFF75BF939E06079C2
:10155000F0B1002060712C48D0F89420D0F89010A1
:10156000D0F88C00284B9B6FCDE90330CDE90512F4
:101570002548416F006F244AD26DCDE900200291C9
:101580002148836D0221426D2046FFF73AF918E0A9
:10159000A079B0B10020A07103900490059001469D
:1015A000024606901848D0F8B000CDE9012100901D
:1015B0001548D0F8AC300321D0F8A8202046FFF71A
:1015C00020F908B0BDE8F087104909781E290CDD24
:1015D00000210E4A11700E49897A19B901220C496D
:1015E0008A7202E000220A494A7208490978491CB5
:1015F000064A117070470000D0050020F00400205A
:101600000000C84250000020080100200A0000200D
:10161000B40000202DE9F04781460C4615462946C6
:10162000C34809F0F1F9804641464FF07E5009F079
:101630002FF80746214608F0B7FF064631462046F8
:1016400009F026F8BDE8F0872DE9F84F0F4615465A
:101650001C462946B64809F0D7F98146394609F0B3
:10166000D3F9804641464FF07E5009F011F8064606
:101670003146B04809F0C8F982463146304609F093
:10168000C3F98346514608F08FFF81464FF07E51E3
:1016900008F08AFF804641464FF07E5008F0F8FF80
:1016A00020603146A34809F0AFF983463146304601
:1016B00009F0AAF95946009008F076FF82464FF0EB
:1016C0007E5108F071FF804631469A4809F09CF936
:1016D000314600904FF0804009F096F9834631463C
:1016E00009F092F98246009908F05EFF8146414672
:1016F00008F0CEFF606031468E4809F085F98346D8
:101700003146304609F080F95946009008F04CFF08
:1017100081464FF07E5108F047FF80463146304603
:1017200009F072F98246414608F0B2FFA060BDE8B8
:10173000F88F2DE9F04107460D461446214628460C
:1017400008F032FF06463146204608F0A1FFBDE80A
:10175000F0810FB4F0B58DB005460F461A9C2246B5
:1017600017A904A808F01DFB04A807C807AB07C306
:1017700021464FF07E5009F007FB0646324614A979
:1017800001A808F00EFB01A807C80AAB07C307AA07
:101790000AA9284608F021FB0DB0F0BC5DF814FB47
:1017A0000FB470B59EB005460E4614460FA8002132
:1017B00081604160016000BF04F10C010CA8A268C7
:1017C00008F0EFFA0CA807C812AB07C304F1180120
:1017D00009A8626808F0E5FA09A807C815AB07C3AD
:1017E00025A906A8226808F0DCFA06A807C818ABE5
:1017F00007C315AA18A903A808F0EFFA03A807C899
:101800001BAB07C312AA1BA9684608F092FA9DE811
:1018100007000FAB07C3D4E90712A069C4E904129B
:10182000E0600FA807C8C4E90712A0610FA807C8A5
:1018300085E807001EB070BC5DF814FB2DE9F05F71
:1018400083460C4615463C48A168006809F0DCF860
:1018500080463A486168006809F0D6F88146284613
:10186000216809F0D1F88246494608F09DFE0746F6
:10187000414609F089FA0646304800682E4908605A
:101880002E480660304608F0F9FFBDE8F09F2DE9CC
:10189000F05F83460C4615462948A168006809F0A8
:1018A000B3F8804627486168006809F0ADF88146C2
:1018B0002846216809F0A8F88246494608F074FED7
:1018C0000746414609F060FA06461E4800681C4972
:1018D00008601C480660304608F0D0FFBDE8F09F65
:1018E0000FB4F0B58DB005460F461A9C21464FF057
:1018F0007E5009F049FA0646324617A904A808F0B6
:1019000050FA04A807C807AB07C3224614A901A8C8
:1019100008F047FA01A807C80AAB07C307AA0AA933
:10192000284608F05AFA0DB0F0BC5DF814FB000030
:10193000DB0FC94000004040100000200C000020D8
:10194000180000201400002038B50446DC48DD4BA8
:10195000DD4A11460090204607F001F9D848D94BDE
:10196000D94A1146009004F11C0007F0F8F8D44859
:101970000023D64AD649009004F1380007F0EFF86A
:10198000002003460246D349009004F1540007F0BA
:10199000E6F80020034602464FF08041009004F133
:1019A000700007F0DCF8CC48CC4B4FF07C524FF085
:1019B0007F51009004F18C0007F0D1F8C04800235B
:1019C0001A46C749009004F1A80007F0C8F838BDCE
:1019D00010B5044607231C22C249204607F0E6F84A
:1019E000044604F1C40008F026F9A0F1C40404F18F
:1019F000D00008F020F9A0F1D00404F1EC0008F0C8
:101A00001AF9A0F1EC04962004F8DC0F3220607083
:101A10006420E082DC3C2046FFF796FF204610BDA4
:101A200010B50446B049086B08F028FFC4F8D80088
:101A300010BD2DE9F04188B0044603A80021816063
:101A40004160016000BFA9490868A94908F0DCFFAE
:101A50000746A849B1F9141048004FF4AF7251423B
:101A600001F0A9FF804608F06FFF0646394609F0ED
:101A70008BF9054608F002FF06909C4948689C498E
:101A800008F0C2FF07469B49B1F9161048004FF411
:101A9000AF72514201F08FFF804608F055FF0646B5
:101AA000394609F071F9054608F0E8FE0790022171
:101AB000069801F08BFF06900221079801F086FF3F
:101AC00007904FF0814289491831684608F015F9AE
:101AD0009DE8070003AB07C304F15400069901F029
:101AE00049FC074608F030FF0646039909F04CF917
:101AF000054608F0C3FEC4F8E00004F1540007995D
:101B000001F038FC074608F01FFF0646049909F06B
:101B10003BF9054608F0B2FEE421085194F8DD00D7
:101B20007449B1F9181000FB01F5E91705EBD16113
:101B3000481108F009FF0746059909F025F90646FE
:101B400008F09CFEE821085108B0BDE8F0812DE9BD
:101B5000FF47054665494868002109F021F802D28F
:101B60006248406803E06148406880F000400746F2
:101B70005E490868002109F013F802D25B4800684A
:101B800003E05A48006880F000408046394609F07A
:101B900007F80DD255490868002109F001F802D272
:101BA0005248006811E05148006880F000400CE0A5
:101BB0004E494868002108F0F3FF02D24B484068C4
:101BC00003E04A48406880F0004004464A4A002149
:101BD00001F0B7FE064600241BE04648C08840F2EC
:101BE000E241884205DAC4EBC40105EB810001F053
:101BF000FBFB05F1E00252F82410C4EBC40205EB34
:101C00008200364A01F0C6FB01A941F82400601C9D
:101C1000C4B2032CE1DB374BB3F91830002B03DDE2
:101C2000344BB3F9183003E0324BB3F918305B4250
:101C300003F596722F4BB3F91830002B03DD2D4BB3
:101C4000B3F9183003E02B4BB3F918305B422B4C3F
:101C5000E11A039801F0AFFE404203902848007B50
:101C6000D8B9304601F0C3FE824607F02DFA80460F
:101C70002049B1F91A10A1F57A7008F065FE814685
:101C8000414608F005FD07461E4908F08DFC044654
:101C900008F0F4FD01B217484183039800901548FD
:101CA000408B81B21848DDE9012300F079FABDE8E4
:101CB000FF877047704710B51448FFF789FE10BDC5
:101CC000000048430AD7A33C9A99193E6666E63E4F
:101CD000CDCC4C3F0000A040000016436F12033BE8
:101CE0009A99993F6D8B0008FC04002000020020A7
:101CF00000002041D00500200000A041D4FEFFFFDD
:101D0000B400002000007A44F00400200801002004
:101D100010B50446204600BF0446204607F05AFF8F
:101D2000044604F10C0007F055FFA0F10C0404F187
:101D3000180007F04FFFA0F1180404F1240007F089
:101D400049FFA0F1240404F1300007F043FFA0F1A3
:101D5000300404F13C0006F0BEFEA0F13C0404F1A6
:101D6000600006F0B8FEA0F1600404F1880006F0FF
:101D7000C1FEA0F1880404F5C87006F0BBFEA0F512
:101D8000C87404F5277006F0E2FEA0F5277420461B
:101D900010BD10B5044662224FF47A71E74803F093
:101DA00055F810BD10B50446E54AE6492046FFF750
:101DB00031FCE549086004F13C03E14AE149204671
:101DC000FFF742FC04F16003E04ADE492046FFF7DA
:101DD0003BFCDF4ADB492046FFF7ABFCDA494860B1
:101DE00010BD10B504462046FFF7DCFF2046FFF784
:101DF000D0FF10BD3EB50446D04803F0F9F8CF48F7
:101E000003F0C9F9CD49684603F029FA9DE80700B7
:101E1000C4E90412E060C949684603F019FA9DE874
:101E20000700C4E90A1260623EBDFFB595B00446E2
:101E3000219E09A807F0CEFE06A807F0CBFE1EAD36
:101E4000284607F053FF07463946284607F0CBFEE1
:101E500000BF06A904F5277001F0FAFE06AA1EA924
:101E600003A807F0D6FF03A807C809AB07C3B94A00
:101E700009A903A807F095FF03A807C812AB07C379
:101E800012A9B54807F0C3FE4FF0804209A903A884
:101E900007F087FF03A807C80CAB07C3AE4A0CA91D
:101EA000684607F09AFF9DE807000FAB07C30FA92C
:101EB00016A807F0ACFE324616A904F5277001F00B
:101EC00038FF04F5277001F009FE04F10803221D14
:101ED000214604F5277002F0BEF819B0F0BD2DE9D7
:101EE000F04782460C469D490968601A08F0F8F8E8
:101EF00007469B4A9B4B08F043F9054607F0C4FF91
:101F00008146964804604846BDE8F0872DE9F043D5
:101F100095B004460EA807F01BFE08A807F018FEAF
:101F2000D4E90A01CDE9000104F13C02214605A8EB
:101F3000636AFFF735FC05A807C8C4E90D122063E2
:101F4000D4E90401CDE9000104F16002214605A8AD
:101F5000E368FFF725FC05A807C8C4E90712A061DC
:101F600004F130052946284607F0FFFE81467E49E8
:101F700008F04AFD80464FF0974108F089FB07467C
:101F800008F07CFCC4F8AC0202F018F905462946BA
:101F90002046FFF7A4FF0646206A0090674905A87F
:101FA000D4E9062303F062F90396D4E90D12206BFD
:101FB0008DE80700204605A90EC9FFF736FF15B0CA
:101FC000BDE8F0832DE9F0418CB080460C4603A8B3
:101FD00007F0AAFD684607F0FDFD206801F007FD47
:101FE00080F00045606801F002FD80F00046A068C6
:101FF00001F0FDFC074600950196029700BF694677
:1020000003A807F00DFD04F1300203A9404607F0D4
:102010001BFE0CB0BDE8F0813FB5ADB00446379D66
:1020200018A807F0D7FD2EAA50490CA807F0D5FE36
:102030000CA807C827AB07C32A4627A909A807F099
:10204000B0FE09A807C82AAB07C34FF07C522AA9E3
:1020500006A807F0A6FE06A807C818AB07C34348A2
:102060002EA90EC90EC00FA807F05EFD18A90FA873
:1020700007F0D6FC3E4A0FA90CA807F0E5FD3C4846
:102080000CA90EC90EC03B4A0FA90CA807F0DCFD35
:1020900038480CA90EC90EC0374A34A90CA807F05D
:1020A00080FE0CA807C81BAB07C32A46304909A805
:1020B00007F077FE09A807C81EAB07C31EAA214672
:1020C00006A807F08AFE06A807C821AB07C32B4A5B
:1020D00021A903A807F065FE03A807C824AB07C31E
:1020E0001BAA24A9684607F078FE9DE8070084E84B
:1020F000070021461E4807F033FD21461D4807F022
:1021000059FD31B030BD10B51D48FFF701FE4FF04D
:102110007E5300221146164807F058FD00231A4648
:102120001149144807F052FD104807F053FD1548B7
:1021300006F00DFD084807F04DFD10BD30060020EB
:10214000000048426F12033BB4000020000002432D
:102150006666E63F6F12833AE40400201C0000200C
:102160008DEDB5A0F7C6B03E0000C842C8040020FF
:10217000B0040020BC040020CDCCCC3D6666663F98
:1021800000020020D40400200146002005E04FF4A6
:102190007A7221F81020421CD0B20628F7DB704773
:1021A0002DE9F04F8FB004460D4616469B46DDF8EC
:1021B0006090484607F07DFFCDE90A01584607F0D8
:1021C00078FF0746914A924B07F0DAFFCDE9060106
:1021D000304607F06EFF00228E4BCDE9000107F07C
:1021E000CFFF07468846284607F07AFF3A4643461F
:1021F000CDE9020108F0C2F8CDE90401DDE90623CA
:1022000007F074FECDE90801DDE90A2307F06EFE50
:10221000CDE90C0107F01EFF00B2A080484607F090
:1022200048FFCDE90A01584607F043FF0746774AC1
:10223000774B07F0A5FFCDE90601304607F039FFDF
:1022400007460022734B07F09BFFCDE902012846A9
:1022500007F046FFCDE90001DDE9022308F08EF822
:10226000CDE90401DDE9062308F088F8CDE908018D
:10227000DDE90A2307F03AFECDE90C0107F0EAFE9A
:1022800000B26080484607F014FFCDE90A015846C5
:1022900007F00FFF07465D4A5D4B07F071FFCDE980
:1022A0000601304607F005FF00225A4BCDE9000138
:1022B00007F066FF07468846284607F011FF3A46B2
:1022C0004346CDE9020107F011FECDE90401DDE945
:1022D000062307F00BFECDE90801DDE90A2308F02B
:1022E0004DF8CDE90C0107F0B5FE00B2208048465C
:1022F00007F0DFFECDE90A01584607F0DAFE07468F
:10230000424A434B07F03CFFCDE90601304607F057
:10231000D0FE074600223F4B07F032FFCDE9020115
:10232000284607F0DDFECDE90001DDE9022307F0D4
:10233000DDFDCDE90401DDE9062308F01FF8CDE954
:102340000801DDE90A2308F019F8CDE90C0107F0CE
:1023500081FE00B2E080A81BA0EB090000B2608102
:10236000A819484400B22081B4F900A0012007E078
:1023700034F91010514501DD34F910A0411CC8B2E8
:102380000628F5DB002719E040F26C70824507DD76
:1023900034F81710AAF26C70081A00B224F817006B
:1023A00034F8171088B240F26C7240F24C4101F0E0
:1023B000F7FA00B224F81700781CC7B2062FE3DB47
:1023C0001548407A10B92046FFF7DEFE1248007B20
:1023D00040B91248C08840F2E241884202DA204601
:1023E000FFF7D2FE21460E4803F02FFB0FB0BDE8E9
:1023F000F08F02880A8042884A8082888A80C28858
:10240000CA8002890A8142894A81704783C0CAA171
:1024100045B6EB3F0000E03FB4000020D0050020AF
:102420008300002010B50446204600BF044604F196
:10243000100007F0CFFBA0F1100404F11C0007F01E
:10244000C9FBA0F11C0404F1280007F0C3FBA0F1B4
:10245000280404F1340007F0BDFBA0F1340404F1BA
:10246000400007F0B7FBA0F1400404F1500006F073
:1024700032FBA0F1500404F1740006F02CFBA0F133
:10248000740404F1B40007F0A5FBA0F1B4044FF00C
:1024900082431A46194604F1B40007F0A0FBFE4837
:1024A0009834A0614FF48020A062FC4844F8980959
:1024B000FB499C200151FB49A0200151FA49A4206D
:1024C0000151FA49A8200151F949AC200151204697
:1024D00010BD10B50446F74802F040FF10BD10B51E
:1024E000044604F15003F44AF4492046FFF7ACF8DF
:1024F00004F17403F24AF1492046FFF7A5F810BD34
:1025000010B504462046FFF7EAFF2046FFF7E1FF3B
:1025100010BD01B5AEB017A807F05CFB14A807F01A
:1025200059FBE84800680A2803D0E74800780228E9
:102530007DD10020E44908705521E34803F02AFCCE
:102540000020E049086001F039FEE0490968401ABE
:102550000F9007F0C5FDDE4ADE4BCDE9100107F014
:102560000FFECDE9120107F08FFC1A9001F026FE54
:10257000D64908602E98C068129008F0E5F9024626
:1025800013902E9974312E98FFF781F92E99886057
:102590002E988068D0490968401A119008F0ECF92B
:1025A00012901A9908F074F8139008F067F901B2C4
:1025B0002E9841802E988068C74908602E98B0F9FF
:1025C00002004FF4FA525142139001F0F4F901B2B3
:1025D0002E9841802E98B0F902006421139001F0EA
:1025E000F5F901B22E9841802E98C068BA49096861
:1025F000884205D1B9480078401CB849087002E00B
:102600000021B64801702E98C068B34908602E9822
:10261000806800280FDD2E988068B0F57A7F0ADA8E
:10262000AE4800781E2806DA01212E9800E006E068
:1026300080F8D01003E000212E9880F8D010A14837
:102640000068401C9F490860A5480068052803D120
:10265000984802F098FF09E2A14800680A28FAD1D8
:1026600001F0ACFD9F490968401A0F9007F038FD52
:10267000974A984BCDE9100107F082FDCDE9120190
:1026800007F002FC1A9001F099FD964908600021BC
:1026900093480160874802F076FF864802F08FFF7A
:1026A000129008F051F9024613902E9950312E984D
:1026B000FFF7C4F82E9948602E984168D0F8C400FE
:1026C000081A119008F040F912901A9907F0E0FFEB
:1026D000139008F0D3F801B22E9801802E9841682B
:1026E000C0F8C4102E98B0F900004FF4487251425F
:1026F000139001F060F901B22E9801802E98B0F984
:1027000000000A21139001F061F901B22E980180B6
:102710002E9890F8D00000287ED02E98B0F90200B4
:10272000119008F011F912902E98406A014611900C
:10273000129808F029FB13901698014612901398EE
:1027400007F032FF16902E98D0F8A00001460890AE
:102750004FF07E5008F018FB099007F0F9FECDE924
:102760000C012E98B0F90200079007F0A2FC5E4A17
:102770005E4BCDE9080107F003FDCDE90A01DDE973
:102780000C2307F0FDFCCDE910012E98D0F8A00035
:102790000C902E98406A0B900C9908F035F90D902A
:1027A00007F0D6FECDE90E01DDE9102307F09EFB10
:1027B000CDE9120107F068FB01462E9841622E9880
:1027C000D0F8AC00014608904FF07E5008F0DCFADB
:1027D000099007F0BDFECDE90C012E9880680790A6
:1027E00007F067FC404A414BCDE9080107F0C8FCFF
:1027F000CDE90A01DDE90C2307F0C2FCCDE91001A7
:102800002E98D0F8AC000C902E98006B0B900C9981
:1028100008F0FAF80D9000E07AE007F099FECDE9B3
:102820000E01DDE9102307F061FBCDE9120107F08D
:102830002BFB01462E9801632E984068039007F009
:1028400038FCCDE906012E988068019007F031FC34
:10285000254A264BCDE9020107F092FCCDE904019F
:10286000DDE9062307F08AFDCDE9080107F00CFB3E
:102870000B9007F06DFE1E4A1E4BCDE90C0107F0D0
:102880007FFCCDE910012E98D0F8CC000D9007F018
:1028900010FCCDE90E012FE0FFCF743ECDCC4C3FB4
:1028A00052B87E3FA4707D3F0AD7A33BF6287C3FF9
:1028B0003333733F880600200000A0400AD7A33CB2
:1028C0000000484224000020840000203000002046
:1028D0008DEDB5A0F7C6B03E3400002038000020D2
:1028E000200000202C0000209A9999999999B93FCD
:1028F000FCA9F1D24D62503FDDE9102307F0F6FA52
:10290000CDE9120107F0A6FB2E99C1F8CC00ADE08D
:102910002E98B0F90000119008F016F812902E9839
:10292000406A01461190129808F02EFA13901698FA
:1029300001461290139807F037FE16902E98D0F8A3
:10294000A400119016981090119908F05DF813905A
:102950002E98D0F89C0001460D904FF07E5008F064
:1029600013FA0F902E98B0F900000D9007F0ECFFCD
:102970000E900F9908F048F811902E98D0F89C000E
:102980000F902E98406A0E900F9908F03DF8109025
:10299000119907F009FE1290139907F005FE014600
:1029A0002E9841622E98D0F8A80001460F904FF063
:1029B0007E5008F0E9F911902E984168D0F8CC00CB
:1029C00008440F9007F0C0FF1090119908F01CF810
:1029D00013902E98D0F8A80011902E98006B1090AC
:1029E000119908F011F81290139907F0DDFD0146D6
:1029F0002E9801632E984068109007F0A5FF119063
:102A00002E98006B01461090119808F0BDF9002136
:102A1000129008F0C5F80DD22E984068119007F07A
:102A200093FF12902E98006B01461190129808F0B7
:102A3000ABF90EE02E984068119007F085FF1290D8
:102A40002E98006B01461190129808F09DF980F0C5
:102A500000409A49139008F0A3F807D22E984068D6
:102A6000139007F071FF01462E98016394480068A7
:102A7000401C9349086001F0A1FB92490968401A83
:102A80000F9007F02DFB904A904BCDE9100107F015
:102A900077FBCDE9120107F0F7F91A9001F08EFBF0
:102AA000884908608A4911A8FFF78CFA11A807C85D
:102AB00017AB07C38748407A08BB2E98D0F8C000F0
:102AC000C117139000EB916081112E98D0F8C000CF
:102AD000411A2E98C0F8C0102E98D0F8C00011905E
:102AE00007F032FF1290199801461190129807F0E2
:102AF0005BFD139007F0C2FE2E99C1F8C0002E981E
:102B0000D0F8C000C117139000EB916080111190B4
:102B100007F01AFF1290199801461190129808F0C8
:102B2000A1F819902E98D0F8B4000F9007F0A6FEE7
:102B3000119017980F9007F0A1FE1090119900F0D6
:102B400045FF129007F000FF13902E98D0F8B000C8
:102B500001461290139807F057FF2E9908612E989E
:102B6000D0F8B8000F9007F089FE119018980F90D8
:102B700007F084FE1090119900F028FF129007F0E2
:102B8000E3FE80F0004013902E98D0F8B00001468C
:102B90001290139807F038FF01462E9841612E9845
:102BA000D0F8BC000F9007F069FE119019980F90B3
:102BB00007F064FE1090119900F008FF129007F0E2
:102BC000C3FE13902E98D0F8B000014612901398CF
:102BD00007F01AFF01462E9881612E9A40322E99F5
:102BE0001C3111A807F0F9F811A807C824AB07C3D6
:102BF00024A90EA81A9A07F0D4F80EA807C827AB84
:102C000007C34FF07C5227A90BA807F0CAF80BA8FE
:102C100007C82AAB07C32AA92E98283006F0F7FF69
:102C20002E98D0E90823C16940300EC02E9A343264
:102C30002E99103111A807F0D0F811A807C81BABC6
:102C400007C31BA90EA81A9A07F0ABF80EA807C86D
:102C50001EAB07C34FF07C521EA90BA807F0A1F8CA
:102C60000BA807C821AB07C321A92E981C3006F07A
:102C7000CEFF2E98D0E90523016934300EC02FB065
:102C800000BD10B5044600231A46194604F1100091
:102C900006F0A5FF00231A46194604F11C0006F0B1
:102CA0009EFF00231A46194604F1280006F097FFFC
:102CB00010BD10B50848FFF7B5FB10BD0000484334
:102CC00020000020280000208DEDB5A0F7C6B03E02
:102CD00000020020B4000020FC04002010B50446CF
:102CE000FE490888FE49098801F036FE10BD1CB572
:102CF0000446FA490889694601F089FCF749488980
:102D00000DF1020101F083FCF449888901A901F069
:102D10007EFCBDF8000000B2F2490881BDF8020057
:102D200001B2F0484181BDF8040001B2ED48818153
:102D30001CBD1CB50446E9494888694601F067FC9A
:102D4000E64988880DF1020101F061FCE349C88879
:102D500001A901F05CFCBDF8000000B2E149488027
:102D6000BDF8020001B2DF488180BDF8040001B265
:102D7000DC48C1801CBD38B50446D849C8896946BD
:102D800001F045FCBDF8000007F0F6FD0546D64908
:102D900007F07EFCD5490860D049088A694601F0F1
:102DA00036FCBDF8000007F0E7FD0546CE4907F008
:102DB0006FFCCE494860C949488A694601F027FC42
:102DC000BDF8000007F0D8FD0546C94907F060FCD2
:102DD000C6498860C149888A694601F018FCBDF877
:102DE000000007F0C9FD0546BF4907F051FCBF4987
:102DF000C861BA49C88A694601F009FCBDF80000FB
:102E000007F0BAFD0546B84907F042FCB749086229
:102E1000B249088B694601F0FAFBBDF8000007F0E3
:102E2000ABFD0546B24907F033FCB0494862AB49F7
:102E3000488B694601F0EBFBBDF8000007F09CFDF4
:102E40000546A94907F024FCA8498863A349888B53
:102E5000694601F0DCFBBDF8000007F08DFD05467A
:102E6000A14907F015FCA149C8639C49C88B694674
:102E700001F0CDFBBDF8000007F07EFD05469C4942
:102E800007F006FC994908649449088C694601F0EA
:102E9000BEFBBDF8000007F06FFD0546924907F044
:102EA000F7FB9249C1F8A8008C49488C694601F0AB
:102EB000AEFBBDF8000007F05FFD05468A4907F04C
:102EC000E7FB8A49C1F8AC008449888C694601F067
:102ED0009EFBBDF8000007F04FFD0546844907F052
:102EE000D7FB8249C1F8B0007C49C88C694601F023
:102EF0008EFBBDF8000007F03FFD05467A4907F05C
:102F0000C7FB7A4948657549088D694601F07FFB22
:102F1000BDF8000007F030FD0546734907F0B8FB27
:102F2000724988656D49488D694601F070FBBDF8AE
:102F3000000007F021FD05466D4907F0A9FB6B492C
:102F4000C8656649888D694601F061FBBDF80000DF
:102F500007F012FD0546644907F09AFB63490867CC
:102F60005E49C88D694601F052FBBDF8000007F0CC
:102F700003FD05465C4907F08BFB5C4948675749F0
:102F8000088E694601F043FBBDF8000007F0F4FC31
:102F90000546574907F07CFB5449886738BD10B592
:102FA00004462046FFF7E7FE2046FFF7C2FE204614
:102FB000FFF79DFE10BD70B505464C4908684A49AB
:102FC00007F022FD064607F09FFC84B24349C889FA
:102FD000214601F0C1FC45494868434907F014FD0A
:102FE000064607F091FC84B23C49088A214601F06C
:102FF000B3FC3E4988683E4907F006FD064607F0E7
:1030000083FC84B23549488A214601F0A5FC374942
:10301000C869354907F0F8FC064607F075FC84B22C
:103020002E49888A214601F097FC3049086A2E49CA
:1030300007F0EAFC064607F067FC84B22749C88A15
:10304000214601F089FC2949486A294907F0DCFC3E
:10305000064607F059FC84B22049088B214601F04E
:103060007BFC2249886B204907F0CEFC064607F01E
:103070004BFC84B21949488B214601F06DFC1B4979
:10308000C86B194907F0C0FC064607F03DFC84B246
:103090001249888B214601F05FFC1449086C1449E1
:1030A00007F0B2FC064607F02FFC84B20B49C88B30
:1030B000214601F051FC0D49D1F8A8000A4907F05A
:1030C000A3FC064607F020FC84B20449088C214684
:1030D00001F042FC0549D1F8AC000BE05AAF000802
:1030E0003C000020300600200000C84208010020FB
:1030F00000007A445E4907F087FC064607F004FCAE
:1031000084B25C49488C214601F026FC5A49D1F82A
:10311000B0005A4907F078FC064607F0F5FB84B288
:103120005449888C214601F017FC5349486D504999
:1031300007F06AFC064607F0E7FB84B24D49C88CED
:10314000214601F009FC4C49886D494907F05CFCB7
:10315000064607F0D9FB84B24649088D214601F0A6
:10316000FBFB4549C86D454907F04EFC064607F094
:10317000CBFB84B23F49488D214601F0EDFB3E492F
:10318000086F3B4907F040FC064607F0BDFB84B2E0
:103190003849888D214601F0DFFB3749486F3449B3
:1031A00007F032FC064607F0AFFB84B23149C88D08
:1031B000214601F0D1FB3049886F304907F024FCEB
:1031C000064607F0A1FB84B22A49088E214601F089
:1031D000C3FB70BD38B5044626490888694601F02E
:1031E00016FABDF8000038BD10B504462046FFF7BA
:1031F000F1FF23490988884202D02046FFF7DBFE11
:103200002046FFF7CCFE2046FFF768FD10BD10B545
:1032100004461C4A528891B2164A508801F09CFB21
:10322000184A928891B2134A908801F095FB154A8A
:10323000D28891B20F4AD08801F08EFB10BD10B534
:103240000446104A128991B20A4A108901F084FB9F
:103250000C4A528991B2074A508901F07DFB094A14
:10326000928991B2034A908901F076FB10BD00006B
:103270000000C8425AAF00080801002000007A444C
:103280003C000020300600202DE9F05F04460E4689
:1032900017460021A06807F0BDFA3AD00021384651
:1032A00007F0B8FA35D0A06920F00041C1F1FF4124
:1032B000C90F19B100250020A06108E06169701AEA
:1032C00007F042FB8046394607F0E2F905462846FA
:1032D000A16907F059FD82463946454807F064F96F
:1032E00083465946384607F0D3F98146514607F0E0
:1032F0008BFB8046A16907F057F905466661A56119
:103300002946A06807F080FB804607F0B7FABDE8C1
:10331000F09F0020FBE72DE9F04704460E461546D6
:103320000021606807F076FA22D00021284607F0D5
:1033300071FA1DD0304607F007FB8146616807F03F
:1033400063FB8046294607F05FFB0746216907F0CB
:103350002BF92061E06880F0004702463946206979
:1033600000F0EFFA2061206907F088FABDE8F087E5
:103370000020FBE72DE9F04104460D46284607F002
:10338000E3FA0746216807F03FFB064607F076FAA6
:10339000BDE8F0812DE9F04104460D461646294668
:1033A0002046FFF7E7FF0746324629462046FFF74B
:1033B000B2FF0744324629462046FFF765FF3844EE
:1033C000BDE8F0812DE9F04104460D461646294638
:1033D0002046FFF7CFFF0746324629462046FFF733
:1033E0009AFF3844BDE8F081002101617047000078
:1033F0000361023C30B50146002013E000FB00F2FF
:10340000193A32235A4302F6C41242435A4340F651
:10341000C41392FBF3F213B201F12C0222F8103024
:10342000421CD0B20728E9DB00202EE000EB80042C
:103430006400A4F132020123002A00DD3223002AB5
:1034400000DA3223002503FB03F495FBF4F4643423
:1034500054430A2594FBF5F404F5FA7425B201F1FE
:103460003A0424F8105034F910404FF448756C4376
:103470004FF47A7594FBF5F404F24C4425B201F153
:103480003A0424F81050421CD0B20C28CEDB30BDD8
:1034900010B504462046FFF7ADFF204610BD2DE9CC
:1034A000F05F0446002060E034F81010A1F2DC5117
:1034B000002904DD34F81010A1F2DC5104E034F8E6
:1034C000101040F2DC52511AB1F5FA7F10DA34F8DC
:1034D0001010A1F2DC51002904DD34F81010A1F223
:1034E000DC5107E034F8101040F2DC52511A01E0D0
:1034F0004FF4FA710E4602281FD0642196FBF1F5B5
:1035000004F12C016A1C31F9122031F91510511AFD
:1035100005EBC50202EB0512A6EB820251436422C1
:1035200091FBF2F204F12C0131F8151011440AB2AA
:1035300004F1140121F8102005E071420AB204F1EF
:10354000140121F8102034F8101040F2DC5291429E
:1035500009DA04F1140131F8101049420AB204F1F9
:10356000140121F81020411CC8B203289CDBE0881C
:103570004FF4FA6240F2E24100F012FA0646A6F277
:10358000E2404FF47A71484340F2EE21B0FBF1F68D
:10359000642096FBF0F59448007B08BB04F13A00E8
:1035A000691C30F9111030F91500081A05EBC50136
:1035B00001EB0511A6EB81014843642190FBF1F179
:1035C00004F13A0030F81500084401B26183E08844
:1035D0004FF4FA6240F2E24100F0E2F901B2618395
:1035E000B4F91800002802DDB4F9180002E0B4F9BB
:1035F00018004042462833DAE08840F2E24188422F
:103600002EDD7A4AD2F89812906807F0BDFB80460A
:1036100007F034F907B217F1B40F02DC07F5B47004
:1036200007B2B42F02DBA7F5B47007B2784207B235
:10363000384607F089F983466D48016F584607F010
:10364000E3F98146B4F9180007F07EF9824649464D
:1036500007F09AFB804607F011F901B2218304E0DC
:10366000624880686149C1F89802BDE8F09F014650
:10367000002034E031F81020B2F5617F04DB31F82E
:103680001020B2F5FA6F00DD2BE031F8102040F287
:10369000E2439A4207DA574A125C574B1B781A43A7
:1036A000554B1A7006E0534A135C534A12789A43FA
:1036B000514B1A7031F81020B2F5E16F07DD4F4A17
:1036C000125C4D4B1B781A434B4B1A7006E04B4A69
:1036D000135C494A12789A43474B1A70401C0428DD
:1036E000C8DB00BF444A12784AB1454A1278FA2A28
:1036F0000ADA434A1278521C414B1A7004E0002245
:103700003F4B1A703C4B1A703D4A1278642A29D1FB
:10371000354A527A6AB1384A127802F01002E2B1A0
:10372000354A127802F04002BAB100232E4A537291
:1037300013E0314A127802F0200272B12E4A127858
:1037400002F040024AB1284A127A1AB10123264AED
:10375000537202E001222B4B5A700022264B1A7042
:10376000274B1A70704728494989002936DD2649B8
:10377000498940F63402914230DA234949890029C7
:1037800009DD2149498940F21452914203DA0121AD
:103790001D4A918322E01C494989B1F5AF6F0BDDC9
:1037A00019494989B1F5C86F06DA0021164A918393
:1037B00040F27261C18011E01349498940F2A4626C
:1037C00091420BDD1049498940F63402914205DAF5
:1037D00000210D4A918340F2E241C180704700B55B
:1037E0000948FFF755FE00BDB4000020000200208C
:1037F0000801002052AF00083F00002056AF00082B
:103800003E00002030060020D005002010B53848CA
:10381000FCF7F1FF3648FDF70DFD10BD10B535483A
:10382000FEF7E8FA3348FEF771FB3348FEF78FF9ED
:103830003248FEF76EFE10BD10B52F48FEF7F9F8BE
:1038400010BD10B500F0CCFD10BD10B52C48FFF731
:1038500026FE2B48FFF70BFF2948FFF784FF24487B
:10386000FDF7B2FE2748FCF7B4FC2348FEF721FA27
:103870002148FEF71FFA10BD10B523480088012823
:1038800004DBFFF7C3FF00201F4908801E48408863
:10389000022804DBFFF7C2FF00201B4948801A48BA
:1038A0008088052804DBFFF7C7FF002016498880C1
:1038B0001548C0880A2804DBFFF7C3FF002012491F
:1038C000C88011480089142804DBFFF7BEFF0020E0
:1038D0000D49088110BD00210181C1808180418096
:1038E0000180704700B50848FFF7F5FF00BD0000F4
:1038F000C40000200002002008010020FC04002079
:10390000D0050020B40000202406002010B5044695
:10391000204605F044F908B1002010BD4FF07E515B
:10392000204607F03DF901D86748F6E76749204689
:1039300007F036F801D86648EFE7204605F002FAAE
:10394000EBE72DE9F04106460C461546304605F0FA
:1039500026F950B12946204606F026FE07464FF0CC
:103960007C5107F051F8BDE8F0812146304607F060
:1039700017F801D22046F6E72946304607F010F93D
:1039800001D22846EFE73046EDE703468B4201DAE5
:1039900008467047934201DD1046FAE71846F8E7FB
:1039A00003468B4201DA08467047934201DD104618
:1039B000FAE71846F8E703468B4201DA08467047F3
:1039C000934201DD1046FAE71846F8E7002801DDCA
:1039D000024600E042428A4201DA002006E0002866
:1039E00001DD401A02E0002800DA0844704710B5F3
:1039F00004463849204607F007F810BD10B50446C4
:103A00003549204607F000F810BD10B504462146A0
:103A1000204606F0F9FF10BD2DE9F04105460C46A1
:103A20002046FFF7F2FF07462846FFF7EEFF8046E5
:103A3000394606F0B9FD064605F0DCFFBDE8F08129
:103A40002DE9F05F06460C4615462846FFF7DDFFD8
:103A500081462046FFF7D9FF82463046FFF7D5FF63
:103A60008346514606F0A0FD8046494606F09CFD7F
:103A7000074605F0BFFFBDE8F09F2DE9FE4F074662
:103A80000C4615461E463046FFF7BFFF02902846FB
:103A9000FFF7BBFF01902046FFF7B7FF00903846C5
:103AA000FFF7B3FF8346009906F07EFD8246019939
:103AB00006F07AFD8146029906F076FD804605F013
:103AC00099FFBDE8FE8F0000DB0FC93F000080BFFB
:103AD000DB0FC9BF34FA8E3CE12E654270B5044657
:103AE00094E80F00FFF7C9FF05462946206806F055
:103AF000CFFD20602946606806F0CAFD6060294657
:103B0000A06806F0C5FDA0602946E06806F0C0FD8B
:103B1000E06070BD2DE9F04F85B004460D46A16808
:103B2000084606F071FF0746D4E9020106F06CFF73
:103B300080466168084606F067FF8146D4E90101C6
:103B400006F062FF8246E168606806F05DFF04905F
:103B5000D4E9000106F058FF0390A168206806F040
:103B600053FF0290E168206806F04EFF0190E16883
:103B7000084606F049FF00903846009906F014FD0B
:103B800083464FF0804106F03FFF06464FF07E51DE
:103B900007F068F828605046019907F0F5F80646E6
:103BA0004FF0804106F030FF68600299049806F0FB
:103BB000FBFC06464FF0804106F026FFA860504609
:103BC000019906F0F1FC06464FF0804106F01CFF1B
:103BD000E8604846009906F0E7FC83464FF08041D4
:103BE00006F012FF06464FF07E5107F03BF82861C1
:103BF0004046039907F0C8F806464FF0804106F0AA
:103C000003FF68610299049807F0BEF806464FF07A
:103C1000804106F0F9FEA8614046039906F0C4FC15
:103C200006464FF0804106F0EFFEE861394648460F
:103C300006F0BAFC83464FF0804106F0E5FE0646EA
:103C40004FF07E5107F00EF8286205B0BDE8F08F06
:103C50002DE9F04704460D46A168206806F0D4FE21
:103C60000746E168606806F0CFFE8046394607F0F7
:103C70008BF806464FF0804106F0C6FE2860D4E976
:103C8000020106F0C1FE0746D4E9000106F0BCFEC1
:103C90008046394606F088FC06464FF0804106F023
:103CA000B3FE6860A168084606F0AEFE8046616813
:103CB000084606F0A9FE8146414606F075FC074617
:103CC0004FF0804106F0A0FE06464FF07E5106F010
:103CD000C9FFA860BDE8F08770B58CB006460C46F9
:103CE00003AD284605F076FF054605F10C0005F00A
:103CF00071FFA0F10C0505F1180005F06BFFA0F1B4
:103D0000180500BFA06880F00040A06003A93046FD
:103D1000FFF700FF224603A9684605F095FF9DE8DE
:103D2000070084E80700A06880F00040A0600CB0A5
:103D300070BD2DE9F04F8FB004468946924650463B
:103D400006F006FCCDE90801D9F80810E06806F095
:103D50005BFE0490D9F80410A06806F055FE0390AD
:103D6000606880F000400190D9F8001006F04CFE29
:103D70000290039907F008F88346049907F004F8C5
:103D8000059006F0E5FB07460022F74B06F0F8F930
:103D9000CDE90601DDE9082306F0F2F905460E46F5
:103DA000206806F0D5FB2A463346CDE90A0106F025
:103DB0009DF8CDE90C0106F067F82060504606F04A
:103DC000C7FBCDE90601D9F80410E06806F01CFE37
:103DD0000490D9F80810A06806F016FE0390D9F8F0
:103DE0000010206806F010FE0290039906F0DCFB3C
:103DF0008346049906F0C8FF059006F0A9FB074624
:103E00000022D94B06F0BCF90546DDE9062306F091
:103E1000B7F9CDE90A01606806F09AFBCDE908011F
:103E2000DDE90A2306F062F8CDE90C0106F02CF872
:103E30006060504606F08CFBCDE90801D9F800100F
:103E4000E06806F0E1FD0490D9F80810606806F01B
:103E5000DBFD0390D9F80410206806F0D5FD029030
:103E6000039906F091FF8346049906F09DFB0590A7
:103E700006F06EFB0022BC4BCDE9060106F080F98E
:103E80000746DDE9082306F07BF9CDE90A01A068C1
:103E900006F05EFB0546DDE90A2306F027F8CDE9CA
:103EA0000C0105F0F1FFA060504606F051FBCDE992
:103EB0000601D9F80010A06806F0A6FD0390D9F815
:103EC0000410606806F0A0FD8346D9F80810206849
:103ED00006F09AFD5946029006F066FB804603996B
:103EE00006F052FF074606F033FB054600229E4BC4
:103EF00006F046F9CDE90401DDE9062306F040F9B4
:103F0000CDE90A01E06806F023FBCDE90801DDE90F
:103F10000A2305F0EBFFCDE90C0105F0B5FFE060E9
:103F20000FB0BDE8F08F2DE9F04F85B004460D4687
:103F300016461F464FF07C51284606F065FD824626
:103F400005F0C2F880464FF07C51304606F05CFD2B
:103F5000824605F0B9F881464FF07C51384606F0AC
:103F600053FD824605F0B0F804904FF07C5128468E
:103F700006F04AFD824605F077FC03904FF07C5135
:103F8000304606F041FD824605F06EFC02904FF08F
:103F90007C51384606F038FD824605F065FC0190FC
:103FA000DDE9021006F030FD0090019906F02CFDCD
:103FB00082464946404606F027FD0090049906F0E7
:103FC00023FD8346514606F0EFFA206040460299F1
:103FD00006F01AFD0090019906F016FD824649464A
:103FE000039806F011FD0090049906F00DFD83463C
:103FF000514606F0C9FE60604946039806F004FD8C
:104000000090019906F000FD82464046029906F0B4
:10401000FBFC0090049906F0F7FC8346514606F03D
:10402000C3FAA060DDE9021006F0EEFC00900499EE
:1040300006F0EAFC82464946404606F0E5FC009060
:10404000019906F0E1FC8346514606F09DFEE060D2
:1040500005B0BDE8F08F2DE9FE4F04460D4616462B
:104060001F468DB3A168084606F0CEFC019061683A
:10407000084606F0C9FC0090019906F095FA8346BF
:104080004FF0804106F0C0FC82464FF07E5106F0B2
:10409000E9FD8146D4E9020106F0B6FC8346D4E985
:1040A000000106F0B1FC5946019006F07DFA824607
:1040B0004FF0804106F0A8FC4946029004F0D6FE7D
:1040C0008046FFF79BFC2860C6B1E168606806F097
:1040D0009BFC8346A168206806F096FC5946029036
:1040E00006F052FE82464FF0804106F08DFC81467C
:1040F000FFF70CFC8046FFF781FC30608FB36168EE
:10410000084606F081FC01902168084606F07CFC18
:104110000090019906F048FA83464FF0804106F07E
:1041200073FC82464FF07E5106F02EFE0290E1684D
:10413000206806F069FC8346D4E9010106F064FCBE
:104140005946019006F020FE82464FF0804106F06D
:104150005BFC8146029904F089FE8046FFF74EFC25
:104160003860BDE8FE8F00000000E03F00B585B07C
:10417000684602F0DAFF50490098B0FBF1F04F4971
:10418000086005B000BD4E480068401C4C490860FE
:104190004C480088401C4B49088008464088401C19
:1041A000488008468088401C88800846C088401C9B
:1041B000C88008460089401C0881704700BF4048FD
:1041C00001684FF0E02082693D4800688142F6D1E5
:1041D0003A48006800EB4003C3EBC010C2EBC000DC
:1041E000364B1B68B0FBF3F001EB4103C3EBC1138B
:1041F00000EBC300704730B50446FFF7DFFF05460C
:1042000000BFFFF7DBFF401BA042FAD330BD10B563
:10421000044603E04FF47A70FFF7EDFF2000A4F1AD
:104220000104F7D110BD70B54FF4407001F030FEBD
:10423000FFF79CFF244800684FF47A72B0FBF2F15C
:10424000481EB0F1807F00D31BE0481E4FF0E022F3
:10425000506150170F22002807DA13071D0E1B4B61
:1042600000F00F04241F1D5503E013071C0E184B0C
:104270001C5400BF00204FF0E02290610720106125
:1042800000BF00F084FB01F029FCFB22042111484F
:1042900001F0E5F945F6C05001F028FB4FF4165047
:1042A00001F0BEFC00F056FD00F094F802F0CFF9EA
:1042B00000F0CDFA70BD000040420F004000002029
:1042C0004400002024060020A000002018ED00E09B
:1042D00000E400E0B006002008B50121084602F025
:1042E00084FF01214FF4017002F08CFF1020ADF823
:1042F000000000208DF803006946614802F0C6FC0A
:1043000008BD00B591B05F4802F058F85E480690CD
:104310005E480790002008900120099000200A9034
:1043200080200B9040000C9080000D9020200E907B
:1043300000020F900020109006A9524802F0E0F809
:104340000121504802F007F9002001908DF8080083
:1043500001208DF809004FF46020039000200490A4
:1043600001208DF8140001A947484C3801F025FEC2
:104370004FF4404002F0AAFE0523012204214248E6
:104380004C3801F0B2FE01213F484C3801F04CFEA0
:1043900001213D484C3801F03CFE3B484C3801F0CF
:1043A0005AFE00BF38484C3801F05AFE0028F9D1B7
:1043B00035484C3801F05EFE00BF33484C3801F000
:1043C0005EFE0028F9D101212F484C3801F061FE32
:1043D00011B000BD10B5FFF77FFFFFF792FF10BDD2
:1043E0002DE9F84F2948008806F0C6FA009006F03B
:1043F000AFF80646264A274B05F0C2FE04460D4696
:104400002548006806F0A4F80646244A244B05F027
:10441000B7FE804622462B4605F068FD824605F031
:1044200033FD1D4908604FF08B411B48006806F0C2
:104430002FF9824606F08CF806464FF06632194B8B
:1044400005F09EFE804600224FF0804305F098FE66
:10445000044605F019FD144908600846006806F096
:1044600077F804460022114B05F04EFE03D20121DD
:104470000F48417302E000210D484173BDE8F88FF9
:1044800000080140080002404C2401404800002080
:10449000FCA9F1D24D62603F4C000020560E2DB2B7
:1044A0009DEFEF3F66660A405000002000000C4080
:1044B000B4000020034606210622F7480188F74889
:1044C0000288ABB1012B1BD13AB94EF6EE608142A6
:1044D00001D1002070470120FCE739B94EF6EE60AB
:1044E000824201D10120F5E70020F3E7AB20F1E79C
:1044F00009B90020EEE70AB90120EBE7AB20E9E7B4
:104500000020E7E770B5042600240120FFF7D2FF62
:104510000446AB2C06D1E04800EB8420E04908605B
:10452000AB2070BDDC4800EB8420DD490860601CD6
:10453000D949891E01EB80250CE0D9480068006844
:10454000401C10B904263046EBE7D5480068001D32
:10455000D3490860D2480068A842EED38020E0E743
:1045600010B50424CC4802F0B7F80446042C01D05E
:10457000204610BD0021C84802F0B1F90446042CC1
:1045800001D02046F5E7C54802F0A6F804462046CB
:10459000EFE72DE9F04104460F4604250026DFF839
:1045A00004830120FFF786FF0646AB2E01D1BDE84C
:1045B000F081701CB849891E01EB802821E0B848C1
:1045C00000680068401CB8B93946B548006802F078
:1045D00086F90546042D01D02846E8E72146B04873
:1045E0000068801C02F07BF90546AD480068001D9C
:1045F000AB4908602846DAE7A9480068001DA849C9
:104600000860A74800684045D9D38020CFE72DE94E
:10461000F04706460F46002545F255584FF0010970
:104620009D4CA2460020FFF745FF0546AB2D01D16A
:10463000BDE8F087984800EB852A99480068841EF9
:104640000AE0B4F80080B04505D134F8020C388097
:104650004FF0000904E0241F0AF102008442F0D860
:1046600000BF4846E4E72DE9F0474FF0060A06266A
:1046700000250027A8464FF0FF398748B0F800A072
:10468000864806885FEA0A0075D0A0F56E40EE38CD
:1046900058B3A0F58850113800286DD146B97E482E
:1046A00002F01AF80446042C1ED02046BDE8F0871C
:1046B0004EF6EE60864210D1774802F00DF80446BF
:1046C000042C01D02046F1E70021744802F007F9DC
:1046D0000446042C08D02046E8E7FFF741FF0446D3
:1046E000042C01D02046E1E7AEE07EBB002522E0AD
:1046F0006948C0886C4931F81510884201D10FFA19
:1047000085F94D4515D0684931F815006749FFF71F
:104710007EFF8046B8F1010F0BD0634931F81500D8
:1047200062490988FFF735FF0746042F01D0384654
:10473000BCE7681C85B2192DDADB0021564802F06F
:10474000CEF80446042C02D02046AFE707E05348D9
:1047500001F0C2FF0446042C1FD02046A6E74FF606
:10476000FF70864212D14D4801F0B6FF0446042C7A
:1047700003D020469AE711E05EE00021464802F0AF
:10478000AEF80446042C08D020468FE7FFF7E8FE79
:104790000446042C01D0204688E755E036B9FFF7DF
:1047A000DFFE0446042C46D020467FE74FF6FF701C
:1047B000864207D1394801F08FFF0446042C3AD0D5
:1047C000204673E7002523E03448801D00883649E1
:1047D00031F81510884201D10FFA85F94D4515D0F1
:1047E000314931F815003149FFF711FF8046B8F122
:1047F000010F0BD02C4931F815002C490988FFF71F
:10480000C8FE0746042F01D038464FE7681C85B222
:10481000192DD9DB0021214802F061F80446042C4F
:1048200001D0204642E71C4801F056FF0446042C04
:1048300001D020463AE707E0FFF792FE0446042C39
:1048400001D0204632E700BF00BF04202EE710B59C
:10485000FFF709FF0446FFF755FE204610BD2DE97E
:10486000F84F074689460425DFF830A0AAF1010A6F
:10487000094800904FF00008002400264FF0000B7C
:104880000020FFF717FE8046B8F1010F10D1DFF8C6
:1048900008A00248009016E000000108000401088A
:1048A00058000020FF0701085AAF000854000020FC
:1048B000B8F1000F04D1DFF8C4A03148009002E045
:1048C000AB20BDE8F88F4EF6EE61504602F007F8D7
:1048D0000546042D01D02846F3E7FFF713FE4946AD
:1048E0003846FFF756FE0646042E01D03046E8E76C
:1048F00000241CE0234830F81400B84215D02149A8
:1049000031F814002049FFF782FE8346BBF1010F06
:104910000BD01C4931F814001B490988FFF739FEF8
:104920000646042E01D03046CBE7601C84B2192C19
:10493000E0DB009801F0D0FE0546042D01D02846AA
:10494000BFE70021504601F0CAFF0546042D01D003
:104950002846B6E72846B4E770B505460E4600245B
:1049600031462846FFF715FE0446802C04D1314617
:104970002846FFF774FF0446204670BD0004010876
:10498000000001085AAF000854000020704708B525
:104990000121082002F036FC4020ADF80000032081
:1049A0008DF8020014208DF803006946E84802F0F3
:1049B0006DF98020ADF8000003208DF8020014206E
:1049C0008DF803006946E24802F060F908BD7047BF
:1049D00000B501464020DE4A143210600846FFF759
:1049E000F6FF8020DA4A143210600846FFF7EFFF26
:1049F0004020D74A103210600846FFF7E8FF8020B9
:104A0000D34A103210600846FFF7E1FF00BD00B541
:104A100001464020CE4A143210600846FFF7D7FF07
:104A20008020CB4A103210600846FFF7D0FF4020AC
:104A3000C74A103210600846FFF7C9FFC448083063
:104A4000006800F0800040B14020C14A143210607C
:104A50000846FFF7BCFF002000BD4020BC4A1432CE
:104A600010600846FFF7B3FF0120F5E710B50246D6
:104A700008231DE04020B64C143420601046FFF798
:104A8000A6FF01F0800018B18020241F206003E001
:104A90008020AF4C143420604806010E1046FFF70A
:104AA00096FF4020AA4C103420601046FFF78FFF7D
:104AB0001800A3F10104E3B2DCD14020A44C14346B
:104AC000206010BD00B501468020A14A1032106060
:104AD000402010600846FFF77AFF9D4808300068C4
:104AE00008B9012000E0002000F0800008B100209B
:104AF00000BD8020964A143210600846FFF767FF19
:104B000093480830006800F0800008B10020EFE70B
:104B100080208F4A143210600846FFF758FF0120AA
:104B2000E6E7F0B506460F4614461D463046FFF749
:104B3000C9FF08B90020F0BD39463046FFF796FF9F
:104B40003046FFF764FF20B93046FFF741FF0020F1
:104B5000F1E721463046FFF789FF3046FFF757FF60
:104B600029463046FFF782FF3046FFF750FF3046B8
:104B7000FFF72EFF0120DEE700B501464020744A12
:104B8000143210600846FFF722FF8020704A10326E
:104B900010600846FFF71BFF40206D4A103210607E
:104BA0000846FFF714FF4020694A14321060084697
:104BB000FFF70DFF00BD10B502460823002180203D
:104BC000634C1034206016E04806010E4020604C13
:104BD000143420601046FFF7FAFE4020241F2060A6
:104BE0001046FFF7F4FE5A480830006800F08000D5
:104BF00008B141F001011800A3F10104E3B2E3D1CF
:104C00004020534C14342060084610BDF0B50646D1
:104C10000C4615463046FFF755FF08B90020F0BD99
:104C200021463046FFF722FF3046FFF7F0FE20B95D
:104C30003046FFF7CDFE0020F1E729463046FFF76A
:104C400015FF3046FFF7E3FE3046FFF73BFF601CE1
:104C5000C1B23046FFF70AFF3046FFF7D8FE3046B4
:104C6000FFF7A9FF07463046FFF786FF3046FFF7FC
:104C7000AFFE3846D3E700B501464020344A14322F
:104C800010600846FFF7A3FE8020314A14321060FE
:104C90000846FFF79CFE40202D4A1032106008465F
:104CA000FFF795FE40202A4A143210600846FFF7AD
:104CB0008EFE00BD2DE9F04381460E4617461C4688
:104CC000DDF81C80B8F1010F02DA0020BDE8F083A6
:104CD0004846FFF7F7FE08B90020F7E73146484697
:104CE000FFF7C4FE4846FFF792FE20B94846FFF79B
:104CF0006FFE0020EAE739464846FFF7B7FE484610
:104D0000FFF785FE4846FFF7DDFE701CC1B248463E
:104D1000FFF7ACFE4846FFF77AFE012509E048465A
:104D2000FFF749FF04F8010B4846FFF7A4FF681C92
:104D3000C5B24545F3DB4846FFF73DFF04F8010BDC
:104D40004846FFF719FF4846FFF742FE0120BDE73E
:104D5000000C01401CB50121102002F053FA4FF461
:104D60008040ADF8040010208DF8070003208DF876
:104D7000060001A91A4801F089FF0121102002F064
:104D800041FA4FF40050ADF8000010208DF80300F8
:104D900003208DF802006946114801F077FF1CBD21
:104DA00010B504464FF400510D4802F01CF810BD38
:104DB00010B504464FF48041094802F014F810BDC4
:104DC00010B504464FF40051054802F00EF810BD2E
:104DD00010B504464FF48041014802F006F810BDBA
:104DE0000010014010B504462046FFF7CFFD0446F1
:104DF000A01C04F020FF841E04F1080004F01BFF37
:104E0000A0F1080404F11C0004F0E4FEA0F11C046D
:104E100004F1280004F0DEFEA0F1280404F13400BF
:104E200004F0D8FEA0F13404204610BD30B503468E
:104E3000C822002007E000BF1400A2F10105AAB2B9
:104E4000FAD1441CE0B28842F5DB30BD2DE9F041D7
:104E500007460D4616462A2E15D006DC052E0CD028
:104E60000A2E0CD0142E16D10BE0622E0DD0BC2EC3
:104E70000DD0B6F5807F0ED10BE006240DE00524A1
:104E80000BE0042409E0032407E0022405E00124E8
:104E900003E0002401E0022400BF00BF80236B2256
:104EA000D0213846FFF73DFE05213846FFF7BEFF0B
:104EB0004FF47A7090FBF5F0401E00F0FF08434677
:104EC0001922D0213846FFF72CFE03236B22D02174
:104ED0003846FFF726FE02233722D0213846FFF757
:104EE00020FE23461A22D0213846FFF71AFE182347
:104EF0001B22D0213846FFF714FE10231C22D0219C
:104F00003846FFF70EFEBDE8F0812DE9F04104467A
:104F1000207800286AD0EA48007800F0010048B9FB
:104F2000E74803F055FE28B1E64804F053FEE44894
:104F3000AFF30080E448008880B900231A46194680
:104F4000A01C04F07DFE00231A461946DD4804F03B
:104F500046FE0120DC490880BDE8F08104F11C0117
:104F6000D84804F054FED8480088C82839D1D6481B
:104F7000008805F001FD0646D2490868314605F073
:104F800087FB054605F07AFC00B26080CE480088B9
:104F900005F0F2FC0646CB494868314605F078FB3F
:104FA000054605F06BFC01B2A180C748008805F0FA
:104FB000E3FC0746C3498868394605F069FB0646A5
:104FC0004FF08B4105F0E0FE054605F057FC01B2BD
:104FD000E1800020BC4908802070BC48FEF717F92A
:104FE000BAE7B9480088401CB749088000BFB3E75A
:104FF0002DE9FC4104463C22D0212046FFF706FE65
:10500000A0733B22D0212046FFF700FEE073A17B76
:10501000E07B41EA00206188401A00B2ADF8000050
:105020003E22D0212046FFF7F1FD20743D22D02101
:105030002046FFF7EBFD6074217C607C41EA002193
:10504000A088081A00B2ADF802004022D021204604
:10505000FFF7DCFDA0743F22D0212046FFF7D6FDEC
:10506000E074A17CE07C41EA0021E088081A00B2EB
:10507000ADF80400BDF9040005F066FC0546BDF975
:10508000020005F061FC0646BDF9000005F05CFC7D
:1050900007462B463246394604F11C0004F09FFDBA
:1050A0002046FFF732FFBDE8FC8170B5044660780A
:1050B00000286ED08648007800F0010048B9844886
:1050C00003F086FD28B1834804F084FD8048AFF3E7
:1050D00000808148008880B900231A46194604F1EF
:1050E000080004F0ADFD00231A461946794804F083
:1050F00076FD01207849088070BD04F128017548CB
:1051000004F085FD74480088C8283DD172480088A5
:1051100005F032FC06466F490868314605F0B8FADA
:10512000054605F0ABFB00B220816B48008805F016
:1051300023FC064667494868314605F0A9FA05464A
:1051400005F09CFB01B261816348008805F014FC06
:10515000064660498868314605F09AFA054605F02A
:105160008DFB01B2A18100205B49088060705B4823
:10517000007A28B901215948417201205749087223
:105180005248FEF75CF8B7E753480088401C524984
:10519000088000BFB0E72DE9FC4104464422D0213D
:1051A0002046FFF733FD20754322D0212046FFF72C
:1051B0002DFD6075217D607D41EA00202189401A26
:1051C00000B2ADF800004622D0212046FFF71EFDB8
:1051D000A0754522D0212046FFF718FDE075A17D7E
:1051E000E07D41EA00216089081A00B2ADF80200B2
:1051F0004822D0212046FFF709FD20764722D02102
:105200002046FFF703FD6076217E607E41EA0021A3
:10521000A089081A00B2ADF80400BDF9040005F039
:1052200093FB0546BDF9020005F08EFB0646BDF96D
:10523000000005F089FB07462B463246394604F14B
:10524000280004F0CCFC2046FFF72FFFBDE8FC81CE
:1052500010B5D1E90834CA6980E81C0010BD10B54A
:10526000D1E90B348A6A80E81C0010BD0FB470B518
:1052700005460C461A49069805F0C6FB0646FEF799
:10528000B6FB60631649079805F0BEFB0646FEF7BD
:10529000AEFBA0631249089805F0B6FB0646FEF780
:1052A000A6FBE063D4E90E12606B85E8070070BCD2
:1052B0005DF814FB10B50B48FFF794FD10BD00001E
:1052C0006000002070060020640000203A000020EA
:1052D000680000207C0600206C000020B400002044
:1052E0008DC1793D3006002010B5044601235822B7
:1052F000EE212046FFF715FC10BD7CB505460020C9
:1053000001900026002418E002200090A02000EB6D
:105310004400C2B201ABEE212846FFF7CBFC30447B
:10532000C6B29DF805009DF8041040EA012105F180
:10533000100020F81410601CC4B2082CE4DB082E06
:1053400001D101207CBD0020FCE710B504460123FB
:105350001E22EE212046FFF7E4FB10BD10B50446E7
:105360000A20FEF754FF2046FFF7EFFF0320FEF769
:105370004EFF2046FFF7C1FF2046FFF7B5FF10BDE7
:1053800010B5044601234822EE212046FFF7C9FB51
:1053900010BD38B50446032004F120030022EE219D
:1053A00000902046FFF786FC38BD2DE9F04F8BB00A
:1053B00004464FF00008C14694F820000104212063
:1053C000005D41EA00202221095D0843A06094F8B5
:1053D000230001042420005D41EA00202521095D0D
:1053E0000843E060608BA168A1EB0025A08A00045F
:1053F0000022218B4FEAE57CA1FB05BE02FB05E301
:1054000001FB0C334FEADB1141EA4361401842EBE8
:10541000E312CDE90802608A4FEAC0304246E18AD1
:105420004FEAE57CA1FB05BE02FB05E301FB0C3363
:105430004FEA1B2141EA0361401842EB2322CDE9E8
:105440000602A08B42464FEAE573A0FB051C02FB57
:1054500005C200FB03204FEA402242EAD1504FF43C
:10546000FA614718B7F5FA6F19DAA7F5FA667643C5
:1054700006EB86004FEA600806EB86004FEAA009BB
:10548000544887420BDA07F2DC567643072000FBCC
:10549000068806EB460000EBC60009EB6009DDE973
:1054A0000801B0EB080061EBE871CDE90801DDE926
:1054B0000601B0EB090061EBE971CDE906014FF09F
:1054C0000003E168DDE9062CA1FB020B03FB02B23D
:1054D00001FB0C224FEA505141EAC22C4FEA6251C3
:1054E000DDE90802BCEB000061EB0201C00B40EA01
:1054F000414A504605F028FA3749019005F0C8F8AE
:105500008346364802905846029903F09FFE4FF0BA
:105510007E51039005F0A6FB3149049005F074FA22
:10552000059005F0ABF98246606818B16068AAEB97
:10553000000020602B480078B0B12A480078401E57
:105540002849087008460078C82804DA2648006808
:105550005044254908602348007828B9224800684B
:10556000C72190FBF1F060600BB0BDE8F08F38B55B
:105570000446032004F123030022EE21009020467C
:10558000FFF798FB38BD10B504461848006860B1B5
:105590002046FFF7ECFF2046FFF7A6FE2046FFF768
:1055A00004FF00201149086008E02046FFF7F1FEE3
:1055B0002046FFF7E5FE01200C49086010BD0146BA
:1055C0000868704710B50A4C2046FFF7DFF904461B
:1055D00000BF10BD24FAFFFF80E6C547B1DC423EA4
:1055E000D048874A78000020740000207000002016
:1055F000880600202DE9F04105460E46144628464F
:1056000000F000FB3146284600F0CAFA0746214662
:10561000284600F0C5FA284600F0ECFA3846BDE806
:10562000F0812DE9F0470746884615461E46384664
:1056300000F0E8FA4146384600F0B2FA814600240C
:1056400005E0295D384600F0ABFA601CC4B2B442F4
:10565000F7DB384600F0CEFA4846BDE8F08770B573
:1056600005460C461646284600F0BCFA05239C4A1F
:105670002A212846FFF7D5FF05239A4A30212846DC
:10568000FFF7CFFF012221212846FFF7B3FF0122B8
:1056900022212846FFF7AEFF1A2224212846FFF7D1
:1056A000A9FF324625212846FFF7A4FF0F22262115
:1056B0002846FFF79FFF012C0AD1FF2231212846FF
:1056C000FFF798FF0F2220212846FFF793FF51E0B4
:1056D000022C0AD1FF2231212846FFF78BFF0E2230
:1056E00020212846FFF786FF44E0032C21D1FF222A
:1056F000E1212846FFF77EFFFF22E2212846FFF73F
:1057000079FF0F2220212846FFF774FF50212846F9
:1057100000F046FA7321284600F042FA01223C21AB
:105720002846FFF767FF06223D212846FFF762FF64
:1057300020E00E2220212846FFF75CFFFF22E12116
:105740002846FFF757FFFF22E2212846FFF752FFC6
:105750005021284600F024FA7321284600F020FA50
:1057600001223C212846FFF745FF06223D2128461D
:10577000FFF740FF284600F02DFA70BD70B50646D1
:105780000C461546304600F02DFA0523554A2A21CD
:105790003046FFF746FF2B462246A0213046FFF752
:1057A00040FF304600F016FA70BD70B506460C4654
:1057B0001546304600F016FA2B462246A821304600
:1057C000FFF72FFF304600F005FA70BD2DE9F047D6
:1057D0000746884615461E46384600F013FA4146ED
:1057E000384600F0DDF98146002406E00021384605
:1057F00000F0D6F92855601CC4B2B442F6DB384636
:1058000000F0F8F94846BDE8F0877CB50546052369
:10581000344A30212846FFF704FF05236A46102149
:105820002846FFF7D3FF002408E01DF804002D49A7
:10583000095D884200D003E0601CC4B2052CF4DB93
:1058400000BF052C01D101207CBD0020FCE770B514
:1058500004460D46204600F0D5F92946204600F0C2
:105860009FF90021204600F09BF90646204600F0F3
:10587000C1F9304670BD70B5054607212846FFF7CF
:10588000E6FF044604F04000C0B160212846FFF75F
:10589000DEFF0646212E0BDA33462A4661212846D2
:1058A000FFF794FF324629460F48FAF73EFD04E021
:1058B000FF22E2212846FFF79DFE00BF04F0100002
:1058C00038B104F0010020B1FF22E1212846FFF7A2
:1058D00091FE224627212846FFF78CFE70BD00006E
:1058E0007E00002079000020C400002030B589B07F
:1058F000054601210C2001F085FC0F20ADF80400C5
:1059000003208DF8060018208DF8070001A96D48C6
:1059100001F0BCF90320ADF8040001A96A4801F0C8
:10592000B5F900BF0121084601F079FC4FF47A7007
:10593000684366490968B1FBF0F0401E84B240F24A
:10594000E730ADF81C00ADF818400020ADF81E009F
:10595000ADF81A0006A94FF0804001F011FF602059
:10596000ADF808000120ADF80A000020ADF80E00E7
:10597000ADF8100002A94FF0804001F03EFF082171
:10598000C80602F089FB02A94FF0804001F077FFC2
:105990000821C80602F089FB02A94FF0804001F0FF
:1059A000BBFF0821C80602F08DFB02A94FF0804022
:1059B00001F0FDFF0821C80602F08DFB01218807D8
:1059C00002F03AFB0121880702F036FA0121022099
:1059D00001F025FC3D4800683D49B0FBF1F0401E58
:1059E00084B240F2E730ADF81C00ADF8184000205A
:1059F000ADF81E00ADF81A0006A9364801F0C0FE49
:105A00006020ADF808000120ADF80A000020ADF8D4
:105A10000E00ADF8100002A92E4801F07DFF08210C
:105A20002C4802F04FFB02A92A4801F0C0FF0821D0
:105A3000284802F050FB0121264802F0FDFA01211E
:105A4000244802F0F9F909B030BD0246002014E004
:105A500031F91030B3F57A7F04DA4FF47A7321F814
:105A6000103008E031F91030B3F5FA6F03DD4FF470
:105A7000FA6321F81030431CD8B20628E8DB088806
:105A8000A0F57A704FF0804398864888A0F57A7028
:105A9000104B3C3318808888A0F57A704FF0804313
:105AA0009887C888A0F57A700A4B40331880088917
:105AB000A0F57A701B0618874889A0F57A70064B06
:105AC0001880704700080140000C0140A000002031
:105AD00000366E01000400404000004000B587B071
