:020000040800F2
:10000000300B00207D470008292A00088747000898
:100010002B2A00082F2A0008332A000800000000BD
:10002000000000000000000000000000372A000867
:10003000392A000800000000934700083B2A000806
:100040009747000897470008974700089747000818
:100050009747000897470008974700089747000808
:1000600097470008974700089747000897470008F8
:1000700097470008974700089747000897470008E8
:1000800097470008974700089747000897470008D8
:1000900097470008974700089747000897470008C8
:1000A00097470008974700089747000897470008B8
:1000B00097470008974700089747000897470008A8
:1000C0009747000897470008974700089747000898
:1000D00097470008432A00089747000897470008F9
:1000E00097470008974700089747000800F002F874
:1000F00000F03CF80AA090E8000C82448344AAF186
:100100000107DA4501D100F031F8AFF2090EBAE883
:100110000F0013F0010F18BFFB1A43F0010318473B
:100120000859000028590000103A24BF78C878C147
:10013000FAD8520724BF30C830C144BF04680C60ED
:10014000704700000023002400250026103A28BF35
:1001500078C1FBD8520728BF30C148BF0B60704739
:100160001FB504F02FFB1FBD10B510BD04F050FBF0
:100170001146FFF7F5FF00F009F804F06EFB03B439
:10018000FFF7F2FF03BC04F06FFB000001F044F83E
:10019000044800F0C0FA044800F031FA01E000F031
:1001A00006FFFCE702000020A000002001224272AE
:1001B000704710B50446A07AD0B112480078401CB0
:1001C0001049087008460078012804D0192806D084
:1001D00032280CD107E00C4801F0B4FD07E00A48D2
:1001E00001F0B8FD03E000200649087000BF02E0FE
:1001F000054801F0A7FD10BD00B50448FFF7D6FF84
:1002000000BD000000000020100000206000002061
:1002100010B504466D48007850B100206B49087055
:100220006B48C078401DC2B269496A4802F0E5F8DF
:100230006948007860B1002067490870644890F808
:100240002300401DC2B262492031624802F0D5F855
:10025000604802F038F910BD70B504460E461546E8
:100260002A46611C5B4802F0B1F870BD70B50446C7
:100270000025AA2229466D1C601C4254AF22294643
:100280006D1C4254032229466D1C4254002229460B
:100290006D1C42545148C27929466D1C601C425461
:1002A0004E48827929466D1C601C42544B48427965
:1002B00029466D1C601C4254484802792846691C36
:1002C000CDB2611C0A54454842782846691CCDB21B
:1002D000611C0A54414802782846691CCDB2611C51
:1002E0000A543E48C2782846691CCDB2611C0A54A3
:1002F0003A4882782846691CCDB2611C0A543748B6
:10030000427A2846691CCDB2611C0A543348027AED
:100310002846691CCDB2611C0A543048C27A28466E
:10032000691CCDB2611C0A542C48827A2846691C8B
:10033000CDB2611C0A542948427B2846691CCDB2C3
:10034000611C0A542548027B2846691CCDB2611CF9
:100350000A542248C27B2846691CCDB2611C0A544B
:100360001E48827B2846691CCDB2611C0A54281F96
:1003700020710026002005E0611C095C3144CEB2EA
:10038000411CC8B2A842F7DB2846691CCDB2611CEB
:100390000E542A462046FFF75FFF70BD10B5044695
:1003A0000F480078012800D102E00120207000BF32
:1003B00000BF0B480078401C09490870207820B124
:1003C000002020702046FFF751FF10BD34000020B0
:1003D0008A0400208C01002035000020D00000207D
:1003E000010000202DE9F04781460C4615462946BC
:1003F000634805F093F8804641464FF07E5004F084
:100400002FFF0746214604F0B7FE06463146204638
:1004100004F026FFBDE8F0875A4A0A605A4A4A604B
:100420005A4A8A6070472DE9F04107460D46144646
:100430002146284604F0A0FE06463146204604F038
:100440000FFFBDE8F0810FB4F0B58DB005460F4643
:100450001A9C224617A904A804F024FB04A807C884
:1004600007AB07C321464FF07E5005F0E7F906467B
:10047000324614A901A804F015FB01A807C80AAB6D
:1004800007C307AA0AA9284604F028FB0DB0F0BC50
:100490005DF814FB0FB470B59EB005460E461446C9
:1004A0000FA8002181604160016000BF04F10C01D0
:1004B0000CA8A26804F0F6FA0CA807C812AB07C390
:1004C00004F1180109A8626804F0ECFA09A807C849
:1004D00015AB07C325A906A8226804F0E3FA06A80D
:1004E00007C818AB07C315AA18A903A804F0F6FAA1
:1004F00003A807C81BAB07C312AA1BA9684604F0D0
:10050000B5FA9DE807000FAB07C3D4E90712A0694D
:10051000C4E90412E0600FA807C8C4E90712A0618B
:100520000FA807C885E807001EB070BC5DF814FB73
:100530000FB4F0B58DB005460F461A9C21464FF01A
:100540007E5005F07BF90646324617A904A804F050
:10055000A9FA04A807C807AB07C3224614A901A833
:1005600004F0A0FA01A807C80AAB07C307AA0AA9A2
:10057000284604F0B3FA0DB0F0BC5DF814FB00009F
:10058000DB0FC9404FE2403E6808833FA725593E34
:1005900010B50446204600BF0446204604F040FA49
:1005A000044604F10C0004F03BFAA0F10C0404F141
:1005B000180004F035FAA0F1180404F1240004F046
:1005C0002FFAA0F12404204610BD10B50446622283
:1005D0004FF47A71344801F0FBFB10BD10B50446AE
:1005E000324A33492046FFF7FDFE32490860324A5D
:1005F0002F492046FFF717FF2E49486010BD10B560
:1006000004462046FFF7EAFF2046FFF7DEFF10BD55
:100610003EB50446244801F0ABFC234801F070FDD0
:100620002149684601F0D7FD9DE80700C4E904129E
:10063000E0601D49684601F0C0FD9DE80700C4E97F
:100640000712A0613EBD10B5059C10BD10B588B065
:100650000446184800680490D4E90702A169CDE96E
:1006600002020191E06A0090214605A8D4E909231D
:10067000FFF7E9FE05A807C8C4E90A1260620C4842
:100680000390D4E90A12606A8DE807002046D4E995
:100690000423E168FFF7D7FF08B010BD10B5074885
:1006A000FFF776FF10BD0000340100200000F0418C
:1006B0006F12033B600000209A99993FA000002030
:1006C0001CB5044628494888694600F068FF264959
:1006D00088880DF1020100F062FF2349C88801A952
:1006E00000F05DFF204908890DF1060100F057FF79
:1006F000002007E03DF810100AB21C4921F8102034
:10070000411CC8B20428F5DB1CBD10B504462046C8
:10071000FFF7D6FF10BD10B504462046FFF7F5FFE2
:1007200010BD10B50446114A103A128A91B20E4A11
:10073000508801F0D9F80D4A103A528A91B20A4A0B
:10074000908801F0D1F8094A103A928A91B2064A8B
:10075000D08801F0C9F8054A103AD28A91B2024A0B
:10076000108901F0C1F810BD065A0008E000002011
:10077000FE4901620A464262826240F24C410181B6
:100780004181704700B503461846FFF7F1FF184650
:1007900000BD2DE9FC5F0446F549C88804F076FEEB
:1007A000834604F0BDFC0746F24AF34B04F0D0FA4E
:1007B00081468A46206A04F0B3FC0746EF4AF04BB4
:1007C00004F0C6FA05464A46534604F0D5F9CDE989
:1007D000000104F09FF92062E549888804F056FE84
:1007E000834604F09DFC0746E24AE34B04F0B0FA6E
:1007F00005460E46606A04F093FC0746DF4AE04B6C
:1008000004F0A6FA2A463346CDE9000104F0B4F913
:10081000814604F07FF96062D549488804F036FECD
:10082000834604F07DFC0746D24AD34B04F090FA8D
:1008300005460E46A06A04F073FC0746CF4AD04B2B
:1008400004F086FA2A463346CDE9000104F094F913
:10085000814604F05FF9A062C549088804F016FEDD
:10086000834604F05DFC0746C24AC34B04F070FAAD
:1008700081468A46E06A04F053FC0746BF4AC04BF3
:1008800004F066FA05464A46534604F075F9CDE988
:10089000000104F03FF9E062B549488904F0F6FD33
:1008A0006064B349888904F0F1FDA064BDE8FC9F51
:1008B0002DE9FC5F8246B348407A002852D04FF0C1
:1008C0008041DAF8200004F0CBFC0646AE4904F083
:1008D00022FF0546AC4904F04FFC044604F09EFD9F
:1008E000BAF81010401AAAF80000BAF80010A1F2E5
:1008F000DC5004F016FA8046A44AA54B04F028FA0E
:1009000006460022A34B04F037F9044604F0DCF954
:10091000AAF800004FF08041DAF8240004F0A0FCAF
:100920000546994904F028FC044604F077FDBAF81E
:100930001210401AAAF80200BAF80210A1F2DC5014
:1009400004F0EFF98046914A914B04F001FA064613
:100950000022904B04F010F9044604F0B5F9AAF80F
:10096000020047E08748807A002843D08A49086817
:100970008A4904F0D3FD834604F034FD0FFA80F970
:100980004FF4FA725142484600F099FB804604F059
:10099000C8F906467D4A7E4B04F0DAF900227D4B09
:1009A000CDE9000104F0E8F8044604F08DF9AAF856
:1009B000000079494868794904F0B0FD009004F0DE
:1009C00011FD00B24FF4FA725142019000F077FB32
:1009D000834604F0A6F980466C4A6D4B04F0B8F9E2
:1009E000064600226B4B04F0C7F8044604F06CF98D
:1009F000AAF802004FF08041DAF8280004F030FC39
:100A00000646614904F087FE05465F4904F0B4FBE1
:100A1000044604F003FDBAF81410401AAAF80400C2
:100A2000BAF80410A1F2DC5004F07BF90646574AEC
:100A3000574B04F08DF904460022564B04F09CF805
:100A4000804604F041F9AAF804004FF08041DAF83A
:100A50002C0004F005FC05464B4904F08DFB0446D0
:100A600004F0DCFCBAF81610401AAAF80600BAF82E
:100A70000610A1F2DC5004F054F98046434A444B7E
:100A800004F066F906460022424B04F075F804466D
:100A900004F01AF9AAF80600DAF8440004F0BEFCE3
:100AA000AAF84000DAF8480004F0B8FCAAF84200BE
:100AB000BDE8FC9F10B504463948007820B138489D
:100AC0000078401E36490870B4F8400064281FDAE8
:100AD00034480078E0B13248007810B90A20304933
:100AE0000870B4F84000642811DA2E480078002815
:100AF0000DD02B480078012809D1E08A801E01B270
:100B0000E1822948FFF70DFE002026490870F8E031
:100B1000B4F8400040F29E7188424BDDB4F84000CA
:100B200040F63401884245DA1E480078F0B31C488C
:100B3000007810B90A201A490870B4F8400040F251
:100B40009E718842E3DDB4F8400040F634018842EB
:100B5000DDDA134800780128D9D1A08A801C01B2BF
:100B6000A1821148FFF7DDFD002020E00080BB449A
:100B7000260100207B14AE47E17A843FAE47E17A3C
:100B800014AEEF3F6000002000007A44CDCCCCCC06
:100B9000CCCCEC3F00709740A0000020000020412A
:100BA00004000020030000200200002002E0EB49C6
:100BB0000870A6E0B4F8400040F65A21884229DDCA
:100BC000B4F8400040F6BE21884223DAE3480078BA
:100BD00000B3E348007810B90A20E1490870B4F87E
:100BE000400040F65A21884291DDB4F8400040F6BA
:100BF000BE2188420DDADA480078012809D1E08A5E
:100C0000801C01B2E182D748FFF78BFD0020D34959
:100C1000087076E0B4F8400040F6B831884229DD2B
:100C2000B4F8400040F61C41884223DACB480078F3
:100C300000B3CB48007810B90A20C9490870B4F84D
:100C4000400040F6B83188425BDDB4F8400040F621
:100C50001C41884255DAC2480078012851D1A08A47
:100C6000801E01B2A182BF48FFF75BFD0020BB4997
:100C7000087046E0B4F84000B0F5486F41DDB4F8C4
:100C8000400040F6E44188423BDAB448007888B33B
:100C9000B348007810B90A20B1490870B4F8400090
:100CA000B0F5486F2DDDB4F8400040F6E4418842CD
:100CB00027DAAA480078E8B1A9480078012820D1AD
:100CC000A948407A28B10021A748417201218172C8
:100CD00007E0A548807A20B10121A3484172002194
:100CE0008172208940F24C41884204D140F2DC50AC
:100CF000208103E005E040F24C402081002097492C
:100D00000870B4F8420064281FDA94480078E0B113
:100D10009348007810B90A2091490870B4F842004D
:100D2000642811DA8D48007800280DD08C480078AE
:100D3000012809D1608A801E01B261828948FFF7CB
:100D4000F0FC002085490870F4E0B4F8420040F25D
:100D50006C7188422DDDB4F8420040F634018842BF
:100D600027DA7E48007820B37D48007810B90A2041
:100D70007B490870B4F8420040F26C718842E3DDB0
:100D8000B4F8420040F634018842DDDA7348007856
:100D90000028D9D0724800780128D5D1208A801E39
:100DA00000B220826F48FFF7BCFC00206B4908703E
:100DB000C0E0B4F8420040F6282188422BDDB4F8A8
:100DC0004200B0F52F6F26DA6448007818B3644803
:100DD000007810B90A2062490870B4F8420040F661
:100DE0002821884216DDB4F84200B0F52F6F11DAE1
:100DF0005A48007800280DD059480078012809D1B8
:100E0000608A801C01B261825648FFF78AFC00208C
:100E1000524908708EE0B4F8420040F686318842AC
:100E20002CDDB4F8420040F64E41884226DA4B48A9
:100E3000007818B34A48007810B90A204849087069
:100E4000B4F8420040F68631884273DDB4F84200BF
:100E500040F64E4188426DDA40480078E8B3404899
:100E60000078012866D1208A801C00B220823D488B
:100E7000FFF757FC0020394908705BE0B4F84200E6
:100E8000B0F5486F40DDB4F8420040F6E4418842D6
:100E90003ADA32480078B0B33148007810B90A2005
:100EA0002F490870B4F84200B0F5486F42DDB4F83D
:100EB000420040F6E44188423CDA2848007860B1BC
:100EC00027480078012835D1608940F24C4188429A
:100ED00004D140F2DC50608111E02BE0608940F2E7
:100EE000DC51884203D140F26C70608107E0608978
:100EF00040F26C71884202D140F24C406081002087
:100F00001649087016E0FFE7B4F8420040F61651A3
:100F100088420FDDB4F8420040F67A51884209DA7F
:100F20000E48007830B10E48007810B90A200C49FC
:100F3000087000BFB4F8420040F6D271884206DD66
:100F4000B4F84000884202DD01200449087010BD59
:100F500000B50648FFF716FC00BD000003000020A6
:100F6000040000200200002060000020D0000020CB
:100F700010B52E48FFF70DFC10BD10B52C48FFF73B
:100F800047FB2B48FFF762FB10BD10B52748FFF762
:100F90008FFC10BD10B52548FFF78CFD2548FFF7E5
:100FA00008F910BD10B52448FFF7F8F910BD10B5C9
:100FB0002148FFF72DF921480088012804DBFFF7BD
:100FC000D7FF00201D4908801C484088022804DB08
:100FD000FFF7D3FF0020194948801848808805286A
:100FE00004DBFFF7D2FF0020144988801348C08833
:100FF0000A2804DBFFF7CEFF00201049C8800F4805
:1010000000891E2804DBFFF7CDFF00200B49088173
:1010100010BD00210181C180818041800180704725
:1010200000B50648FFF7F5FF00BD0000D000002026
:10103000A0000020600000206C0000201C010020A7
:1010400010B50446204603F028FC08B1002010BD6E
:101050004FF07E51204604F02DFB01D85E48F6E7A4
:101060005E49204604F026FA01D85D48EFE72046A5
:1010700003F028FCEBE72DE9F04106460C46154647
:10108000304603F00AFC50B12946204604F074F8BB
:1010900007464FF07C5104F041FABDE8F08121464B
:1010A000304604F007FA01D22046F6E729463046DA
:1010B00004F000FB01D22846EFE73046EDE7034697
:1010C0008B4201DA08467047934201DD1046FAE789
:1010D0001846F8E703468B4201DA08467047934208
:1010E00001DD1046FAE71846F8E703468B4201DABD
:1010F00008467047934201DD1046FAE71846F8E7C4
:1011000010B504463749204604F008FA10BD10B562
:1011100004463549204604F001FA10BD10B50446D6
:101120002146204604F0FAF910BD2DE9F0410546AC
:101130000C462046FFF7F2FF07462846FFF7EEFF72
:101140008046394604F018F8064603F04FFCBDE827
:10115000F0812DE9F05F06460C4615462846FFF75C
:10116000DDFF81462046FFF7D9FF82463046FFF774
:10117000D5FF8346514603F0FFFF8046494603F002
:10118000FBFF074603F032FCBDE8F09F2DE9FE4F60
:1011900007460C4615461E463046FFF7BFFF029035
:1011A0002846FFF7BBFF01902046FFF7B7FF0090EE
:1011B0003846FFF7B3FF8346009903F0DDFF824610
:1011C000019903F0D9FF8146029903F0D5FF8046CB
:1011D00003F00CFCBDE8FE8FDB0FC93F000080BFB1
:1011E000DB0FC9BF34FA8E3CE12E65422F480088E0
:1011F000401C2E49088008464088401C488008460C
:101200008088401C88800846C088401CC8800846EA
:101210000089401C0881704770B54FF4A06001F050
:1012200015FC234800684FF47A72B0FBF2F1481EB7
:10123000B0F1807F00D31BE0481E4FF0E0225061E8
:1012400050170F22002807DA13071D0E194B00F064
:101250000F04241F1D5503E013071C0E164B1C54CE
:1012600000BF00204FF0E02290610720106100BF16
:1012700000F055FB114801F0F9F901F059F9FB2292
:1012800003210F4801F013F80D4801F0E6F820B1F2
:1012900006480089401C0549088100F0C2F800F0AA
:1012A0003DFD01F0B2FF00F09AFA70BD1C01002074
:1012B0004C00002018ED00E000E400E020A1070051
:1012C0008C01002008B50121084602F06CFD0121C7
:1012D0004FF4037002F074FD0320ADF8000000200D
:1012E0008DF803006946524802F0AEFA1F20ADF8AF
:1012F000000069464F4802F0A7FA08BD00B591B05A
:101300004D4801F039FE4D4806904D4807900020A9
:1013100008900720099000200A9080200B90400040
:101320000C9080000D9020200E9000020F90002065
:10133000109006A9404801F0C1FE01213E4801F08D
:10134000E8FE0020019001208DF808008DF80900CA
:101350004FF4602003900020049007208DF81400C3
:1013600001A936484C3801F006FC4FF4004002F069
:101370008BFC05230122002130484C3801F093FCFE
:101380000523022201212D484C3801F08CFC052355
:101390000322022129484C3801F085FC0523042250
:1013A000032126484C3801F07EFC05231A4604210F
:1013B00022484C3801F077FC0523062208211F48FB
:1013C0004C3801F070FC0523072209211B484C38DA
:1013D00001F069FC012119484C3801F003FC01219E
:1013E00016484C3801F0F3FB14484C3801F011FC5E
:1013F00000BF12484C3801F011FC0028F9D10F4809
:101400004C3801F015FC00BF0C484C3801F015FCBD
:101410000028F9D1012109484C3801F018FC11B01D
:1014200000BD10B5FFF74EFFFFF768FF10BD0000CD
:10143000000C014000080140080002404C2401401B
:1014400026010020034606210622F7480188F748B6
:101450000288ABB1012B1BD13AB94EF6EE60814246
:1014600001D1002070470120FCE739B94EF6EE604B
:10147000824201D10120F5E70020F3E7AB20F1E73C
:1014800009B90020EEE70AB90120EBE7AB20E9E754
:101490000020E7E770B5042600240120FFF7D2FF03
:1014A0000446AB2C06D1E04800EB8420E0490860FC
:1014B000AB2070BDDC4800EB8420DD490860601C77
:1014C000D949891E01EB80250CE0D94800680068E5
:1014D000401C10B904263046EBE7D5480068001DD3
:1014E000D3490860D2480068A842EED38020E0E7E4
:1014F00010B50424CC4801F0CDFE0446042C01D0E4
:10150000204610BD0021C84801F0C7FF0446042C46
:1015100001D02046F5E7C54801F0BCFE0446204650
:10152000EFE72DE9F04104460F4604250026DFF8D9
:1015300004830120FFF786FF0646AB2E01D1BDE8EC
:10154000F081701CB849891E01EB802821E0B84861
:1015500000680068401CB8B93946B548006801F019
:101560009CFF0546042D01D02846E8E72146B048F7
:101570000068801C01F091FF0546AD480068001D21
:10158000AB4908602846DAE7A9480068001DA84969
:101590000860A74800684045D9D38020CFE72DE9EF
:1015A000F04706460F46002545F255584FF0010911
:1015B0009D4CA2460020FFF745FF0546AB2D01D10B
:1015C000BDE8F087984800EB852A99480068841E9A
:1015D0000AE0B4F80080B04505D134F8020C388038
:1015E0004FF0000904E0241F0AF102008442F0D801
:1015F00000BF4846E4E72DE9F0474FF0060A06260B
:1016000000250027A8464FF0FF398748B0F800A012
:10161000864806885FEA0A0075D0A0F56E40EE386D
:1016200058B3A0F58850113800286DD146B97E48CE
:1016300001F030FE0446042C1ED02046BDE8F087A1
:101640004EF6EE60864210D1774801F023FE044644
:10165000042C01D02046F1E70021744801F01DFF61
:101660000446042C08D02046E8E7FFF741FF044673
:10167000042C01D02046E1E7AEE07EBB002522E04D
:101680006948C0886C4931F81510884201D10FFAB9
:1016900085F94D4515D0684931F815006749FFF7C0
:1016A0007EFF8046B8F1010F0BD0634931F8150079
:1016B00062490988FFF735FF0746042F01D03846F5
:1016C000BCE7681C85B2102DDADB0021564801F01A
:1016D000E4FE0446042C02D02046AFE707E053485E
:1016E00001F0D8FD0446042C1FD02046A6E74FF693
:1016F000FF70864212D14D4801F0CCFD0446042C07
:1017000003D020469AE711E05EE00021464801F050
:10171000C4FE0446042C08D020468FE7FFF7E8FEFD
:101720000446042C01D0204688E755E036B9FFF77F
:10173000DFFE0446042C46D020467FE74FF6FF70BC
:10174000864207D1394801F0A5FD0446042C3AD061
:10175000204673E7002523E03448801D0088364981
:1017600031F81510884201D10FFA85F94D4515D091
:10177000314931F815003149FFF711FF8046B8F1C2
:10178000010F0BD02C4931F815002C490988FFF7BF
:10179000C8FE0746042F01D038464FE7681C85B2C3
:1017A000102DD9DB0021214801F077FE0446042CDE
:1017B00001D0204642E71C4801F06CFD0446042C91
:1017C00001D020463AE707E0FFF792FE0446042CDA
:1017D00001D0204632E700BF00BF04202EE710B53D
:1017E000FFF709FF0446FFF755FE204610BD2DE91F
:1017F000F84F074689460425DFF830A0AAF1010A10
:10180000094800904FF00008002400264FF0000B1C
:101810000020FFF717FE8046B8F1010F10D1DFF866
:1018200008A00248009016E000000108000401082A
:101830000C000020FF070108065A000808000020DD
:10184000B8F1000F04D1DFF8C4A03148009002E0E5
:10185000AB20BDE8F88F4EF6EE61504601F01DFE5C
:101860000546042D01D02846F3E7FFF713FE49464D
:101870003846FFF756FE0646042E01D03046E8E70C
:1018800000241CE0234830F81400B84215D0214948
:1018900031F814002049FFF782FE8346BBF1010FA7
:1018A0000BD01C4931F814001B490988FFF739FE99
:1018B0000646042E01D03046CBE7601C84B2102CC3
:1018C000E0DB009801F0E6FC0546042D01D0284637
:1018D000BFE70021504601F0E0FD0546042D01D090
:1018E0002846B6E72846B4E770B505460E460024FC
:1018F00031462846FFF715FE0446802C04D13146B8
:101900002846FFF774FF0446204670BD0004010816
:1019100000000108065A000808000020704708B5BA
:101920000121042002F04CFA4FF48050ADF8000081
:1019300003208DF8020014208DF803006946F64854
:1019400001F082FF4FF40060ADF8000003208DF835
:10195000020014208DF803006946EF4801F074FF7F
:1019600008BD704700B501464FF48050EA4A143272
:1019700010600846FFF7F5FF4FF40060E64A1432A6
:1019800010600846FFF7EDFF4FF48050E24A103236
:1019900010600846FFF7E5FF4FF40060DE4A1032A2
:1019A00010600846FFF7DDFF00BD00B501464FF4AB
:1019B0008050D94A143210600846FFF7D2FF4FF426
:1019C0000060D54A103210600846FFF7CAFF4FF496
:1019D0008050D14A103210600846FFF7C2FFCE484F
:1019E0000830006800F4006048B14FF48050CA4AE3
:1019F000143210600846FFF7B4FF002000BD4FF41A
:101A00008050C54A143210600846FFF7AAFF012033
:101A1000F4E710B50246082320E04FF48050BE4C96
:101A2000143420601046FFF79CFF01F0800018B1CD
:101A3000E014241F206004E04FF40060B64C14341E
:101A400020604806010E1046FFF78BFF4FF48050D0
:101A5000B14C103420601046FFF783FF1800A3F14B
:101A60000104E3B2D9D14FF48050AB4C1434206060
:101A700010BD00B501464FF40060A74A1032106057
:101A8000400010600846FFF76CFFA348083000686C
:101A900008B9012000E0002000F4006008B1002037
:101AA00000BD4FF400609C4A143210600846FFF7F6
:101AB00058FF99480830006800F4006008B1002021
:101AC000EEE74FF40060944A143210600846FFF7C6
:101AD00048FF0120E4E7F0B506460F4614461D46D0
:101AE0003046FFF7C6FF08B90020F0BD3946304642
:101AF000FFF78FFF3046FFF758FF20B93046FFF75A
:101B000031FF0020F1E721463046FFF782FF3046E3
:101B1000FFF74BFF29463046FFF77BFF3046FFF7C4
:101B200044FF3046FFF71EFF0120DEE700B5014607
:101B30004FF48050784A143210600846FFF711FFC6
:101B40004FF40060744A103210600846FFF709FF36
:101B50004FF48050704A103210600846FFF701FFC2
:101B60004FF480506C4A143210600846FFF7F9FEBB
:101B700000BD10B50246082300211802664C10343F
:101B8000206017E04806010E4FF48050624C143478
:101B900020601046FFF7E5FEA014241F20601046C9
:101BA000FFF7DFFE5C480830006800F4006008B111
:101BB00041F001011800A3F10104E3B2E2D14FF4B6
:101BC0008050554C14342060084610BDF0B50646D0
:101BD0000C4615463046FFF74CFF08B90020F0BD13
:101BE00021463046FFF715FF3046FFF7DEFE20B9ED
:101BF0003046FFF7B7FE0020F1E729463046FFF7F1
:101C000008FF3046FFF7D1FE3046FFF732FF601C79
:101C1000C1B23046FFF7FDFE3046FFF7C6FE304644
:101C2000FFF7A7FF07463046FFF780FF3046FFF774
:101C300099FE3846D3E700B501464FF48050364A46
:101C4000143210600846FFF78CFE4FF40060324AF1
:101C5000143210600846FFF784FE4FF480502E4A7D
:101C6000103210600846FFF77CFE4FF480502A4A7D
:101C7000143210600846FFF774FE00BD2DE9F043F2
:101C800081460E4617461C46DDF81C80B8F1010F50
:101C900002DA0020BDE8F0834846FFF7EAFE08B903
:101CA0000020F7E731464846FFF7B3FE4846FFF706
:101CB0007CFE20B94846FFF755FE0020EAE739468A
:101CC0004846FFF7A6FE4846FFF76FFE4846FFF777
:101CD000D0FE701CC1B24846FFF79BFE4846FFF796
:101CE00064FE012509E04846FFF743FF04F8010BB5
:101CF0004846FFF7A0FF681CC5B24545F3DB4846E0
:101D0000FFF737FF04F8010B4846FFF70FFF48467F
:101D1000FFF728FE0120BDE70008014008B50121BA
:101D2000102002F04DF810208DF8030003208DF8EC
:101D300002004FF40050ADF800006946094801F078
:101D400083FD08BD10B504464FF40051054801F06D
:101D50002AFE10BD10B504464FF40051014801F0B1
:101D600020FE10BD0010014010B504462046FFF7CC
:101D7000D5FD0446A01C02F070FE841E04F108008C
:101D800002F06BFEA0F1080404F11C0002F048FE12
:101D9000A0F11C0404F1280002F042FEA0F1280486
:101DA00004F1340002F03CFEA0F13404204610BDE2
:101DB00030B50346C822002007E000BF1400A2F19E
:101DC0000105AAB2FAD1441CE0B28842F5DB30BD6D
:101DD0002DE9F04107460D4616462A2E15D006DCA1
:101DE000052E0CD00A2E0CD0142E16D10BE0622E2C
:101DF0000DD0BC2E0DD0B6F5807F0ED10BE00624A1
:101E00000DE005240BE0042409E0032407E002248C
:101E100005E0012403E0002401E0022400BF00BF2C
:101E200080236B22D0213846FFF755FE0521384626
:101E3000FFF7BEFF4FF47A7090FBF5F0401E00F004
:101E4000FF0843461922D0213846FFF744FE0323FA
:101E50006B22D0213846FFF73EFE02233722D021E5
:101E60003846FFF738FE23461A22D0213846FFF7BE
:101E700032FE18231B22D0213846FFF72CFE1023F8
:101E80001C22D0213846FFF726FEBDE8F0812DE95F
:101E9000F04104462078002868D0E248007800F03D
:101EA000010048B9DF4802F0FFFC28B1DE4802F02B
:101EB000B7FDDC48AFF30080DC48008880B9002320
:101EC0001A461946A01C02F0CDFD00231A461946F9
:101ED000D54802F0AAFD0120D4490880BDE8F08170
:101EE00004F11C01D04802F0A4FDD0480088B0F5F0
:101EF000C87F36D1CD48008803F0C8FA0646CA49E3
:101F00000868314603F0ACF9054603F06BFA00B2FD
:101F10006080C648008803F0B9FA0646C24948689E
:101F2000314603F09DF9054603F05CFA01B2A18049
:101F3000BE48008803F0AAFA0746BB4988683946BC
:101F400003F08EF906464FF08B4103F077FC05460F
:101F500003F048FA01B2E1800020B4490880207003
:101F6000BCE7B2480088401CB049088000BFB5E714
:101F70002DE9FC4104463C22D0212046FFF726FEF5
:101F8000A0733B22D0212046FFF720FEE073A17B07
:101F9000E07B41EA00206188401A00B2ADF8000001
:101FA0003E22D0212046FFF711FE20743D22D02191
:101FB0002046FFF70BFE6074217C607C41EA002123
:101FC000A088081A00B2ADF802004022D0212046B5
:101FD000FFF7FCFDA0743F22D0212046FFF7F6FD5D
:101FE000E074A17CE07C41EA0021E088081A00B29C
:101FF000ADF80400BDF9040003F030FA0546BDF960
:10200000020003F02BFA0646BDF9000003F026FAA1
:1020100007462B463246394604F11C0002F005FD06
:102020002046FFF734FFBDE8FC8170B504466078B8
:10203000002863D07E48007800F0010048B97C4851
:1020400002F032FC28B17B4802F0EAFC7848AFF39A
:1020500000807948008880B900231A46194604F1A7
:10206000080002F0FFFC00231A461946714802F0EE
:10207000DCFC01207049088070BD04F128016D4826
:1020800002F0D7FC6C480088B0F57A7F31D16A48FD
:10209000008803F0FBF9064666490868314603F0FC
:1020A000DFF8054603F09EF900B2208162480088FF
:1020B00003F0ECF906465F494868314603F0D0F872
:1020C000054603F08FF901B261815B48008803F097
:1020D000DDF9064657498868314603F0C1F80546E0
:1020E00003F080F901B2A18100205349088060709B
:1020F000C2E751480088401C4F49088000BFBBE739
:102100002DE9FC4104464422D0212046FFF75EFD24
:1021100020754322D0212046FFF758FD6075217DB0
:10212000607D41EA00202189401A00B2ADF800002C
:102130004622D0212046FFF749FDA0754522D02137
:102140002046FFF743FDE075A17DE07D41EA0021D7
:102150006089081A00B2ADF802004822D02120465A
:10216000FFF734FD20764722D0212046FFF72EFDD1
:102170006076217E607E41EA0021A089081A00B2C3
:10218000ADF80400BDF9040003F068F90546BDF997
:10219000020003F063F90646BDF9000003F05EF9A2
:1021A00007462B463246394604F1280002F03DFC32
:1021B0002046FFF73AFFBDE8FC8110B5D1E90834AD
:1021C000CA6980E81C0010BD10B5D1E90B348A6AD9
:1021D00080E81C0010BD70B505460C461749A06A82
:1021E00003F09CF90646FEF78BFF60631349E06A33
:1021F00003F094F90646FEF783FFA0630F49206BB6
:1022000003F08CF90646FEF77BFFE063D4E90E127B
:10221000606B85E8070070BD10B50948FFF7A4FDA5
:1022200010BD0000140000207401002018000020E0
:102230001C00002080010020200000208DC1793D7D
:10224000340100202DE9F04105460E46144628468B
:1022500000F0FFF93146284600F0CBF90746214649
:10226000284600F0C6F9284600F0EBF93846BDE8EC
:10227000F0812DE9F0470746884615461E46384648
:1022800000F0E7F94146384600F0B3F981460024F2
:1022900005E0295D384600F0ACF9601CC4B2B442D8
:1022A000F7DB384600F0CDF94846BDE8F08770B559
:1022B00005460C461646284600F0BCF905239A4A06
:1022C0002A212846FFF7D5FF0523984A30212846C2
:1022D000FFF7CFFF012221212846FFF7B3FF01229C
:1022E00022212846FFF7AEFF1A2224212846FFF7B5
:1022F000A9FF324625212846FFF7A4FF0F222621F9
:102300002846FFF79FFF012C0AD1FF2231212846E2
:10231000FFF798FF0F2220212846FFF793FF51E097
:10232000022C0AD1FF2231212846FFF78BFF0E2213
:1023300020212846FFF786FF44E0032C21D1FF220D
:10234000E1212846FFF77EFFFF22E2212846FFF722
:1023500079FF0F2220212846FFF774FF50212846DD
:1023600000F047F97321284600F043F901223C218F
:102370002846FFF767FF06223D212846FFF762FF48
:1023800020E00E2220212846FFF75CFFFF22E121FA
:102390002846FFF757FFFF22E2212846FFF752FFAA
:1023A0005021284600F025F97321284600F021F934
:1023B00001223C212846FFF745FF06223D21284601
:1023C000FFF740FF284600F02EF970BD70B50646B5
:1023D0000C461546304600F02DF90523534A2A21B4
:1023E0003046FFF746FF2B462246A0213046FFF736
:1023F00040FF304600F017F970BD70B506460C4638
:102400001546304600F016F92B462246A8213046E4
:10241000FFF72FFF304600F006F970BD2DE9F047B9
:102420000746884615461E46384600F012F94146D2
:10243000384600F0DEF88146002406E000213846E8
:1024400000F0D7F82855601CC4B2B442F6DB384619
:1024500000F0F7F84846BDE8F0877CB5054605234F
:10246000324A30212846FFF704FF05236A4610212F
:102470002846FFF7D3FF002408E01DF804002B498D
:10248000095D884200D003E0601CC4B2052CF4DB77
:1024900000BF052C01D101207CBD0020FCE770B5F8
:1024A00004460D46204600F0D4F82946204600F0A8
:1024B000A0F80021204600F09CF80646204600F0D7
:1024C000C0F8304670BD70B5054607212846FFF7B5
:1024D000E6FF044604F0400078B160212846FFF78B
:1024E000DEFF064633462A4661212846FFF796FF5F
:1024F0003146284600F062FA00BF04F0100038B1FF
:1025000004F0010020B1FF22E1212846FFF79AFEE6
:10251000224627212846FFF795FE07212846FFF788
:10252000BEFF044670BD00002700002022000020EE
:1025300000B587B00121082001F042FC01210820EC
:1025400001F03EFC0121880301F047FC4FF460409C
:10255000ADF8040001208DF8060018208DF8070062
:1025600001A9404801F070F92020ADF804000120D5
:102570008DF8060010208DF8070001A9394801F0F8
:1025800063F94FF48050ADF8040001208DF8060087
:1025900010208DF8070001A9324801F055F94FF4D9
:1025A0008051304801F0FDF90020ADF808004FF4EB
:1025B0008270ADF80A000020ADF80C00ADF80E00F6
:1025C000ADF810004FF40070ADF812000820ADF81F
:1025D00014000020ADF816000720ADF8180002A97D
:1025E000214801F077FC01211F4801F018FD07B0D8
:1025F00000BD70B505460C4600BF02211A4801F027
:1026000092FD0028F9D02146174801F039FD00BF9E
:102610000121154801F087FD0028F9D0124801F08A
:1026200031FDC0B270BD10B5044620210D4801F047
:10263000B8F910BD10B5044620210A4801F0B3F9DD
:1026400010BD10B504464FF48051064801F0A9F9B9
:1026500010BD10B504464FF48051024801F0A3F9B3
:1026600010BD0000000C01400038004010B588B0DB
:1026700004460121880301F0A3FB0121042001F09D
:102680009FFB25208DF8040002208DF80500002016
:102690008DF8060001208DF8070001A800F0DBF995
:1026A0004FF40070ADF8000003208DF802001820F0
:1026B0008DF803006946D14801F0C6F84FF48060F8
:1026C000ADF8000003208DF8020004208DF803000F
:1026D0006946CA4801F0B8F804940020ADF8140027
:1026E000ADF81600ADF81800ADF81C000C20ADF8E0
:1026F0001A000020ADF80800ADF80A004FF4007091
:10270000ADF80C000020ADF80E0004A9BC4801F0A3
:1027100084FD02A9BA4801F0F5FD012240F22551DD
:10272000B74801F012FE0121B54801F002FE08B0E1
:1027300010BDB348008800F0080020B1B049091D61
:102740000988C8B200BFAE48008800F08000F0B130
:10275000AB480C30008800F08000C0B1A948017877
:102760000078401CA74A1070A748405CA449091D86
:10277000088010460078A5490978884207D1A0480A
:102780000C30008820F080009D490C3108809C4866
:10279000008800F0200000286DD09949091D0988A3
:1027A000C8B29B49097859B9AA2846D199499A4A89
:1027B000127801EB421108700121954A11703CE03A
:1027C0009349097801290FD1AF2809D19149924A3B
:1027D000127801EB4211487002218D4A11702CE0F1
:1027E00000218B4A117028E089490978022909D112
:1027F0008849894A127801EB421188700321844A82
:1028000011701AE082490978032909D18149824A65
:10281000127801EB4211C87004217D4A11700CE05E
:102820007C497D4A127801EB4211794A127888542A
:1028300077490978491C764A11707649764A1278A8
:1028400001EB4211C978491D714A1278914211D1A8
:1028500000216F4A11707049097831B100216E4A28
:10286000117001216D4A117004E001216A4A117052
:102870006B4A117000BF704710B504466348017879
:102880000078401C614A10705F4844545C480C302A
:10289000008800F0800028B9012240F227715848D2
:1028A00001F053FD204610BD31B500249DF8011004
:1028B000564802780078401C544B18705248815496
:1028C0009DF80020184601780078401C18704E488A
:1028D00042544B480C30008800F0800028B9012297
:1028E00040F22771464801F030FD9DF80100204478
:1028F000C4B29DF800002044C4B2204638BD31B5B2
:1029000000244849009808600846C1783F4802788A
:102910000078401C3D4B18703B48815441488178F9
:10292000184602780078401C1870374881543D489A
:102930004278184601780078401C1870324842549A
:1029400038480178184602780078401C18702E48E4
:1029500081542B480C30008800F0800028B90122F7
:1029600040F22771264801F0F0FC9DF80300204456
:10297000C4B29DF802002044C4B29DF80100204476
:10298000C4B29DF800002044C4B2204638BD10B542
:1029900004460FE020780D2802D1FFF76DFF08E014
:1029A00020780A2802D1FFF767FF02E02078FFF7BE
:1029B00063FF641C20780028ECD110BD70B504467C
:1029C0000D4600200AE0225C10490B780978491C6A
:1029D0000E4E31700C49CA54411CC8B2A842F2DBF9
:1029E00007480C30008800F0800028B9012240F22E
:1029F0002771034801F0A9FC70BD000000080140E8
:102A000000380140300000208A03002031000020FF
:102A1000330000208A04002032000020350000200E
:102A2000340000202C000020704700BFFEE700BFEC
:102A3000FEE700BFFEE77047704710B5FEF7D6FB14
:102A400010BD10B5FFF775FE10BD00003149014300
:102A5000314A1160704770B5002100230F22C478FD
:102A600004B32D4C246804F4E064C4F5E064210A46
:102A7000C1F10403CA40447804FA03F18478144095
:102A800021430901254C0678A155047804F01F055F
:102A90000124AC4005786D11AD0005F1E025C5F8C5
:102AA000004109E0047804F01F050124AC401C4DEE
:102AB0000678761145F8264070BD1A4A0A4002434E
:102AC000154B1B1F1A60704739B1134A121D12684B
:102AD0000243114B1B1D1A6006E00F4A121D1268BB
:102AE00082430D4B1B1D1A607047042808D14FF01C
:102AF000E021096941F004014FF0E022116107E093
:102B00004FF0E021096921F004014FF0E02211614A
:102B1000704700000000FA050CED00E000E400E062
:102B200080E100E080FFFF1F10B50446FA488442B0
:102B300008D10121401501F05DF90021601501F077
:102B400059F917E0F548844208D10121001501F038
:102B500051F90021201501F04DF90BE0F0488442B5
:102B600008D10121C80301F045F900214FF40040CC
:102B700001F040F910BD30B5024600200023506836
:102B8000E84C20400D790C6844EA0524204350604D
:102B90009068E54C2040D1E902542C434D7944EA39
:102BA000450420439060D06A20F470000C7C641EC1
:102BB000E4B2234340EA0350D06230BD00210160FB
:102BC000017141718160C16001210174704721B1BF
:102BD000826842F00102826003E0826822F0010212
:102BE0008260704721B1826842F48072826003E0A3
:102BF000826822F480728260704710B50023CBB2E5
:102C00001AB144681C43446002E044689C43446039
:102C100010BD816841F008018160704701460020C5
:102C20008A6802F008020AB1012000E00020704723
:102C3000816841F0040181607047014600208A6884
:102C400002F004020AB1012000E00020704721B127
:102C5000826842F4A002826003E0826822F4A0024B
:102C600082607047014600208A6802F480020AB13F
:102C7000012000E00020704710B50A460021002323
:102C8000416821F46041531E41EA4331416010BD67
:102C900021B1426842F40062426003E0426822F4DB
:102CA000006242607047F0B504460D4600200021E6
:102CB000092D11DDE068A5F10A0606EB4607072697
:102CC00006FA07F18843A5F10A0606EB460603FA61
:102CD00006F10843E0600CE0206905EB4507072694
:102CE00006FA07F1884305EB450603FA06F10843A7
:102CF0002061072A0FDA606B561E06EB86071F2637
:102D000006FA07F18843561E06EB860605FA06F119
:102D10000843606322E00D2A0FDA206BD61F06EB12
:102D200086071F2606FA07F18843D61F06EB86069C
:102D300005FA06F10843206310E0E06AA2F10D06EF
:102D400006EB86071F2606FA07F18843A2F10D0657
:102D500006EB860605FA06F10843E062F0BD21B1F4
:102D6000826842F48012826003E0826822F480125A
:102D7000826070470146C86C80B2704766484C302C
:102D80000068704721B1426842F48062426003E00B
:102D9000426822F480624260704721B1426842F486
:102DA0008052426003E0426822F4805242607047E1
:102DB0000A460021816821F4E04111438160704797
:102DC00021B1826842F40042826003E0826822F40A
:102DD00000428260704721B1826842F40212826030
:102DE00003E0826822F402128260704701460020EC
:102DF0008A6802F400120AB1012000E00020704746
:102E0000F0B504461546002000220026092911DDF0
:102E1000E068A1F10A0707EB470C072707FA0CF255
:102E20009043A1F10A0707EB470703FA07F21043A3
:102E3000E0600CE0206901EB410C072707FA0CF277
:102E4000904301EB410703FA07F210432061A06BA6
:102E5000C0F30156EF1C06F1010CA7EB0C0707EBC2
:102E6000870C1F2707FA0CF29043EF1C06F1010CA8
:102E7000A7EB0C0707EB870701FA07F21043A063E3
:102E8000F0BD10B50A4600210023816B21F44011EA
:102E9000531E41EA0351816310BD08B5002300931E
:102EA0000090009B0B440093009B1A6008BD08B57E
:102EB000024600200090009201F12800009B184477
:102EC00000900098006880B208BD0A460021416861
:102ED000164B19401143416070474162826270474E
:102EE0000A460021416821F01F01114341607047EB
:102EF00040B109490831096841F40001064A083225
:102F0000116007E004490831096821F40001024A10
:102F10000832116070470000002401400028014081
:102F2000003C0140FFFEF0FFFDF7F1FFFFFD3FFF1A
:102F30000246002013680B400BB1012000E0002086
:102F40007047CA430260704770B5024600200023F4
:102F500000240B125568CEB205EA060415681D4020
:102F600015B10CB1012000E0002070BD00220A1252
:102F7000D34303607047000001684FF6FE721140B2
:102F800001600021016041608160C1608D4988421B
:102F900008D18C490839496841F00F01894A083A3B
:102FA00051608AE087491431884208D1854908393F
:102FB000496841F0F001834A083A51607DE0814957
:102FC0002831884208D17F490839496841F4706145
:102FD0007C4A083A516070E07A493C31884208D115
:102FE00078490839496841F47041764A083A516095
:102FF00063E074495031884208D172490839496800
:1030000041F470216F4A083A516056E06D496431CD
:10301000884208D16B490839496841F47001694A0E
:10302000083A516049E067497831884208D16549DA
:103030000839496841F07061624A083A51603CE0E1
:103040006149884206D1011F096841F00F01021F42
:10305000116032E05C491431884208D15A49091F95
:10306000096841F0F001584A121F116025E05649E5
:103070002831884208D15449091F096841F4706118
:10308000514A121F116018E04F493C31884208D163
:103090004D49091F096841F470414B4A121F1160E4
:1030A0000BE049495031884207D14749091F096857
:1030B00041F47021444A121F1160704710B500227C
:1030C000026847F6F0739A430C6A8B6823430C69D5
:1030D00023434C6923438C692343CC6923434C6AC3
:1030E00023438C6A23431A430260CB6843600B6816
:1030F00083604B68C36010BD002101604160816046
:10310000C160016141618161C161016241628162AD
:10311000704721B1026842F00102026004E00268D7
:103120004FF6FE731A40026070471AB103680B43F2
:10313000036002E003688B4303607047416070479F
:103140000146486880B2704701460020002201F025
:1031500080531BB11C4B083B1A6802E0194B083B1B
:103160001A6802EA01030BB1012000E00020704759
:1031700000F0805119B11449091F086002E011499B
:1031800008394860704701460020002201F0805352
:103190001BB10D4B083B1A6802E00A4B083B1A684A
:1031A00002EA01030BB1012000E00020704700F0AB
:1031B000805119B10449091F086002E0014908392A
:1031C00048607047080002400804024001460020A1
:1031D000FE4A106800F03800084310607047FB4951
:1031E000096821F00801F94A116011460968014394
:1031F00011607047F549096821F01001F34A116028
:1032000011460968014311607047F148EF49486071
:10321000F04848607047EE48EC494860ED48486027
:103220007047EA48006940F08000E849086170474B
:10323000E648006940F08000E449086170470420D6
:10324000E249C96801F0010109B101200EE0DF493E
:10325000C96801F0040109B1022007E0DB49C9682F
:1032600001F0100109B1032000E00420704700B50F
:1032700002460423FFF7E3FF034603E0FFF7DFFF07
:103280000346521E012B01D1002AF7D102B90523B2
:10329000184600BD30B5044604254FF43020FFF732
:1032A000E6FF0546042D17D1C848006940F002002A
:1032B000C649086108464461006940F04000086161
:1032C0004FF43020FFF7D3FF0546C048006941F6B0
:1032D000FD710840BD490861284630BD10B5042481
:1032E0004FF43020FFF7C3FF0446042C16D1B74833
:1032F000006940F00400B54908610846006940F0E3
:10330000400008614FF43020FFF7B1FF0446AF489A
:10331000006941F6FB710840AC490861204610BDC8
:1033200000B502460423FFF78AFF034603E0FFF7D8
:1033300086FF0346521E012B01D1002AF7D102B9A4
:103340000523184600BD10B504244FF43020FFF7C4
:10335000E7FF0446042C16D19C48006940F00400A5
:103360009A4908610846006940F0400008614FF43E
:103370003020FFF7D5FF04469448006941F6FB7101
:10338000084092490861204610BD00208F49C96954
:1033900001F0020109B1012000E00020704730B5C2
:1033A000A5250424FFF7F1FF00B100254FF43020DC
:1033B000FFF75DFF0446042C3AD1854883498860B5
:1033C000844888600846006940F02000086108468B
:1033D000006940F0400008614FF43020FFF747FFDC
:1033E0000446042C1BD17948006941F6DF7108407E
:1033F000764908610846006940F010000861764887
:103400000580E002FFF733FF0446052C10D06F481B
:10341000006941F6EF7108406C49086108E0052C2D
:1034200006D06A48006941F6EF71084067490861B3
:10343000204630BD78B506460C4604250020009095
:10344000E802FFF714FF0546042D24D15F48006908
:1034500040F001005D4908613480E802FFF707FF92
:103460000546042D10D1B01C0090200C0099088056
:10347000E802FFF7FCFE05465448006941F6FE717C
:1034800008405249086106E05048006941F6FE7163
:1034900008404E490861284678BD70B504460D467F
:1034A0000426F002FFF7E3FE0646042E11D147483A
:1034B000006940F00100454908612580F002FFF7EE
:1034C000D6FE06464148006941F6FE7108403F4974
:1034D0000861304670BD70B505460E460424E00212
:1034E000FFF7C5FE0446042C17D1394837498860D8
:1034F000384888600846006940F0100008612E8056
:10350000E002FFF7B4FE0446052C06D02F48006900
:1035100041F6EF7108402D490861204670BD2DE944
:10352000F04304464FF6FF763746B046B1460425D1
:10353000E443E6B2C4F30727C4F307484FEA14692B
:10354000E802FFF794FE0546042D49D120481F49A3
:103550008860204888600846006940F010000861D3
:10356000FF2E06D01C4808300680E802FFF77FFED9
:103570000546042D08D1FF2F06D017480A300780D2
:10358000E802FFF774FE0546042D0AD1B8F1FF0FDB
:1035900007D011480C30A0F80080E802FFF767FE62
:1035A0000546042D0AD1B9F1FF0F07D00A480E30A5
:1035B000A0F80090E802FFF75AFE0546052D0FD04F
:1035C0000248006941F6EF71084007E00020024020
:1035D00023016745AB89EFCD00F8FF1F66490861FD
:1035E0002846BDE8F08330B5054604244FF430206A
:1035F000FFF73DFE0446042C41D160485E498860D7
:103600005F4888600846006940F02000086108466D
:10361000006940F0400008614FF43020FFF727FEBA
:103620000446042C22D15448006941F6DF71084059
:10363000514908610846006940F0100008611DB159
:1036400000205049088002E0A5204E4908804FF430
:103650003020FFF70CFE0446052C10D046480069C8
:1036600041F6EF7108404449086108E0052C06D096
:103670004148006941F6DF7108403F490861204632
:1036800030BDF0B505460E46174604243B483A497E
:1036900088603B488860E002FFF7E9FD0446042C9F
:1036A00019D13548006940F010003349086147F0EE
:1036B000F800304328433349891C0880E002FFF7B3
:1036C000D6FD0446052C06D02B48006941F6EF7163
:1036D0000840294908612046F0BD2748C069800894
:1036E00070472548006A704700202349096801F0A7
:1036F000200109B1012000E00020704729B11E4AD5
:10370000126902431C4B1A6104E01B4A126982438E
:10371000194B1A61704701460020012908D1164A49
:10372000D26902F001020AB1012008E0002006E09F
:10373000114AD2680A400AB1012000E00020704717
:103740000D49C860704704200B49C96801F00101A8
:1037500009B101200EE00849C96801F0040109B16E
:10376000022007E00449C96801F0100109B10320F3
:1037700000E004207047000000200240230167455C
:10378000AB89EFCD00F8FF1F10B50446CC4884424A
:1037900008D10121042000F02DFB0021042000F0BD
:1037A00029FB46E0C748844208D10121082000F0E7
:1037B00021FB0021082000F01DFB3AE0C2488442B2
:1037C00008D10121102000F015FB0021102000F08D
:1037D00011FB2EE0BD48844208D10121202000F0D9
:1037E00009FB0021202000F005FB22E0B8488442BC
:1037F00008D10121402000F0FDFA0021402000F016
:10380000F9FA16E0B348844208D10121802000F083
:10381000F1FA0021802000F0EDFA0AE0AE4884427F
:1038200007D10121801500F0E5FA0021A01500F074
:10383000E1FA10BD10B50121084600F0DBFA0021C5
:10384000012000F0D7FA10BD2DE9F0410246002515
:103850000026002000230024002791F803C00CF06C
:103860000F0591F803C00CF0100CBCF1000F03D051
:1038700091F802C04CEA050591F800C0BCF1000FB8
:1038800031D0146800202BE04FF0010C0CFA00F34B
:10389000B1F800C00CEA03069E4220D183004FF02D
:1038A0000F0C0CFA03F7BC4305FA03FC4CEA0404C2
:1038B00091F803C0BCF1280F06D14FF0010C0CFAAF
:1038C00000FCC2F814C00AE091F803C0BCF1480F34
:1038D00005D14FF0010C0CFA00FCC2F810C0401CDE
:1038E0000828D1D31460B1F800C0BCF1FF0F34DD5B
:1038F000546800202EE000F1080C4FF0010808FA8F
:103900000CF3B1F800C00CEA03069E4221D18300FB
:103910004FF00F0C0CFA03F7BC4305FA03FC4CEA1A
:10392000040491F803C0BCF1280F05D100F1080C84
:1039300008FA0CF8C2F8148091F803C0BCF1480FE3
:1039400007D100F1080C4FF0010808FA0CF8C2F892
:103950001080401C0828CED35460BDE8F0814FF69B
:10396000FF710180022181700421C17070470246FD
:10397000002093680B400BB1012000E0002070474D
:103980000146886880B2704702460020D3680B4029
:103990000BB1012000E0002070470146C86880B2EA
:1039A000704701617047416170470AB1016100E0F1
:1039B00041617047C16070474FF480320A438261B1
:1039C0008161826182698269704702460020434BAF
:1039D00018684FF68073184040EA021008433F4BC6
:1039E000186070473E49C8617047F0B50A46002329
:1039F00000240021002500F00046B6F1004F02D15E
:103A0000364EF16901E0354E7168C0F3034583B26B
:103A100000F44016B6F5401F08D121F070612F4E1A
:103A2000766826F070662D4F7E6012E000F48016F6
:103A3000B6F5801F06D1032606FA05F4A14341F02E
:103A4000706106E0460D360103FA06F6B14341F017
:103A5000706122B1460D360103FA06F6314300F0DB
:103A60000046B6F1004F02D11C4EF16101E01B4E41
:103A70007160F0BD30B500228B071C0F0F2303FAD5
:103A800004F2164B08338C1053F824309343134C34
:103A900008348D1044F8253023468C1053F8243018
:103AA0008C07240F00FA04F423430C4C08348D10C7
:103AB00044F8253030BD0A49DC3108607047000009
:103AC00000080140000C01400010014000140140BA
:103AD00000180140001C014000200140000001408E
:103AE00000002042DF48006840F00100DD49086026
:103AF00008464068DC490840DA49486008460068E2
:103B0000DA490840D74908600846006820F4802058
:103B100008600846406820F4FE0048604FF41F002B
:103B200088607047CF49096821F48031CD4A11601F
:103B30001146096821F480211160B0F5803F03D05F
:103B4000B0F5802F0ED106E0C649096841F48031F6
:103B5000C44A116007E0C349096841F4A021C14A81
:103B6000116000E000BF00BF704710B501460022A1
:103B7000002300204A11012A02D1BA4C236806E032
:103B8000022A02D1B74C236A01E0B64C636A01F005
:103B90001F02012494401C400CB1012000E00020D1
:103BA00010BD38B5002000900024002500BF312052
:103BB000FFF7DBFF05460098401C00900098B0F529
:103BC000A06F01D0002DF2D03120FFF7CEFF08B159
:103BD000012400E00024204638BD01460020A14A0F
:103BE000106820F0F80040EAC10010607047A0495A
:103BF00008607047024600209A4B586820F47C10F9
:103C000042EA01031843974B586070479849086689
:103C1000704701460020934A506820F00300084393
:103C2000506070478F48406800F00C0070470146B4
:103C300000208C4A506820F0F00008435060704724
:103C400001460020874A506820F4E0600843506035
:103C5000704701460020834A506820F4605040EAD3
:103C6000C1005060704729B17E4A527A02437D4BB1
:103C70005A7204E07B4A527A82437A4B5A727047F6
:103C80007B49D8310860704701460020754A50686A
:103C900020F440400843506070470021714A2032B0
:103CA0001170704A82F82010012802D004280AD12D
:103CB00004E001216B4A2032117005E00521694AB8
:103CC0002032117000E000BF00BF704769490860F2
:103CD00070476449096A0143624A11627047654945
:103CE00044390860704730B50021002200240023C9
:103CF0005C4D6D6805F00C0121B1042905D008293F
:103D000023D105E05C4D056022E05B4D05601FE0BE
:103D1000544D6D6805F47012524D6D6805F4803491
:103D2000022505EB92421CB9544D554305600BE04A
:103D30004C4D6D6805F400351DB1504D554305607F
:103D400002E04D4D5543056002E04B4D056000BF5C
:103D500000BF444D6D6805F0F0010909484D6B5CEA
:103D60000568DD4045603F4D6D6805F4E061090A76
:103D7000434D6B5C4568DD4085603A4D6D6805F4E8
:103D80006051C90A3E4D6B5C4568DD40C560354DEC
:103D90006D6805F44041890B3A4D6B5CC568B5FB15
:103DA000F3F5056130BD29B12E4A526902432D4B0E
:103DB0005A6104E02B4A526982432A4B5A61704788
:103DC00029B1284A92690243264B9A6104E0254AA8
:103DD00092698243234B9A61704729B1214AD26983
:103DE0000243204BDA6104E01E4AD26982431D4B34
:103DF000DA61704729B11B4AD2680243194BDA6075
:103E000004E0184AD2688243164BDA60704729B141
:103E1000144A12690243134B1A6104E0114A1269F1
:103E20008243104B1A61704712494039086070474D
:103E30000F49C86470470B49C87170470948406A08
:103E400040F0807007494862704701460020054AEB
:103E500092680A400AB1012000E000207047014941
:103E600088727047001002400000FFF8FFFFF6FE66
:103E7000000042428004424200127A0000093D00E4
:103E8000360000204600002010B50446BE4884429B
:103E900008D101218014FFF7ADFF0021A014FFF726
:103EA000A9FF16E0B948844208D101210014FFF7A8
:103EB000AEFF00212014FFF7AAFF0AE0B4488442B5
:103EC00007D10121C013FFF7A2FF0021E013FFF784
:103ED0009EFF10BD10B50022028802F441520B88EB
:103EE0004C8823438C882343CC8823430C89234369
:103EF0004C8923438C892343CC8923431A43028072
:103F0000838B4FF2FF74234083830B8A038210BD9F
:103F10002DE9F04F85B005460C464FF00009022709
:103F20004FF000084FF0010B0026B246A88B4FF26D
:103F300040010840A88302202884B5F81C90A0689E
:103F4000022801D100BF38E0A08810B94FF0010B62
:103F500001E04FF0020B8D48854200D100E000BF28
:103F60006846FFF7C0FEDDF800A0E088B0F5007FEE
:103F70000AD14FEA1A2000EB80004000A168B0FB94
:103F8000F1F0401D86B20BE04FEA4B10BAFBF0F0A7
:103F900000EB80004000A168B0FBF1F0401D86B24C
:103FA0000A20B6FBF0F606F00108A6EB0800C0F305
:103FB0004F074FF6FF7000EA0828022F01DBFF2FA2
:103FC00002DD02274FF00008E08840EA080038438D
:103FD0002884A088A1890843618808432188084370
:103FE00040F4006040EA0909A5F81C9005B0BDE85E
:103FF000F08F0021018041808180C1800181418159
:104000008181C181072101827047002101804180A7
:104010008180C1800221816000218181704721B1AE
:10402000028842F04002028004E002884FF6BF732B
:104030001A400280704721B1828B42F480628283F1
:1040400004E0828B4FF6FF331A408283704730B50D
:10405000002400230C110125A540ABB21AB18588BC
:104060001D43858002E085889D43858030BD1AB15F
:1040700083880B43838002E083888B43838070476F
:10408000818170470146888970474FF6FF629142EF
:1040900004D0028842F48072028004E002884FF665
:1040A000FF631A400280704721B1828842F0040207
:1040B000828004E082884FF6FB731A40828070474A
:1040C00002884FF2FF731A40028002880A4302807E
:1040D0007047018841F480510180704721B1028806
:1040E00042F40052028004E002884DF6FF731A4049
:1040F0000280704702460020012901D0108B00E0A9
:10410000908A70470146088A7047B1F5804F04D104
:10411000028842F48042028004E002884BF6FF737A
:104120001A40028070470246002013890B400BB1F1
:10413000012000E000207047CA4302817047F0B5BB
:104140000246002000240023002501F00F0701266D
:10415000BE40B4B20B1101269E40B3B2968806EA67
:1041600003051689264016B10DB1012000E000209C
:10417000F0BD10B5002201F00F040123A3409AB254
:10418000D343038110BD00000030014000380040DF
:10419000003C004010B50446FB48844209D101218F
:1041A0008803FFF727FE00214FF48040FFF722FE2F
:1041B00032E0F648844209D101214804FFF727FE86
:1041C00000214FF40030FFF722FE25E0F048844242
:1041D00009D101218804FFF71AFE00214FF4802045
:1041E000FFF715FE18E0EB48844209D10121C8040D
:1041F000FFF70DFE00214FF40020FFF708FE0BE053
:10420000E548844208D101210805FFF700FE00219E
:104210004FF48010FFF7FBFD10BD2DE9F04786B08D
:1042200005460E460024A24600BFA1460027B089DD
:1042300000B100BF2F462C8A4CF6FF700440F08876
:1042400004432C82AC894EF6F3100440B0883189C7
:104250000843718908430443AC81AC8A4FF6FF40A0
:104260000440B0890443AC8201A8FFF73CFDC64876
:10427000874202D1DDF810A001E0DDF80CA0A8898A
:1042800000F4004040B10AEBCA0000EB0A103168AC
:104290004900B0FBF1F807E00AEBCA0000EB0A1096
:1042A00031688900B0FBF1F86420B8FBF0F004013C
:1042B0002009642101FB1089A88900F4004040B165
:1042C000322000EBC900B0FBF1F000F0070004431E
:1042D00008E0322000EB09106421B0FBF1F000F09F
:1042E0000F0004432C8106B0BDE8F0874FF416514F
:1042F000016000218180C18001810C214181002168
:104300008181704710B502460020108A4FF2FF03EA
:1043100018400B884C8823438C882343CC88234344
:104320001843108210BD0021018041808180C1802E
:10433000704721B1828942F40052828104E082896F
:104340004DF6FF731A4082817047F0B50346002492
:1043500000260025002040F66A17B94200D100BFB0
:104360001846C1F3421401F01F06012707FA06F5AB
:10437000012C01D10C3004E0022C01D1103000E0FE
:1043800014301AB107682F43076002E00768AF4393
:104390000760F0BD1AB1838A0B43838202E0838AEF
:1043A0008B4383827047028A4FF6F0731A40028271
:1043B000028A0A430282704782894FF2FF731A40D1
:1043C000828182890A438281704721B1828942F0C9
:1043D0000202828104E082894FF6FD731A408281D5
:1043E0007047028A4FF6DF731A400282028A0A433C
:1043F0000282704721B1028A42F48042028204E0C4
:10440000028A4BF6FF731A4002827047C1F308021A
:104410008280704701468888C0F308007047818910
:1044200041F0010181817047028BD2B20283028B7D
:1044300042EA012202837047028B02F47F42028328
:10444000028B0A430283704721B1828A42F0200224
:10445000828204E0828A4FF6DF731A4082827047BC
:1044600021B1828A42F01002828204E0828A4FF6F1
:10447000EF731A408282704721B1828A42F00802AB
:10448000828204E0828A4FF6F7731A408282704774
:1044900021B1828942F40042828103E08289C2F321
:1044A0000E028281704721B1828A42F400628282C8
:1044B00004E0828A4FF2FF731A4082827047828A38
:1044C0004FF6FB731A408282828A0A4382827047C7
:1044D00021B1828A42F00202828204E0828A4FF68F
:1044E000FD731A408282704702460020B1F5007FBA
:1044F00000D100BF13880B400BB1012000E0002069
:10450000704701F40072B2F5007F00D100BFCA43CA
:104510000280704770B50246002400230025002069
:1045200040F66A16B14200D100BFC1F3421501F056
:104530001F03012606FA03F3012D02D196893340A9
:1045400006E0022D02D1168A334001E0968A3340FC
:104550000C12012606FA04F41688344013B10CB18B
:10456000012000E0002070BD10B50022002340F6BD
:104570006A14A14200D100BF0A1201249440A3B2E0
:10458000DC43048010BD00000038014000440040BE
:1045900000480040004C0040005000400CB5002096
:1045A000019000906C48006840F480306A490860CF
:1045B00000BF6948006800F4003000900198401C7A
:1045C0000190009818B90198B0F5A06FF1D1624838
:1045D000006800F4003010B10120009001E00020DC
:1045E00000900098012843D15C48006840F010001A
:1045F0005A4908600846006820F003000860084631
:10460000006840F002000860534840685249486022
:104610000846406848600846406840F4806048604A
:104620000846406820F47C1048600846406840F422
:10463000E81048600846006840F08070086000BFDD
:104640004548006800F000700028F9D042484068F2
:1046500020F00300404948600846406840F00200EE
:10466000486000BF3C48406800F00C000828F9D1C1
:104670000CBD10B5FFF792FF10BD10B536480068AD
:1046800040F0010034490860084640683449084059
:104690003149486008460068324908402E490860A0
:1046A0000846006820F4802008600846406820F42E
:1046B000FE0048604FF41F008860FFF7DAFF4FF0FC
:1046C00000602949086010BD10B5002100200022BB
:1046D000214B5B6803F00C0121B1042906D00829A5
:1046E00028D107E0214B224C236027E01F4B204CB0
:1046F000236023E0184B5B6803F47010164B5B6873
:1047000003F48032022303EB904022B9194B434358
:10471000174C23600DE0104B5B6803F4003323B1AA
:10472000144B4343124C236003E0104B4343104CA3
:10473000236003E00D4B0E4C236000BF00BF064B0F
:104740005B68C3F303130C4CE15C094B1B68CB4063
:10475000074C236010BD0000001002400020024002
:104760000000FFF8FFFFF6FE08ED00E000127A00FF
:104770004C00002000093D005000002009488047FF
:1047800009480047FEE7FEE7FEE7FEE7FEE7FEE733
:10479000FEE7FEE7FEE7FEE704480549054A064B4B
:1047A000704700007B460008ED000008300500203F
:1047B000300B002030070020300700207047704782
:1047C0007047000070B5064C7C44064D7D4403E004
:1047D000206820448047241DAC42F9D170BD000000
:1047E0007C1200008C12000010B500F009F800687F
:1047F00010BD10B5044600F003F8046010BD0000C1
:1048000000487047CC04002000487047CC040020CA
:104810007546FFF7F9FFAE4605006946534620F09E
:104820000700854618B020B5FFF7B6FFBDE8204069
:104830004FF000064FF000074FF000084FF0000B5C
:1048400021F00701AC46ACE8C009ACE8C009ACE80F
:10485000C009ACE8C0098D4670470446AFF300803C
:104860002046FBF78CFC704701491820ABBEFEE7E1
:10487000260002004100080218BF04200A0E18BFDB
:1048800040F001004FF07F4232EA010108BF40F0E2
:104890000200012808BF05207047014621F00040B2
:1048A000C0F1FF40C00F7047016809B10020704798
:1048B00001210160084670476FF05E01080701F0B2
:1048C00064B800002DE9F04104464FF00E4000EBC3
:1048D0004400B0F1506F204655D84FF0FC41B1EB89
:1048E000440F1CD224F000404FF07E5100F013FF23
:1048F0004FF0FF3101F049F8074600F077F814F067
:10490000004F1DBF304E314D80F00040304E08BF8B
:10491000304D4FF0404100F001FE044605E0002616
:104920003546014600F0FAFD07462B49384600F0AF
:10493000F5FD2A4900F020FC394600F0EFFD28493A
:1049400000F01AFC394600F0E9FD264900F014FC9D
:10495000394600F0E3FD244900F00EFC804639465C
:10496000204600F0DBFD414600F0D8FD0746294611
:10497000204600F001FC394600F0FEFB3146BDE860
:10498000F04100F0F9BB4FF0E441B1EB440F08D91E
:10499000FFF770FF042808BFFFF78EFF2046BDE831
:1049A000F0814FF07F41B1EB440F04D2BDE8F041FC
:1049B000012100F0EABF0120FFF71BFFBDE8F04135
:1049C0000021084600F04CBC0000C9BF22AAFDB976
:1049D0000000C93F22AAFD3924FE1C3DC78AD83CED
:1049E0001E67383D1B93993DAFAA2A3E70B5054618
:1049F00000F09CFE044620F00040C0F1FF40C00FD4
:104A000008D025F00040C0F1FF40C00F04BF0120D6
:104A1000FFF7EFFE204670BD016042608360704783
:104A200000218160416001607047016042608360E5
:104A3000704770B504460D462968206800F09CFB5D
:104A400020606968606800F097FB6060A968A068F2
:104A500000F092FBA060204670BD00218180418063
:104A60000180704701804280838070472DE9F047C4
:104A700006460C461546A968A06800F0DFFE07460A
:104A80006968606800F0DAFE80462968206800F0F6
:104A9000D5FE81463B46424649463046FFF7BCFFBD
:104AA000BDE8F0872DE9F04706460C461546294635
:104AB000A06800F033FD07462946606800F02EFD2F
:104AC00080462946206800F029FD81463B46424643
:104AD00049463046FFF7A0FFBDE8F0872DE9F047D3
:104AE00006460C461546A968A06800F045FB074637
:104AF0006968606800F040FB80462968206800F023
:104B00003BFB81463B46424649463046FFF784FF21
:104B1000BDE8F08721F00042A2F16052B2F5801F9B
:104B200001F0004328BFD2F17F6C0BD95FEA001C73
:104B300043EAC20242EB507018BF704728BF20F012
:104B400001007047B2F5801FBCBF184670474FEA9E
:104B5000410C1CF5001F02D2084600F0A6BD70B53E
:104B600000F0A0F900000089FFF7F6BF4FF0004009
:104B7000A0F580007047000010B591EA030F48BF10
:104B800083F0004300F1EA81841A71EB030C05D233
:104B9000121943EB0C03001B61EB0C01DFF824E15D
:104BA0004FEA1154A4EB135C1EEA430F18BF9EEAB0
:104BB000445F73D023EA0E03DCF1200E21EA045196
:104BC00043F4801332D322FA0CFE10EB0E0023FACA
:104BD0000CFE41EB0E01CCF1200E03FA0EFE10EBA1
:104BE0000E0051F10001B1F5801FCCF1200E32D240
:104BF00001EB045112FA0EF2BDE8104058BF7047A5
:104C0000401C38BF5FEA420218BF7047002814BF3B
:104C100020F0010041F100014FEA410313F5001FAC
:104C200038BF7047A1F1C04100F08AB9012A43EBB7
:104C30000302ACF1200CDCF11F0E32BF4FF0000E6E
:104C400023FA0CF310EB030041EB0451B4EB115FBA
:104C5000D0D0A1EB045101F5801149085FEA300082
:104C600001EB04510ED350F1000038BF12FA0EFED2
:104C700008D1BDE81040C9E7401C38BF5FEA4202D6
:104C8000CAD1C3E7BDE810404FEA410313F5001F46
:104C900038BF7047A1F1C04100F052B99EEA445FAD
:104CA00008D011EA5E0FBDE8104004BF01F00041DA
:104CB00000207047BDE8104070B500F0F3F800BF69
:104CC00064FBBE3E0000E0FF4FEA1153A3F5806392
:104CD000D3F11E03A8BFD3F1200C08DB4FF0004234
:104CE00042EAC12252EA505232FA03F070470942B6
:104CF0000BD4102BC4BF0020704703F5787CBCF1A7
:104D0000FF3F05D04FF0FF3070474FF00000704775
:104D100070B500F0C7F800BF4992248000207047AA
:104D2000F0E710F0004248BF4042B0FA80F310FABA
:104D300003F10AD0C3F11D0303F580634FEA41502C
:104D400002EB035202EBD12170474FF00000704795
:104D5000DFF848C170B51CEA111E1EBF1CEA13150E
:104D60009EEA0C0F95EA0C0F00F06F8081EA0304B5
:104D700023EA4C134EEAD47E21EA4C1141F480110F
:104D800043F48013AE44A1FB024CA0FB0365AEF1DB
:104D90007F7E361955EB0C05A1FB034C4CF100034B
:104DA000A0FB021C16EB0C06654153F100030942FF
:104DB00018BF46F0010613F4007F0BD14FEA033110
:104DC0004FEA0530340341EA155140EA16506FF0BE
:104DD00003020AE04FEAC3214FEAC520F40241EA88
:104DE000555140EA56506FF0020202EB2E4201EBA1
:104DF000025585EACE710AD05FEA440C18BF24F050
:104E0000004450F1000041F1000120EAD47040F26A
:104E1000FE7C624500D270BDA84214BF4FF08044B2
:104E20004FF04044002E08BF0024BEF1806FA8BFA1
:104E3000A1F1C041BDE8704080F282804FF00000D7
:104E400001F1C04101F0004170479EEA0C0F0CEAED
:104E5000131518BF95EA0C0F06D04FF0000081EA39
:104E6000030E0EF0004170BD00F01CF88900013EF9
:104E700000F007B800F009B84FEA430C5FEA5C5C49
:104E800008D081EA030100F05BB84FEA410C5FEA09
:104E90005C5CF6D14FF00000014970470000FF074D
:104EA0000000F87F0EF1020E2EF0030E5EF8046B88
:104EB000364205D4012A43EB030515F5001F12D82D
:104EC000012841EB010C1CF5001F0CD80ED14FEA54
:104ED000D17C15F5001F0CEB4C0C0CF1020C08BF3B
:104EE0004CEBD37C04E04FF0080C01E04FEAD37C9C
:104EF0000CEB4C0526FA05F606F00706B6F1040C95
:104F000006D20EEB860CBDE870404CF0010C6047F9
:104F1000DFE80CF0090B02024FF000414FF00000F7
:104F2000A1F5002170BD19461046012851EB01047E
:104F300018BFD4F5001484BF002001F0004170BDFB
:104F40000808A0F500114FEA3101704710B591EA49
:104F5000030F48BF83F000433FF516AE841A71EB90
:104F6000030C07D212198CF0004C43EB0C03001B0E
:104F700061EB0C01DFF8A4E14FEA1154A4EB135CE0
:104F80001EEA430F18BF9EEA445F00F0B08023EA98
:104F90006E03524221EA0451C3EB6E0338BF5B1E1D
:104FA000DCF1200E25D322FA0CFE10EB0E0043FAA2
:104FB0000CFE41EB0E01CCF1200E03FA0EFE10EBBD
:104FC0000E0051F10001CCF1200E29D412FA0EF29C
:104FD00001EB0451BDE8104058BF7047401C1CBF96
:104FE000B2F1004F704700280CBF491C20F00100AF
:104FF000704712EB020E43EB030218BF4FF0010E95
:105000004EEA4202ACF1200CDCF11E0E54D943FAF8
:105010000CFE10EB0E0051F1FF31CCF11E0ED5D578
:105020000EF1010E12FA0EFE404141EB010101EBBF
:10503000445C5FEA5C5C10D910EBDE7001EB04515C
:1050400038BFBEF1004FBDE8104018BF70470028C0
:105050000CBF491C20F00100704730D24FEAD42C1D
:1050600011F5001124F400641BD0B1FA81F20B3A5F
:10507000A41AA41ED2F12003914030FA03F319437D
:10508000904001EBCC71002C01EB0451BDE81040C5
:10509000A8BF704701F1C0414FF0000001F000418E
:1050A0007047B0FA80F310FA03F100D110BDE41A92
:1050B000173C4805C90AE4E701EB045110BD49104B
:1050C00001EB0451BDE810404FEA300002E04FF020
:1050D000000170474A0008BF0042F8D0B2F5001F37
:1050E00028BF704701F000414FF0000070479EEA72
:1050F000445F07D011EA5E0FBDE8104004BF0021F5
:1051000000207047BDE8104070B5FFF7CBFE00BF30
:1051100040DFF63E83F00041104670470000E0FF9C
:1051200043004FEAD30C4FEA3C0C43401FBF4007FB
:105130000CF1605113F0FE4F70471CF0006F03D16B
:1051400000200CF0004170470CF0004343EA50701F
:1051500010B540EACC0000F062FA00BF00000092F7
:105160004FEA0001FFF7ECBE4FF000414FF00000A6
:10517000A1F500217047000090EA010F48BF81F0BF
:10518000004100F16283421A3CBF801A89184FEA3D
:10519000D0524FF07F4C1CEA410FA2EBD15318BF05
:1051A0009CEA026F00F03B804FF0004C4CEA00207C
:1051B0004CEA012121FA03FC10EB0C0C1ED202F187
:1051C000FF325FEA1C2040EBC25038BF70471CF032
:1051D0007F0F4FEA400C18BFBCF17F4F38BF7047BC
:1051E000C3F12003994008BF20F00100BCF17F4FBC
:1051F00038BF7047A0F1C04000F057BA4FEA3C00FA
:10520000000A40EBC25028BF1CF0FF0F4FEA400CD1
:10521000E6D018BFBCF17F4F38BF7047EAE79CEA81
:10522000026F05D010EA5C0F08BF00F00040704725
:1052300010B500F0F4F900BF64FBBE3E014800F079
:1052400072BB00BF0000C07F401058BFC0F140409B
:10525000491058BFC1F140418142EFF300807047CF
:105260004FF47F0C1CEAD0121EBF1CEAD11392EA45
:105270000C0F93EA0C0F00F0858090EA010F48BFF5
:1052800042F4807240F4000C41F400002CF07F41A5
:1052900020F07F4000B58142A2EB03020FF2081C10
:1052A000ACEB504EC0F100009EF800E04FEA4E0E0D
:1052B00000FB0EFC38BF49004FEA2C1C02F5FA0235
:1052C0000CFB0EF34FEACE1E4FEA112C4FEAC12120
:1052D0000EEB635E42EB22420EFB0CFC4FEA1C53CA
:1052E00000FB03114FEA112C4FEA01310EFB0CFCBD
:1052F0004FEADC4C00FB0C11C14228BF09184CEBF3
:1053000003335DF804EB10EB410143EBC250B2F5FF
:105310007C0F38BF704729D512F0F00F1CBF00F189
:10532000C04000F0004070470081828384858687FA
:1053300088898B8C8D8E8F919293959697999A9C54
:105340009D9FA0A2A3A5A7A8AAACAEB0B2B3B5B7C3
:10535000B9BCBEC0C2C5C7C9CCCED1D4D7D9DCDF99
:10536000E2E6E9ECF0F3F7FAFE0000004FEA400C49
:105370000CF1807CBCF17E4F28BF7047B0F1C0407B
:1053800000F093B990EA010F0CEAD11348BF42F440
:105390008072624538BF634507D213F47F0F16D081
:1053A00080EA010000F00040704710B500F037F9C6
:1053B000097EFC3E00F005B880EA010000F00040E4
:1053C000704780EA010000F0004000F06EB912F46E
:1053D0007F0F04BF0248704780EA010000F065B902
:1053E0000000C07F41000B0ED3F19E0208D950F49B
:1053F00000034FEA032323FA02F048BF40427047FC
:1054000010B500F00CF900BF4992248000207047CD
:105410006FF0004282EA200070470000C10DD1F118
:105420009E0206DB4FEA002343F0004323FA02F01A
:105430007047004207D54FEA4001B1F1FE4F02D25A
:105440004FF00000704710B500F0E9F84992248051
:10545000002070476FEA20007047000010F0004104
:1054600048BF4042B0FA80F310FA03F2C3F19D0343
:105470000BD051EAC35101EB1220530638BF7047DD
:1054800000F1010008BF20F001007047B0FA80F37E
:1054900010FA03F2C3F19D030AD0D90501EB1220E3
:1054A000530638BF704700F1010008BF20F001002B
:1054B0007047000050EA010C00F113801CF5000F4A
:1054C00058BFBCF5000F01D48842704707D710F5CC
:1054D000000F58BF11F5000F15D48842704789425C
:1054E00070471CF5000F04D5BCF5000FF7D58142BD
:1054F00070474FF0807C1CEB400F38BF1CEB410F16
:1055000001D28142704710B500F089F89224490019
:105510004FF000504FF08051FFF796BE4FF47F0CD4
:105520001CEAD0121EBF1CEAD11392EA0C0F93EAB8
:105530000C0F00F0478090EA010F48BF42F48072E0
:105540004FF0004C4CEA00204CEA012102EB030230
:10555000A0FB0113A2F50002002918BF43F00103CC
:105560005B0028BF4FEA330342EB22425FEA132C71
:105570004CEBC2502EBFBCEB436FB2F57C0F7047B3
:105580004FEA036CBCF1004F08BF20F00100B2F5F8
:105590007C0F38BF70470BD582F0FF0212F5803FB9
:1055A000C8BF704700F1C040D8BF00F0004070474E
:1055B00000F5000C5FEA4C0C48BF7047B0F1C040EA
:1055C00000F073B890EA010F0CEAD11348BF42F41F
:1055D0008072624538BF634504D280EA010000F062
:1055E0000040704710B500F01AF800BF8900013E76
:1055F00000F007B800F009B85FEA410C5FEA1C6CE4
:1056000008D080EA010000F050B85FEA400C5FEA81
:105610001C6CF6D14FF00040A0F5800070470EF1F1
:10562000020E2EF0030E5EF8044B244204D44FEA1F
:105630004102B2F17F4F11D84FEA4003B3F17F4FDF
:105640000CD80ED14FEAD07CB2F17F4F0CEB4C0C52
:105650000CF1020C08BF4CEBD17C04E04FF0080CBD
:1056600001E04FEAD17C0CEB4C0324FA03F404F084
:105670000704B4F1040C06D20EEB840CBDE8104014
:105680004CF0010C6047DFE80CF0070802024FF015
:105690000040A0F5800010BD0846420018BFD2F1BE
:1056A000807288BF00F0004010BDFF2141EAD05059
:1056B000C005704751EA000C00F113801CF5000F83
:1056C00058BFBCF5000F01D48142704707D711F5D0
:1056D000000F58BF10F5000F15D481427047894262
:1056E00070471CF5000F04D5BCF5000FF7D58842B4
:1056F00070474FF0807C1CEB410F38BF1CEB400F14
:1057000001D28842704780EA010081EA000180EA04
:105710000100FFF7F8BE80F0004090EA010F7FF52E
:1057200032AD81F0004100F090B800004FEAD05156
:10573000002988BFD1F1FF0240F2758001F17D019F
:105740004FEA002070B5490840F0004038BF4008DB
:105750000EA2430E040CD25C02FB02F304FB03F323
:10576000C3F14043A3FB0254ED0D45EA442202FB82
:1057700002F3A0FB03546D42C4F1404438BF641EE1
:10578000A2FB05350023E2FB0453EA0B42EA434245
:10579000A0FB023212F14004A2F12103E40903F05C
:1057A0007F031F2B32D904EBC15070BDFEFAF7F313
:1057B000F0ECE9E6E4E1DEDCD9D7D4D2D0CECCCA35
:1057C000C8C6C4C2C1BFBDBCBAB9B7B6B4B3B2B023
:1057D000AFAEACABAAA9A8A7A6A4A3A2A1A09F9E66
:1057E0009E9D9C9B9A999897979695949393929146
:1057F00090908F8E8E8D8C8C8B8A8A8989888787F2
:1058000086868584848383828281818004FB04F67A
:10581000B6EB004603D5E64248BF641CC3E7A64288
:1058200058BF641CBFE711F0FF0F02D100F0004029
:10583000704710B5FFF7F3FE7FDBFFBE90EA010F64
:1058400048BF81F000413FF59EAC421A04D882F077
:105850000042A0EB020011444FEAD0524FF07F4CBF
:105860001CEA410FA2EBD15318BF9CEA026F4AD049
:105870004FF0004C4CEA00204CEA012121FA03FCD5
:10588000B0EB0C0C0FD412F0FE0F36D05FEA4C00D8
:105890001DD5001240EBC25038BF70471CF03F0FBF
:1058A00018BF70470BE0A2F101025FEA1C2040EB39
:1058B000C25038BF70471CF07F0F18BF7047C3F14C
:1058C0002003994014BF401E20F00100704780085B
:1058D0004FEA122308BF7047B0FA80FCA2EB0C021B
:1058E000CCF1280C60FA0CF093EA122F04BF00EB05
:1058F000C25070474FEAC3707047130A5FEADC106A
:1059000008BF7047F6E79CEA026F04D010EA5C0F0C
:1059100008BF0020704710B5FFF781FE40DFF63E5C
:1059200081F0004070470CF00F03092B08BF0820DE
:1059300000F051800A2B0BD0082B18BF704708BF0E
:105940001CF0400F0AD04FF000004FF000017047EC
:105950001CF0400F18BF4FF0004070471CF0100FB4
:1059600008D020F0704300F07F4242EAD3014FEAB2
:105970004370704700F0604021F07F4242EA00022D
:1059800001F07F4040EA727070474FF0FF0212EA68
:10599000D0521CBF92F0FF038B42C2BFD14200EB3A
:1059A000C1507047002A0AD0002B0BD0002900F00C
:1059B0000040A4BF40F0FE4040F40000704700F0FB
:1059C0000040704743024FF00B0C18BF4CF0806C46
:1059D0007FF434AC70471CF4801F11D01CF4E02F0E
:1059E00003D06FEACC31490070474FF04050EFF3DD
:1059F000008222F0704242EA000282F3008870477F
:105A00004FF00000704700AA01AA02AA03AA04AA44
:105A100005AA06AA07AA08AA09AA0AAA0BAA0CAAF2
:105A20000DAA0EAA0FAA00005C5A00080000002070
:105A30006000000028010008BC5A00086000002037
:105A4000D00A000044010008B1A7FFFF51ACFFFFDE
:105A500001B5FFFFCDB5FFFFC1C7FFFF000000008C
:105A60000000000000000000000000000000000036
:105A70000000000000000000000000000000092BF2
:105A8000CC0001092BCC0001000000000000000048
:105A900000000000000001020304010203040607E5
:105AA000080902040608000000A24A0400000000E1
:0C5AB000000000000102030406070809C2
:04000005080000ED02
:00000001FF
